{
	"blockchain/contracts/Marketplace.sol": {
		"Marketplace": {
			"abi": [
				{
					"inputs": [],
					"stateMutability": "nonpayable",
					"type": "constructor"
				},
				{
					"anonymous": false,
					"inputs": [
						{
							"indexed": true,
							"internalType": "string",
							"name": "orderId",
							"type": "string"
						},
						{
							"indexed": true,
							"internalType": "address",
							"name": "buyer",
							"type": "address"
						},
						{
							"indexed": true,
							"internalType": "address",
							"name": "producer",
							"type": "address"
						},
						{
							"indexed": false,
							"internalType": "string",
							"name": "paymentReference",
							"type": "string"
						},
						{
							"indexed": false,
							"internalType": "string",
							"name": "amountETB",
							"type": "string"
						},
						{
							"indexed": false,
							"internalType": "uint256",
							"name": "timestamp",
							"type": "uint256"
						},
						{
							"indexed": false,
							"internalType": "string",
							"name": "txHash",
							"type": "string"
						}
					],
					"name": "TransactionRecorded",
					"type": "event"
				},
				{
					"inputs": [
						{
							"internalType": "uint256",
							"name": "",
							"type": "uint256"
						}
					],
					"name": "allTransactionIds",
					"outputs": [
						{
							"internalType": "string",
							"name": "",
							"type": "string"
						}
					],
					"stateMutability": "view",
					"type": "function"
				},
				{
					"inputs": [
						{
							"internalType": "address",
							"name": "_producer",
							"type": "address"
						}
					],
					"name": "getProducerTransactions",
					"outputs": [
						{
							"internalType": "string[]",
							"name": "",
							"type": "string[]"
						}
					],
					"stateMutability": "view",
					"type": "function"
				},
				{
					"inputs": [
						{
							"internalType": "string",
							"name": "_orderId",
							"type": "string"
						}
					],
					"name": "getTransaction",
					"outputs": [
						{
							"internalType": "string",
							"name": "orderId",
							"type": "string"
						},
						{
							"internalType": "string",
							"name": "paymentReference",
							"type": "string"
						},
						{
							"internalType": "string",
							"name": "amountETB",
							"type": "string"
						},
						{
							"internalType": "address",
							"name": "buyer",
							"type": "address"
						},
						{
							"internalType": "address",
							"name": "producer",
							"type": "address"
						},
						{
							"internalType": "uint256",
							"name": "timestamp",
							"type": "uint256"
						},
						{
							"internalType": "string",
							"name": "txHash",
							"type": "string"
						},
						{
							"internalType": "bool",
							"name": "isVerified",
							"type": "bool"
						}
					],
					"stateMutability": "view",
					"type": "function"
				},
				{
					"inputs": [],
					"name": "getTransactionCount",
					"outputs": [
						{
							"internalType": "uint256",
							"name": "",
							"type": "uint256"
						}
					],
					"stateMutability": "view",
					"type": "function"
				},
				{
					"inputs": [
						{
							"internalType": "address",
							"name": "_user",
							"type": "address"
						}
					],
					"name": "getUserTransactions",
					"outputs": [
						{
							"internalType": "string[]",
							"name": "",
							"type": "string[]"
						}
					],
					"stateMutability": "view",
					"type": "function"
				},
				{
					"inputs": [],
					"name": "owner",
					"outputs": [
						{
							"internalType": "address",
							"name": "",
							"type": "address"
						}
					],
					"stateMutability": "view",
					"type": "function"
				},
				{
					"inputs": [
						{
							"internalType": "address",
							"name": "",
							"type": "address"
						},
						{
							"internalType": "uint256",
							"name": "",
							"type": "uint256"
						}
					],
					"name": "producerTransactions",
					"outputs": [
						{
							"internalType": "string",
							"name": "",
							"type": "string"
						}
					],
					"stateMutability": "view",
					"type": "function"
				},
				{
					"inputs": [
						{
							"internalType": "string",
							"name": "_orderId",
							"type": "string"
						},
						{
							"internalType": "string",
							"name": "_paymentReference",
							"type": "string"
						},
						{
							"internalType": "string",
							"name": "_amountETB",
							"type": "string"
						},
						{
							"internalType": "address",
							"name": "_buyer",
							"type": "address"
						},
						{
							"internalType": "address",
							"name": "_producer",
							"type": "address"
						},
						{
							"internalType": "string",
							"name": "_txHash",
							"type": "string"
						}
					],
					"name": "recordTransaction",
					"outputs": [],
					"stateMutability": "nonpayable",
					"type": "function"
				},
				{
					"inputs": [
						{
							"internalType": "string",
							"name": "",
							"type": "string"
						}
					],
					"name": "transactions",
					"outputs": [
						{
							"internalType": "string",
							"name": "orderId",
							"type": "string"
						},
						{
							"internalType": "string",
							"name": "paymentReference",
							"type": "string"
						},
						{
							"internalType": "string",
							"name": "amountETB",
							"type": "string"
						},
						{
							"internalType": "address",
							"name": "buyer",
							"type": "address"
						},
						{
							"internalType": "address",
							"name": "producer",
							"type": "address"
						},
						{
							"internalType": "uint256",
							"name": "timestamp",
							"type": "uint256"
						},
						{
							"internalType": "string",
							"name": "txHash",
							"type": "string"
						},
						{
							"internalType": "bool",
							"name": "isVerified",
							"type": "bool"
						}
					],
					"stateMutability": "view",
					"type": "function"
				},
				{
					"inputs": [
						{
							"internalType": "address",
							"name": "",
							"type": "address"
						},
						{
							"internalType": "uint256",
							"name": "",
							"type": "uint256"
						}
					],
					"name": "userTransactions",
					"outputs": [
						{
							"internalType": "string",
							"name": "",
							"type": "string"
						}
					],
					"stateMutability": "view",
					"type": "function"
				},
				{
					"inputs": [
						{
							"internalType": "string",
							"name": "_orderId",
							"type": "string"
						}
					],
					"name": "verifyTransaction",
					"outputs": [
						{
							"internalType": "bool",
							"name": "",
							"type": "bool"
						}
					],
					"stateMutability": "view",
					"type": "function"
				}
			],
			"devdoc": {
				"kind": "dev",
				"methods": {},
				"version": 1
			},
			"evm": {
				"assembly": "    /* \"blockchain/contracts/Marketplace.sol\":61:3849  contract Marketplace {... */\n  mstore(0x40, 0x80)\n    /* \"blockchain/contracts/Marketplace.sol\":1033:1084  constructor() {... */\n  callvalue\n  dup1\n  iszero\n  tag_1\n  jumpi\n  revert(0x00, 0x00)\ntag_1:\n  pop\n    /* \"blockchain/contracts/Marketplace.sol\":1066:1076  msg.sender */\n  caller\n    /* \"blockchain/contracts/Marketplace.sol\":1058:1063  owner */\n  0x04\n  0x00\n    /* \"blockchain/contracts/Marketplace.sol\":1058:1076  owner = msg.sender */\n  0x0100\n  exp\n  dup2\n  sload\n  dup2\n  0xffffffffffffffffffffffffffffffffffffffff\n  mul\n  not\n  and\n  swap1\n  dup4\n  0xffffffffffffffffffffffffffffffffffffffff\n  and\n  mul\n  or\n  swap1\n  sstore\n  pop\n    /* \"blockchain/contracts/Marketplace.sol\":61:3849  contract Marketplace {... */\n  dataSize(sub_0)\n  dup1\n  dataOffset(sub_0)\n  0x00\n  codecopy\n  0x00\n  return\nstop\n\nsub_0: assembly {\n        /* \"blockchain/contracts/Marketplace.sol\":61:3849  contract Marketplace {... */\n      mstore(0x40, 0x80)\n      callvalue\n      dup1\n      iszero\n      tag_1\n      jumpi\n      revert(0x00, 0x00)\n    tag_1:\n      pop\n      jumpi(tag_2, lt(calldatasize, 0x04))\n      shr(0xe0, calldataload(0x00))\n      dup1\n      0x6f37ce43\n      gt\n      tag_14\n      jumpi\n      dup1\n      0x6f37ce43\n      eq\n      tag_8\n      jumpi\n      dup1\n      0x8da5cb5b\n      eq\n      tag_9\n      jumpi\n      dup1\n      0xac2ccd07\n      eq\n      tag_10\n      jumpi\n      dup1\n      0xb842ec44\n      eq\n      tag_11\n      jumpi\n      dup1\n      0xc14a08c9\n      eq\n      tag_12\n      jumpi\n      dup1\n      0xef925399\n      eq\n      tag_13\n      jumpi\n      jump(tag_2)\n    tag_14:\n      dup1\n      0x022236f4\n      eq\n      tag_3\n      jumpi\n      dup1\n      0x0a5be728\n      eq\n      tag_4\n      jumpi\n      dup1\n      0x2a4f6f96\n      eq\n      tag_5\n      jumpi\n      dup1\n      0x2e08673a\n      eq\n      tag_6\n      jumpi\n      dup1\n      0x2e7700f0\n      eq\n      tag_7\n      jumpi\n    tag_2:\n      revert(0x00, 0x00)\n        /* \"blockchain/contracts/Marketplace.sol\":382:438  mapping(string => TransactionRecord) public transactions */\n    tag_3:\n      tag_15\n      0x04\n      dup1\n      calldatasize\n      sub\n      dup2\n      add\n      swap1\n      tag_16\n      swap2\n      swap1\n      tag_17\n      jump\t// in\n    tag_16:\n      tag_18\n      jump\t// in\n    tag_15:\n      mload(0x40)\n      tag_19\n      swap9\n      swap8\n      swap7\n      swap6\n      swap5\n      swap4\n      swap3\n      swap2\n      swap1\n      tag_20\n      jump\t// in\n    tag_19:\n      mload(0x40)\n      dup1\n      swap2\n      sub\n      swap1\n      return\n        /* \"blockchain/contracts/Marketplace.sol\":1096:2459  function recordTransaction(... */\n    tag_4:\n      tag_21\n      0x04\n      dup1\n      calldatasize\n      sub\n      dup2\n      add\n      swap1\n      tag_22\n      swap2\n      swap1\n      tag_23\n      jump\t// in\n    tag_22:\n      tag_24\n      jump\t// in\n    tag_21:\n      stop\n        /* \"blockchain/contracts/Marketplace.sol\":567:600  string[] public allTransactionIds */\n    tag_5:\n      tag_25\n      0x04\n      dup1\n      calldatasize\n      sub\n      dup2\n      add\n      swap1\n      tag_26\n      swap2\n      swap1\n      tag_27\n      jump\t// in\n    tag_26:\n      tag_28\n      jump\t// in\n    tag_25:\n      mload(0x40)\n      tag_29\n      swap2\n      swap1\n      tag_30\n      jump\t// in\n    tag_29:\n      mload(0x40)\n      dup1\n      swap2\n      sub\n      swap1\n      return\n        /* \"blockchain/contracts/Marketplace.sol\":3572:3721  function getProducerTransactions(address _producer) external view returns (string[] memory) {... */\n    tag_6:\n      tag_31\n      0x04\n      dup1\n      calldatasize\n      sub\n      dup2\n      add\n      swap1\n      tag_32\n      swap2\n      swap1\n      tag_33\n      jump\t// in\n    tag_32:\n      tag_34\n      jump\t// in\n    tag_31:\n      mload(0x40)\n      tag_35\n      swap2\n      swap1\n      tag_36\n      jump\t// in\n    tag_35:\n      mload(0x40)\n      dup1\n      swap2\n      sub\n      swap1\n      return\n        /* \"blockchain/contracts/Marketplace.sol\":3733:3846  function getTransactionCount() external view returns (uint256) {... */\n    tag_7:\n      tag_37\n      tag_38\n      jump\t// in\n    tag_37:\n      mload(0x40)\n      tag_39\n      swap2\n      swap1\n      tag_40\n      jump\t// in\n    tag_39:\n      mload(0x40)\n      dup1\n      swap2\n      sub\n      swap1\n      return\n        /* \"blockchain/contracts/Marketplace.sol\":3261:3415  function verifyTransaction(string memory _orderId) external view returns (bool) {... */\n    tag_8:\n      tag_41\n      0x04\n      dup1\n      calldatasize\n      sub\n      dup2\n      add\n      swap1\n      tag_42\n      swap2\n      swap1\n      tag_17\n      jump\t// in\n    tag_42:\n      tag_43\n      jump\t// in\n    tag_41:\n      mload(0x40)\n      tag_44\n      swap2\n      swap1\n      tag_45\n      jump\t// in\n    tag_44:\n      mload(0x40)\n      dup1\n      swap2\n      sub\n      swap1\n      return\n        /* \"blockchain/contracts/Marketplace.sol\":613:633  address public owner */\n    tag_9:\n      tag_46\n      tag_47\n      jump\t// in\n    tag_46:\n      mload(0x40)\n      tag_48\n      swap2\n      swap1\n      tag_49\n      jump\t// in\n    tag_48:\n      mload(0x40)\n      dup1\n      swap2\n      sub\n      swap1\n      return\n        /* \"blockchain/contracts/Marketplace.sol\":2471:3249  function getTransaction(string memory _orderId) external view returns (... */\n    tag_10:\n      tag_50\n      0x04\n      dup1\n      calldatasize\n      sub\n      dup2\n      add\n      swap1\n      tag_51\n      swap2\n      swap1\n      tag_17\n      jump\t// in\n    tag_51:\n      tag_52\n      jump\t// in\n    tag_50:\n      mload(0x40)\n      tag_53\n      swap9\n      swap8\n      swap7\n      swap6\n      swap5\n      swap4\n      swap3\n      swap2\n      swap1\n      tag_20\n      jump\t// in\n    tag_53:\n      mload(0x40)\n      dup1\n      swap2\n      sub\n      swap1\n      return\n        /* \"blockchain/contracts/Marketplace.sol\":445:497  mapping(address => string[]) public userTransactions */\n    tag_11:\n      tag_54\n      0x04\n      dup1\n      calldatasize\n      sub\n      dup2\n      add\n      swap1\n      tag_55\n      swap2\n      swap1\n      tag_56\n      jump\t// in\n    tag_55:\n      tag_57\n      jump\t// in\n    tag_54:\n      mload(0x40)\n      tag_58\n      swap2\n      swap1\n      tag_30\n      jump\t// in\n    tag_58:\n      mload(0x40)\n      dup1\n      swap2\n      sub\n      swap1\n      return\n        /* \"blockchain/contracts/Marketplace.sol\":504:560  mapping(address => string[]) public producerTransactions */\n    tag_12:\n      tag_59\n      0x04\n      dup1\n      calldatasize\n      sub\n      dup2\n      add\n      swap1\n      tag_60\n      swap2\n      swap1\n      tag_56\n      jump\t// in\n    tag_60:\n      tag_61\n      jump\t// in\n    tag_59:\n      mload(0x40)\n      tag_62\n      swap2\n      swap1\n      tag_30\n      jump\t// in\n    tag_62:\n      mload(0x40)\n      dup1\n      swap2\n      sub\n      swap1\n      return\n        /* \"blockchain/contracts/Marketplace.sol\":3427:3560  function getUserTransactions(address _user) external view returns (string[] memory) {... */\n    tag_13:\n      tag_63\n      0x04\n      dup1\n      calldatasize\n      sub\n      dup2\n      add\n      swap1\n      tag_64\n      swap2\n      swap1\n      tag_33\n      jump\t// in\n    tag_64:\n      tag_65\n      jump\t// in\n    tag_63:\n      mload(0x40)\n      tag_66\n      swap2\n      swap1\n      tag_36\n      jump\t// in\n    tag_66:\n      mload(0x40)\n      dup1\n      swap2\n      sub\n      swap1\n      return\n        /* \"blockchain/contracts/Marketplace.sol\":382:438  mapping(string => TransactionRecord) public transactions */\n    tag_18:\n      0x00\n      dup2\n      dup1\n      mload\n      0x20\n      dup2\n      add\n      dup3\n      add\n      dup1\n      mload\n      dup5\n      dup3\n      mstore\n      0x20\n      dup4\n      add\n      0x20\n      dup6\n      add\n      keccak256\n      dup2\n      dup4\n      mstore\n      dup1\n      swap6\n      pop\n      pop\n      pop\n      pop\n      pop\n      pop\n      0x00\n      swap2\n      pop\n      swap1\n      pop\n      dup1\n      0x00\n      add\n      dup1\n      sload\n      tag_67\n      swap1\n      tag_68\n      jump\t// in\n    tag_67:\n      dup1\n      0x1f\n      add\n      0x20\n      dup1\n      swap2\n      div\n      mul\n      0x20\n      add\n      mload(0x40)\n      swap1\n      dup2\n      add\n      0x40\n      mstore\n      dup1\n      swap3\n      swap2\n      swap1\n      dup2\n      dup2\n      mstore\n      0x20\n      add\n      dup3\n      dup1\n      sload\n      tag_69\n      swap1\n      tag_68\n      jump\t// in\n    tag_69:\n      dup1\n      iszero\n      tag_70\n      jumpi\n      dup1\n      0x1f\n      lt\n      tag_71\n      jumpi\n      0x0100\n      dup1\n      dup4\n      sload\n      div\n      mul\n      dup4\n      mstore\n      swap2\n      0x20\n      add\n      swap2\n      jump(tag_70)\n    tag_71:\n      dup3\n      add\n      swap2\n      swap1\n      0x00\n      mstore\n      keccak256(0x00, 0x20)\n      swap1\n    tag_72:\n      dup2\n      sload\n      dup2\n      mstore\n      swap1\n      0x01\n      add\n      swap1\n      0x20\n      add\n      dup1\n      dup4\n      gt\n      tag_72\n      jumpi\n      dup3\n      swap1\n      sub\n      0x1f\n      and\n      dup3\n      add\n      swap2\n    tag_70:\n      pop\n      pop\n      pop\n      pop\n      pop\n      swap1\n      dup1\n      0x01\n      add\n      dup1\n      sload\n      tag_73\n      swap1\n      tag_68\n      jump\t// in\n    tag_73:\n      dup1\n      0x1f\n      add\n      0x20\n      dup1\n      swap2\n      div\n      mul\n      0x20\n      add\n      mload(0x40)\n      swap1\n      dup2\n      add\n      0x40\n      mstore\n      dup1\n      swap3\n      swap2\n      swap1\n      dup2\n      dup2\n      mstore\n      0x20\n      add\n      dup3\n      dup1\n      sload\n      tag_74\n      swap1\n      tag_68\n      jump\t// in\n    tag_74:\n      dup1\n      iszero\n      tag_75\n      jumpi\n      dup1\n      0x1f\n      lt\n      tag_76\n      jumpi\n      0x0100\n      dup1\n      dup4\n      sload\n      div\n      mul\n      dup4\n      mstore\n      swap2\n      0x20\n      add\n      swap2\n      jump(tag_75)\n    tag_76:\n      dup3\n      add\n      swap2\n      swap1\n      0x00\n      mstore\n      keccak256(0x00, 0x20)\n      swap1\n    tag_77:\n      dup2\n      sload\n      dup2\n      mstore\n      swap1\n      0x01\n      add\n      swap1\n      0x20\n      add\n      dup1\n      dup4\n      gt\n      tag_77\n      jumpi\n      dup3\n      swap1\n      sub\n      0x1f\n      and\n      dup3\n      add\n      swap2\n    tag_75:\n      pop\n      pop\n      pop\n      pop\n      pop\n      swap1\n      dup1\n      0x02\n      add\n      dup1\n      sload\n      tag_78\n      swap1\n      tag_68\n      jump\t// in\n    tag_78:\n      dup1\n      0x1f\n      add\n      0x20\n      dup1\n      swap2\n      div\n      mul\n      0x20\n      add\n      mload(0x40)\n      swap1\n      dup2\n      add\n      0x40\n      mstore\n      dup1\n      swap3\n      swap2\n      swap1\n      dup2\n      dup2\n      mstore\n      0x20\n      add\n      dup3\n      dup1\n      sload\n      tag_79\n      swap1\n      tag_68\n      jump\t// in\n    tag_79:\n      dup1\n      iszero\n      tag_80\n      jumpi\n      dup1\n      0x1f\n      lt\n      tag_81\n      jumpi\n      0x0100\n      dup1\n      dup4\n      sload\n      div\n      mul\n      dup4\n      mstore\n      swap2\n      0x20\n      add\n      swap2\n      jump(tag_80)\n    tag_81:\n      dup3\n      add\n      swap2\n      swap1\n      0x00\n      mstore\n      keccak256(0x00, 0x20)\n      swap1\n    tag_82:\n      dup2\n      sload\n      dup2\n      mstore\n      swap1\n      0x01\n      add\n      swap1\n      0x20\n      add\n      dup1\n      dup4\n      gt\n      tag_82\n      jumpi\n      dup3\n      swap1\n      sub\n      0x1f\n      and\n      dup3\n      add\n      swap2\n    tag_80:\n      pop\n      pop\n      pop\n      pop\n      pop\n      swap1\n      dup1\n      0x03\n      add\n      0x00\n      swap1\n      sload\n      swap1\n      0x0100\n      exp\n      swap1\n      div\n      0xffffffffffffffffffffffffffffffffffffffff\n      and\n      swap1\n      dup1\n      0x04\n      add\n      0x00\n      swap1\n      sload\n      swap1\n      0x0100\n      exp\n      swap1\n      div\n      0xffffffffffffffffffffffffffffffffffffffff\n      and\n      swap1\n      dup1\n      0x05\n      add\n      sload\n      swap1\n      dup1\n      0x06\n      add\n      dup1\n      sload\n      tag_83\n      swap1\n      tag_68\n      jump\t// in\n    tag_83:\n      dup1\n      0x1f\n      add\n      0x20\n      dup1\n      swap2\n      div\n      mul\n      0x20\n      add\n      mload(0x40)\n      swap1\n      dup2\n      add\n      0x40\n      mstore\n      dup1\n      swap3\n      swap2\n      swap1\n      dup2\n      dup2\n      mstore\n      0x20\n      add\n      dup3\n      dup1\n      sload\n      tag_84\n      swap1\n      tag_68\n      jump\t// in\n    tag_84:\n      dup1\n      iszero\n      tag_85\n      jumpi\n      dup1\n      0x1f\n      lt\n      tag_86\n      jumpi\n      0x0100\n      dup1\n      dup4\n      sload\n      div\n      mul\n      dup4\n      mstore\n      swap2\n      0x20\n      add\n      swap2\n      jump(tag_85)\n    tag_86:\n      dup3\n      add\n      swap2\n      swap1\n      0x00\n      mstore\n      keccak256(0x00, 0x20)\n      swap1\n    tag_87:\n      dup2\n      sload\n      dup2\n      mstore\n      swap1\n      0x01\n      add\n      swap1\n      0x20\n      add\n      dup1\n      dup4\n      gt\n      tag_87\n      jumpi\n      dup3\n      swap1\n      sub\n      0x1f\n      and\n      dup3\n      add\n      swap2\n    tag_85:\n      pop\n      pop\n      pop\n      pop\n      pop\n      swap1\n      dup1\n      0x07\n      add\n      0x00\n      swap1\n      sload\n      swap1\n      0x0100\n      exp\n      swap1\n      div\n      0xff\n      and\n      swap1\n      pop\n      dup9\n      jump\t// out\n        /* \"blockchain/contracts/Marketplace.sol\":1096:2459  function recordTransaction(... */\n    tag_24:\n        /* \"blockchain/contracts/Marketplace.sol\":958:963  owner */\n      0x04\n      0x00\n      swap1\n      sload\n      swap1\n      0x0100\n      exp\n      swap1\n      div\n      0xffffffffffffffffffffffffffffffffffffffff\n      and\n        /* \"blockchain/contracts/Marketplace.sol\":944:963  msg.sender == owner */\n      0xffffffffffffffffffffffffffffffffffffffff\n      and\n        /* \"blockchain/contracts/Marketplace.sol\":944:954  msg.sender */\n      caller\n        /* \"blockchain/contracts/Marketplace.sol\":944:963  msg.sender == owner */\n      0xffffffffffffffffffffffffffffffffffffffff\n      and\n      eq\n        /* \"blockchain/contracts/Marketplace.sol\":936:1001  require(msg.sender == owner, \"Only owner can call this function\") */\n      tag_89\n      jumpi\n      mload(0x40)\n      0x08c379a000000000000000000000000000000000000000000000000000000000\n      dup2\n      mstore\n      0x04\n      add\n      tag_90\n      swap1\n      tag_91\n      jump\t// in\n    tag_90:\n      mload(0x40)\n      dup1\n      swap2\n      sub\n      swap1\n      revert\n    tag_89:\n        /* \"blockchain/contracts/Marketplace.sol\":1390:1391  0 */\n      0x00\n        /* \"blockchain/contracts/Marketplace.sol\":1371:1379  _orderId */\n      dup7\n        /* \"blockchain/contracts/Marketplace.sol\":1365:1387  bytes(_orderId).length */\n      mload\n        /* \"blockchain/contracts/Marketplace.sol\":1365:1391  bytes(_orderId).length > 0 */\n      gt\n        /* \"blockchain/contracts/Marketplace.sol\":1357:1413  require(bytes(_orderId).length > 0, \"Order ID required\") */\n      tag_93\n      jumpi\n      mload(0x40)\n      0x08c379a000000000000000000000000000000000000000000000000000000000\n      dup2\n      mstore\n      0x04\n      add\n      tag_94\n      swap1\n      tag_95\n      jump\t// in\n    tag_94:\n      mload(0x40)\n      dup1\n      swap2\n      sub\n      swap1\n      revert\n    tag_93:\n        /* \"blockchain/contracts/Marketplace.sol\":1466:1467  0 */\n      0x00\n        /* \"blockchain/contracts/Marketplace.sol\":1438:1455  _paymentReference */\n      dup6\n        /* \"blockchain/contracts/Marketplace.sol\":1432:1463  bytes(_paymentReference).length */\n      mload\n        /* \"blockchain/contracts/Marketplace.sol\":1432:1467  bytes(_paymentReference).length > 0 */\n      gt\n        /* \"blockchain/contracts/Marketplace.sol\":1424:1498  require(bytes(_paymentReference).length > 0, \"Payment reference required\") */\n      tag_96\n      jumpi\n      mload(0x40)\n      0x08c379a000000000000000000000000000000000000000000000000000000000\n      dup2\n      mstore\n      0x04\n      add\n      tag_97\n      swap1\n      tag_98\n      jump\t// in\n    tag_97:\n      mload(0x40)\n      dup1\n      swap2\n      sub\n      swap1\n      revert\n    tag_96:\n        /* \"blockchain/contracts/Marketplace.sol\":1544:1545  0 */\n      0x00\n        /* \"blockchain/contracts/Marketplace.sol\":1523:1533  _amountETB */\n      dup5\n        /* \"blockchain/contracts/Marketplace.sol\":1517:1541  bytes(_amountETB).length */\n      mload\n        /* \"blockchain/contracts/Marketplace.sol\":1517:1545  bytes(_amountETB).length > 0 */\n      gt\n        /* \"blockchain/contracts/Marketplace.sol\":1509:1565  require(bytes(_amountETB).length > 0, \"Amount required\") */\n      tag_99\n      jumpi\n      mload(0x40)\n      0x08c379a000000000000000000000000000000000000000000000000000000000\n      dup2\n      mstore\n      0x04\n      add\n      tag_100\n      swap1\n      tag_101\n      jump\t// in\n    tag_100:\n      mload(0x40)\n      dup1\n      swap2\n      sub\n      swap1\n      revert\n    tag_99:\n        /* \"blockchain/contracts/Marketplace.sol\":1602:1603  0 */\n      0x00\n        /* \"blockchain/contracts/Marketplace.sol\":1584:1604  _buyer != address(0) */\n      0xffffffffffffffffffffffffffffffffffffffff\n      and\n        /* \"blockchain/contracts/Marketplace.sol\":1584:1590  _buyer */\n      dup4\n        /* \"blockchain/contracts/Marketplace.sol\":1584:1604  _buyer != address(0) */\n      0xffffffffffffffffffffffffffffffffffffffff\n      and\n      sub\n        /* \"blockchain/contracts/Marketplace.sol\":1576:1630  require(_buyer != address(0), \"Invalid buyer address\") */\n      tag_102\n      jumpi\n      mload(0x40)\n      0x08c379a000000000000000000000000000000000000000000000000000000000\n      dup2\n      mstore\n      0x04\n      add\n      tag_103\n      swap1\n      tag_104\n      jump\t// in\n    tag_103:\n      mload(0x40)\n      dup1\n      swap2\n      sub\n      swap1\n      revert\n    tag_102:\n        /* \"blockchain/contracts/Marketplace.sol\":1670:1671  0 */\n      0x00\n        /* \"blockchain/contracts/Marketplace.sol\":1649:1672  _producer != address(0) */\n      0xffffffffffffffffffffffffffffffffffffffff\n      and\n        /* \"blockchain/contracts/Marketplace.sol\":1649:1658  _producer */\n      dup3\n        /* \"blockchain/contracts/Marketplace.sol\":1649:1672  _producer != address(0) */\n      0xffffffffffffffffffffffffffffffffffffffff\n      and\n      sub\n        /* \"blockchain/contracts/Marketplace.sol\":1641:1701  require(_producer != address(0), \"Invalid producer address\") */\n      tag_105\n      jumpi\n      mload(0x40)\n      0x08c379a000000000000000000000000000000000000000000000000000000000\n      dup2\n      mstore\n      0x04\n      add\n      tag_106\n      swap1\n      tag_107\n      jump\t// in\n    tag_106:\n      mload(0x40)\n      dup1\n      swap2\n      sub\n      swap1\n      revert\n    tag_105:\n        /* \"blockchain/contracts/Marketplace.sol\":1768:1769  0 */\n      0x00\n        /* \"blockchain/contracts/Marketplace.sol\":1726:1738  transactions */\n      0x00\n        /* \"blockchain/contracts/Marketplace.sol\":1739:1747  _orderId */\n      dup8\n        /* \"blockchain/contracts/Marketplace.sol\":1726:1748  transactions[_orderId] */\n      mload(0x40)\n      tag_108\n      swap2\n      swap1\n      tag_109\n      jump\t// in\n    tag_108:\n      swap1\n      dup2\n      mstore\n      0x20\n      add\n      mload(0x40)\n      dup1\n      swap2\n      sub\n      swap1\n      keccak256\n        /* \"blockchain/contracts/Marketplace.sol\":1726:1756  transactions[_orderId].orderId */\n      0x00\n      add\n        /* \"blockchain/contracts/Marketplace.sol\":1720:1764  bytes(transactions[_orderId].orderId).length */\n      dup1\n      sload\n      tag_110\n      swap1\n      tag_68\n      jump\t// in\n    tag_110:\n      swap1\n      pop\n        /* \"blockchain/contracts/Marketplace.sol\":1720:1769  bytes(transactions[_orderId].orderId).length == 0 */\n      eq\n        /* \"blockchain/contracts/Marketplace.sol\":1712:1802  require(bytes(transactions[_orderId].orderId).length == 0, \"Transaction already recorded\") */\n      tag_111\n      jumpi\n      mload(0x40)\n      0x08c379a000000000000000000000000000000000000000000000000000000000\n      dup2\n      mstore\n      0x04\n      add\n      tag_112\n      swap1\n      tag_113\n      jump\t// in\n    tag_112:\n      mload(0x40)\n      dup1\n      swap2\n      sub\n      swap1\n      revert\n    tag_111:\n        /* \"blockchain/contracts/Marketplace.sol\":1848:2160  TransactionRecord({... */\n      mload(0x40)\n      dup1\n      0x0100\n      add\n      0x40\n      mstore\n      dup1\n        /* \"blockchain/contracts/Marketplace.sol\":1890:1898  _orderId */\n      dup8\n        /* \"blockchain/contracts/Marketplace.sol\":1848:2160  TransactionRecord({... */\n      dup2\n      mstore\n      0x20\n      add\n        /* \"blockchain/contracts/Marketplace.sol\":1931:1948  _paymentReference */\n      dup7\n        /* \"blockchain/contracts/Marketplace.sol\":1848:2160  TransactionRecord({... */\n      dup2\n      mstore\n      0x20\n      add\n        /* \"blockchain/contracts/Marketplace.sol\":1974:1984  _amountETB */\n      dup6\n        /* \"blockchain/contracts/Marketplace.sol\":1848:2160  TransactionRecord({... */\n      dup2\n      mstore\n      0x20\n      add\n        /* \"blockchain/contracts/Marketplace.sol\":2006:2012  _buyer */\n      dup5\n        /* \"blockchain/contracts/Marketplace.sol\":1848:2160  TransactionRecord({... */\n      0xffffffffffffffffffffffffffffffffffffffff\n      and\n      dup2\n      mstore\n      0x20\n      add\n        /* \"blockchain/contracts/Marketplace.sol\":2037:2046  _producer */\n      dup4\n        /* \"blockchain/contracts/Marketplace.sol\":1848:2160  TransactionRecord({... */\n      0xffffffffffffffffffffffffffffffffffffffff\n      and\n      dup2\n      mstore\n      0x20\n      add\n        /* \"blockchain/contracts/Marketplace.sol\":2072:2087  block.timestamp */\n      timestamp\n        /* \"blockchain/contracts/Marketplace.sol\":1848:2160  TransactionRecord({... */\n      dup2\n      mstore\n      0x20\n      add\n        /* \"blockchain/contracts/Marketplace.sol\":2110:2117  _txHash */\n      dup3\n        /* \"blockchain/contracts/Marketplace.sol\":1848:2160  TransactionRecord({... */\n      dup2\n      mstore\n      0x20\n      add\n        /* \"blockchain/contracts/Marketplace.sol\":2144:2148  true */\n      0x01\n        /* \"blockchain/contracts/Marketplace.sol\":1848:2160  TransactionRecord({... */\n      iszero\n      iszero\n      dup2\n      mstore\n      pop\n        /* \"blockchain/contracts/Marketplace.sol\":1823:1835  transactions */\n      0x00\n        /* \"blockchain/contracts/Marketplace.sol\":1836:1844  _orderId */\n      dup8\n        /* \"blockchain/contracts/Marketplace.sol\":1823:1845  transactions[_orderId] */\n      mload(0x40)\n      tag_114\n      swap2\n      swap1\n      tag_109\n      jump\t// in\n    tag_114:\n      swap1\n      dup2\n      mstore\n      0x20\n      add\n      mload(0x40)\n      dup1\n      swap2\n      sub\n      swap1\n      keccak256\n        /* \"blockchain/contracts/Marketplace.sol\":1823:2160  transactions[_orderId] = TransactionRecord({... */\n      0x00\n      dup3\n      add\n      mload\n      dup2\n      0x00\n      add\n      swap1\n      dup2\n      tag_115\n      swap2\n      swap1\n      tag_116\n      jump\t// in\n    tag_115:\n      pop\n      0x20\n      dup3\n      add\n      mload\n      dup2\n      0x01\n      add\n      swap1\n      dup2\n      tag_117\n      swap2\n      swap1\n      tag_116\n      jump\t// in\n    tag_117:\n      pop\n      0x40\n      dup3\n      add\n      mload\n      dup2\n      0x02\n      add\n      swap1\n      dup2\n      tag_118\n      swap2\n      swap1\n      tag_116\n      jump\t// in\n    tag_118:\n      pop\n      0x60\n      dup3\n      add\n      mload\n      dup2\n      0x03\n      add\n      exp(0x0100, 0x00)\n      dup2\n      sload\n      dup2\n      0xffffffffffffffffffffffffffffffffffffffff\n      mul\n      not\n      and\n      swap1\n      dup4\n      0xffffffffffffffffffffffffffffffffffffffff\n      and\n      mul\n      or\n      swap1\n      sstore\n      pop\n      0x80\n      dup3\n      add\n      mload\n      dup2\n      0x04\n      add\n      exp(0x0100, 0x00)\n      dup2\n      sload\n      dup2\n      0xffffffffffffffffffffffffffffffffffffffff\n      mul\n      not\n      and\n      swap1\n      dup4\n      0xffffffffffffffffffffffffffffffffffffffff\n      and\n      mul\n      or\n      swap1\n      sstore\n      pop\n      0xa0\n      dup3\n      add\n      mload\n      dup2\n      0x05\n      add\n      sstore\n      0xc0\n      dup3\n      add\n      mload\n      dup2\n      0x06\n      add\n      swap1\n      dup2\n      tag_119\n      swap2\n      swap1\n      tag_116\n      jump\t// in\n    tag_119:\n      pop\n      0xe0\n      dup3\n      add\n      mload\n      dup2\n      0x07\n      add\n      exp(0x0100, 0x00)\n      dup2\n      sload\n      dup2\n      0xff\n      mul\n      not\n      and\n      swap1\n      dup4\n      iszero\n      iszero\n      mul\n      or\n      swap1\n      sstore\n      pop\n      swap1\n      pop\n      pop\n        /* \"blockchain/contracts/Marketplace.sol\":2181:2197  userTransactions */\n      0x01\n        /* \"blockchain/contracts/Marketplace.sol\":2181:2205  userTransactions[_buyer] */\n      0x00\n        /* \"blockchain/contracts/Marketplace.sol\":2198:2204  _buyer */\n      dup5\n        /* \"blockchain/contracts/Marketplace.sol\":2181:2205  userTransactions[_buyer] */\n      0xffffffffffffffffffffffffffffffffffffffff\n      and\n      0xffffffffffffffffffffffffffffffffffffffff\n      and\n      dup2\n      mstore\n      0x20\n      add\n      swap1\n      dup2\n      mstore\n      0x20\n      add\n      0x00\n      keccak256\n        /* \"blockchain/contracts/Marketplace.sol\":2211:2219  _orderId */\n      dup7\n        /* \"blockchain/contracts/Marketplace.sol\":2181:2220  userTransactions[_buyer].push(_orderId) */\n      swap1\n      dup1\n      0x01\n      dup2\n      sload\n      add\n      dup1\n      dup3\n      sstore\n      dup1\n      swap2\n      pop\n      pop\n      0x01\n      swap1\n      sub\n      swap1\n      0x00\n      mstore\n      keccak256(0x00, 0x20)\n      add\n      0x00\n      swap1\n      swap2\n      swap1\n      swap2\n      swap1\n      swap2\n      pop\n      swap1\n      dup2\n      tag_121\n      swap2\n      swap1\n      tag_116\n      jump\t// in\n    tag_121:\n      pop\n        /* \"blockchain/contracts/Marketplace.sol\":2231:2251  producerTransactions */\n      0x02\n        /* \"blockchain/contracts/Marketplace.sol\":2231:2262  producerTransactions[_producer] */\n      0x00\n        /* \"blockchain/contracts/Marketplace.sol\":2252:2261  _producer */\n      dup4\n        /* \"blockchain/contracts/Marketplace.sol\":2231:2262  producerTransactions[_producer] */\n      0xffffffffffffffffffffffffffffffffffffffff\n      and\n      0xffffffffffffffffffffffffffffffffffffffff\n      and\n      dup2\n      mstore\n      0x20\n      add\n      swap1\n      dup2\n      mstore\n      0x20\n      add\n      0x00\n      keccak256\n        /* \"blockchain/contracts/Marketplace.sol\":2268:2276  _orderId */\n      dup7\n        /* \"blockchain/contracts/Marketplace.sol\":2231:2277  producerTransactions[_producer].push(_orderId) */\n      swap1\n      dup1\n      0x01\n      dup2\n      sload\n      add\n      dup1\n      dup3\n      sstore\n      dup1\n      swap2\n      pop\n      pop\n      0x01\n      swap1\n      sub\n      swap1\n      0x00\n      mstore\n      keccak256(0x00, 0x20)\n      add\n      0x00\n      swap1\n      swap2\n      swap1\n      swap2\n      swap1\n      swap2\n      pop\n      swap1\n      dup2\n      tag_123\n      swap2\n      swap1\n      tag_116\n      jump\t// in\n    tag_123:\n      pop\n        /* \"blockchain/contracts/Marketplace.sol\":2288:2305  allTransactionIds */\n      0x03\n        /* \"blockchain/contracts/Marketplace.sol\":2311:2319  _orderId */\n      dup7\n        /* \"blockchain/contracts/Marketplace.sol\":2288:2320  allTransactionIds.push(_orderId) */\n      swap1\n      dup1\n      0x01\n      dup2\n      sload\n      add\n      dup1\n      dup3\n      sstore\n      dup1\n      swap2\n      pop\n      pop\n      0x01\n      swap1\n      sub\n      swap1\n      0x00\n      mstore\n      keccak256(0x00, 0x20)\n      add\n      0x00\n      swap1\n      swap2\n      swap1\n      swap2\n      swap1\n      swap2\n      pop\n      swap1\n      dup2\n      tag_125\n      swap2\n      swap1\n      tag_116\n      jump\t// in\n    tag_125:\n      pop\n        /* \"blockchain/contracts/Marketplace.sol\":2384:2393  _producer */\n      dup2\n        /* \"blockchain/contracts/Marketplace.sol\":2346:2451  TransactionRecorded(_orderId, _buyer, _producer, _paymentReference, _amountETB, block.timestamp, _txHash) */\n      0xffffffffffffffffffffffffffffffffffffffff\n      and\n        /* \"blockchain/contracts/Marketplace.sol\":2376:2382  _buyer */\n      dup4\n        /* \"blockchain/contracts/Marketplace.sol\":2346:2451  TransactionRecorded(_orderId, _buyer, _producer, _paymentReference, _amountETB, block.timestamp, _txHash) */\n      0xffffffffffffffffffffffffffffffffffffffff\n      and\n        /* \"blockchain/contracts/Marketplace.sol\":2366:2374  _orderId */\n      dup8\n        /* \"blockchain/contracts/Marketplace.sol\":2346:2451  TransactionRecorded(_orderId, _buyer, _producer, _paymentReference, _amountETB, block.timestamp, _txHash) */\n      mload(0x40)\n      tag_126\n      swap2\n      swap1\n      tag_109\n      jump\t// in\n    tag_126:\n      mload(0x40)\n      dup1\n      swap2\n      sub\n      swap1\n      keccak256\n      0x1d6df450fde89da5262d9c385cb893b94396a58c489909ef155a6be43175979a\n        /* \"blockchain/contracts/Marketplace.sol\":2395:2412  _paymentReference */\n      dup9\n        /* \"blockchain/contracts/Marketplace.sol\":2414:2424  _amountETB */\n      dup9\n        /* \"blockchain/contracts/Marketplace.sol\":2426:2441  block.timestamp */\n      timestamp\n        /* \"blockchain/contracts/Marketplace.sol\":2443:2450  _txHash */\n      dup8\n        /* \"blockchain/contracts/Marketplace.sol\":2346:2451  TransactionRecorded(_orderId, _buyer, _producer, _paymentReference, _amountETB, block.timestamp, _txHash) */\n      mload(0x40)\n      tag_127\n      swap5\n      swap4\n      swap3\n      swap2\n      swap1\n      tag_128\n      jump\t// in\n    tag_127:\n      mload(0x40)\n      dup1\n      swap2\n      sub\n      swap1\n      log4\n        /* \"blockchain/contracts/Marketplace.sol\":1096:2459  function recordTransaction(... */\n      pop\n      pop\n      pop\n      pop\n      pop\n      pop\n      jump\t// out\n        /* \"blockchain/contracts/Marketplace.sol\":567:600  string[] public allTransactionIds */\n    tag_28:\n      0x03\n      dup2\n      dup2\n      sload\n      dup2\n      lt\n      tag_129\n      jumpi\n      0x00\n      dup1\n      revert\n    tag_129:\n      swap1\n      0x00\n      mstore\n      keccak256(0x00, 0x20)\n      add\n      0x00\n      swap2\n      pop\n      swap1\n      pop\n      dup1\n      sload\n      tag_131\n      swap1\n      tag_68\n      jump\t// in\n    tag_131:\n      dup1\n      0x1f\n      add\n      0x20\n      dup1\n      swap2\n      div\n      mul\n      0x20\n      add\n      mload(0x40)\n      swap1\n      dup2\n      add\n      0x40\n      mstore\n      dup1\n      swap3\n      swap2\n      swap1\n      dup2\n      dup2\n      mstore\n      0x20\n      add\n      dup3\n      dup1\n      sload\n      tag_132\n      swap1\n      tag_68\n      jump\t// in\n    tag_132:\n      dup1\n      iszero\n      tag_133\n      jumpi\n      dup1\n      0x1f\n      lt\n      tag_134\n      jumpi\n      0x0100\n      dup1\n      dup4\n      sload\n      div\n      mul\n      dup4\n      mstore\n      swap2\n      0x20\n      add\n      swap2\n      jump(tag_133)\n    tag_134:\n      dup3\n      add\n      swap2\n      swap1\n      0x00\n      mstore\n      keccak256(0x00, 0x20)\n      swap1\n    tag_135:\n      dup2\n      sload\n      dup2\n      mstore\n      swap1\n      0x01\n      add\n      swap1\n      0x20\n      add\n      dup1\n      dup4\n      gt\n      tag_135\n      jumpi\n      dup3\n      swap1\n      sub\n      0x1f\n      and\n      dup3\n      add\n      swap2\n    tag_133:\n      pop\n      pop\n      pop\n      pop\n      pop\n      dup2\n      jump\t// out\n        /* \"blockchain/contracts/Marketplace.sol\":3572:3721  function getProducerTransactions(address _producer) external view returns (string[] memory) {... */\n    tag_34:\n        /* \"blockchain/contracts/Marketplace.sol\":3647:3662  string[] memory */\n      0x60\n        /* \"blockchain/contracts/Marketplace.sol\":3682:3702  producerTransactions */\n      0x02\n        /* \"blockchain/contracts/Marketplace.sol\":3682:3713  producerTransactions[_producer] */\n      0x00\n        /* \"blockchain/contracts/Marketplace.sol\":3703:3712  _producer */\n      dup4\n        /* \"blockchain/contracts/Marketplace.sol\":3682:3713  producerTransactions[_producer] */\n      0xffffffffffffffffffffffffffffffffffffffff\n      and\n      0xffffffffffffffffffffffffffffffffffffffff\n      and\n      dup2\n      mstore\n      0x20\n      add\n      swap1\n      dup2\n      mstore\n      0x20\n      add\n      0x00\n      keccak256\n        /* \"blockchain/contracts/Marketplace.sol\":3675:3713  return producerTransactions[_producer] */\n      dup1\n      sload\n      dup1\n      0x20\n      mul\n      0x20\n      add\n      mload(0x40)\n      swap1\n      dup2\n      add\n      0x40\n      mstore\n      dup1\n      swap3\n      swap2\n      swap1\n      dup2\n      dup2\n      mstore\n      0x20\n      add\n      0x00\n      swap1\n    tag_137:\n      dup3\n      dup3\n      lt\n      iszero\n      tag_138\n      jumpi\n      dup4\n      dup3\n      swap1\n      0x00\n      mstore\n      keccak256(0x00, 0x20)\n      add\n      dup1\n      sload\n      tag_140\n      swap1\n      tag_68\n      jump\t// in\n    tag_140:\n      dup1\n      0x1f\n      add\n      0x20\n      dup1\n      swap2\n      div\n      mul\n      0x20\n      add\n      mload(0x40)\n      swap1\n      dup2\n      add\n      0x40\n      mstore\n      dup1\n      swap3\n      swap2\n      swap1\n      dup2\n      dup2\n      mstore\n      0x20\n      add\n      dup3\n      dup1\n      sload\n      tag_141\n      swap1\n      tag_68\n      jump\t// in\n    tag_141:\n      dup1\n      iszero\n      tag_142\n      jumpi\n      dup1\n      0x1f\n      lt\n      tag_143\n      jumpi\n      0x0100\n      dup1\n      dup4\n      sload\n      div\n      mul\n      dup4\n      mstore\n      swap2\n      0x20\n      add\n      swap2\n      jump(tag_142)\n    tag_143:\n      dup3\n      add\n      swap2\n      swap1\n      0x00\n      mstore\n      keccak256(0x00, 0x20)\n      swap1\n    tag_144:\n      dup2\n      sload\n      dup2\n      mstore\n      swap1\n      0x01\n      add\n      swap1\n      0x20\n      add\n      dup1\n      dup4\n      gt\n      tag_144\n      jumpi\n      dup3\n      swap1\n      sub\n      0x1f\n      and\n      dup3\n      add\n      swap2\n    tag_142:\n      pop\n      pop\n      pop\n      pop\n      pop\n      dup2\n      mstore\n      0x20\n      add\n      swap1\n      0x01\n      add\n      swap1\n      jump(tag_137)\n    tag_138:\n      pop\n      pop\n      pop\n      pop\n      swap1\n      pop\n        /* \"blockchain/contracts/Marketplace.sol\":3572:3721  function getProducerTransactions(address _producer) external view returns (string[] memory) {... */\n      swap2\n      swap1\n      pop\n      jump\t// out\n        /* \"blockchain/contracts/Marketplace.sol\":3733:3846  function getTransactionCount() external view returns (uint256) {... */\n    tag_38:\n        /* \"blockchain/contracts/Marketplace.sol\":3787:3794  uint256 */\n      0x00\n        /* \"blockchain/contracts/Marketplace.sol\":3814:3831  allTransactionIds */\n      0x03\n        /* \"blockchain/contracts/Marketplace.sol\":3814:3838  allTransactionIds.length */\n      dup1\n      sload\n      swap1\n      pop\n        /* \"blockchain/contracts/Marketplace.sol\":3807:3838  return allTransactionIds.length */\n      swap1\n      pop\n        /* \"blockchain/contracts/Marketplace.sol\":3733:3846  function getTransactionCount() external view returns (uint256) {... */\n      swap1\n      jump\t// out\n        /* \"blockchain/contracts/Marketplace.sol\":3261:3415  function verifyTransaction(string memory _orderId) external view returns (bool) {... */\n    tag_43:\n        /* \"blockchain/contracts/Marketplace.sol\":3335:3339  bool */\n      0x00\n        /* \"blockchain/contracts/Marketplace.sol\":3406:3407  0 */\n      0x00\n        /* \"blockchain/contracts/Marketplace.sol\":3365:3377  transactions */\n      0x00\n        /* \"blockchain/contracts/Marketplace.sol\":3378:3386  _orderId */\n      dup4\n        /* \"blockchain/contracts/Marketplace.sol\":3365:3387  transactions[_orderId] */\n      mload(0x40)\n      tag_147\n      swap2\n      swap1\n      tag_109\n      jump\t// in\n    tag_147:\n      swap1\n      dup2\n      mstore\n      0x20\n      add\n      mload(0x40)\n      dup1\n      swap2\n      sub\n      swap1\n      keccak256\n        /* \"blockchain/contracts/Marketplace.sol\":3365:3395  transactions[_orderId].orderId */\n      0x00\n      add\n        /* \"blockchain/contracts/Marketplace.sol\":3359:3403  bytes(transactions[_orderId].orderId).length */\n      dup1\n      sload\n      tag_148\n      swap1\n      tag_68\n      jump\t// in\n    tag_148:\n      swap1\n      pop\n        /* \"blockchain/contracts/Marketplace.sol\":3359:3407  bytes(transactions[_orderId].orderId).length > 0 */\n      gt\n        /* \"blockchain/contracts/Marketplace.sol\":3352:3407  return bytes(transactions[_orderId].orderId).length > 0 */\n      swap1\n      pop\n        /* \"blockchain/contracts/Marketplace.sol\":3261:3415  function verifyTransaction(string memory _orderId) external view returns (bool) {... */\n      swap2\n      swap1\n      pop\n      jump\t// out\n        /* \"blockchain/contracts/Marketplace.sol\":613:633  address public owner */\n    tag_47:\n      0x04\n      0x00\n      swap1\n      sload\n      swap1\n      0x0100\n      exp\n      swap1\n      div\n      0xffffffffffffffffffffffffffffffffffffffff\n      and\n      dup2\n      jump\t// out\n        /* \"blockchain/contracts/Marketplace.sol\":2471:3249  function getTransaction(string memory _orderId) external view returns (... */\n    tag_52:\n        /* \"blockchain/contracts/Marketplace.sol\":2552:2573  string memory orderId */\n      0x60\n        /* \"blockchain/contracts/Marketplace.sol\":2584:2614  string memory paymentReference */\n      dup1\n        /* \"blockchain/contracts/Marketplace.sol\":2625:2648  string memory amountETB */\n      0x60\n        /* \"blockchain/contracts/Marketplace.sol\":2659:2672  address buyer */\n      0x00\n        /* \"blockchain/contracts/Marketplace.sol\":2683:2699  address producer */\n      0x00\n        /* \"blockchain/contracts/Marketplace.sol\":2710:2727  uint256 timestamp */\n      0x00\n        /* \"blockchain/contracts/Marketplace.sol\":2738:2758  string memory txHash */\n      0x60\n        /* \"blockchain/contracts/Marketplace.sol\":2769:2784  bool isVerified */\n      0x00\n        /* \"blockchain/contracts/Marketplace.sol\":2803:2836  TransactionRecord memory txRecord */\n      0x00\n        /* \"blockchain/contracts/Marketplace.sol\":2839:2851  transactions */\n      0x00\n        /* \"blockchain/contracts/Marketplace.sol\":2852:2860  _orderId */\n      dup11\n        /* \"blockchain/contracts/Marketplace.sol\":2839:2861  transactions[_orderId] */\n      mload(0x40)\n      tag_150\n      swap2\n      swap1\n      tag_109\n      jump\t// in\n    tag_150:\n      swap1\n      dup2\n      mstore\n      0x20\n      add\n      mload(0x40)\n      dup1\n      swap2\n      sub\n      swap1\n      keccak256\n        /* \"blockchain/contracts/Marketplace.sol\":2803:2861  TransactionRecord memory txRecord = transactions[_orderId] */\n      mload(0x40)\n      dup1\n      0x0100\n      add\n      0x40\n      mstore\n      swap1\n      dup2\n      0x00\n      dup3\n      add\n      dup1\n      sload\n      tag_151\n      swap1\n      tag_68\n      jump\t// in\n    tag_151:\n      dup1\n      0x1f\n      add\n      0x20\n      dup1\n      swap2\n      div\n      mul\n      0x20\n      add\n      mload(0x40)\n      swap1\n      dup2\n      add\n      0x40\n      mstore\n      dup1\n      swap3\n      swap2\n      swap1\n      dup2\n      dup2\n      mstore\n      0x20\n      add\n      dup3\n      dup1\n      sload\n      tag_152\n      swap1\n      tag_68\n      jump\t// in\n    tag_152:\n      dup1\n      iszero\n      tag_153\n      jumpi\n      dup1\n      0x1f\n      lt\n      tag_154\n      jumpi\n      0x0100\n      dup1\n      dup4\n      sload\n      div\n      mul\n      dup4\n      mstore\n      swap2\n      0x20\n      add\n      swap2\n      jump(tag_153)\n    tag_154:\n      dup3\n      add\n      swap2\n      swap1\n      0x00\n      mstore\n      keccak256(0x00, 0x20)\n      swap1\n    tag_155:\n      dup2\n      sload\n      dup2\n      mstore\n      swap1\n      0x01\n      add\n      swap1\n      0x20\n      add\n      dup1\n      dup4\n      gt\n      tag_155\n      jumpi\n      dup3\n      swap1\n      sub\n      0x1f\n      and\n      dup3\n      add\n      swap2\n    tag_153:\n      pop\n      pop\n      pop\n      pop\n      pop\n      dup2\n      mstore\n      0x20\n      add\n      0x01\n      dup3\n      add\n      dup1\n      sload\n      tag_156\n      swap1\n      tag_68\n      jump\t// in\n    tag_156:\n      dup1\n      0x1f\n      add\n      0x20\n      dup1\n      swap2\n      div\n      mul\n      0x20\n      add\n      mload(0x40)\n      swap1\n      dup2\n      add\n      0x40\n      mstore\n      dup1\n      swap3\n      swap2\n      swap1\n      dup2\n      dup2\n      mstore\n      0x20\n      add\n      dup3\n      dup1\n      sload\n      tag_157\n      swap1\n      tag_68\n      jump\t// in\n    tag_157:\n      dup1\n      iszero\n      tag_158\n      jumpi\n      dup1\n      0x1f\n      lt\n      tag_159\n      jumpi\n      0x0100\n      dup1\n      dup4\n      sload\n      div\n      mul\n      dup4\n      mstore\n      swap2\n      0x20\n      add\n      swap2\n      jump(tag_158)\n    tag_159:\n      dup3\n      add\n      swap2\n      swap1\n      0x00\n      mstore\n      keccak256(0x00, 0x20)\n      swap1\n    tag_160:\n      dup2\n      sload\n      dup2\n      mstore\n      swap1\n      0x01\n      add\n      swap1\n      0x20\n      add\n      dup1\n      dup4\n      gt\n      tag_160\n      jumpi\n      dup3\n      swap1\n      sub\n      0x1f\n      and\n      dup3\n      add\n      swap2\n    tag_158:\n      pop\n      pop\n      pop\n      pop\n      pop\n      dup2\n      mstore\n      0x20\n      add\n      0x02\n      dup3\n      add\n      dup1\n      sload\n      tag_161\n      swap1\n      tag_68\n      jump\t// in\n    tag_161:\n      dup1\n      0x1f\n      add\n      0x20\n      dup1\n      swap2\n      div\n      mul\n      0x20\n      add\n      mload(0x40)\n      swap1\n      dup2\n      add\n      0x40\n      mstore\n      dup1\n      swap3\n      swap2\n      swap1\n      dup2\n      dup2\n      mstore\n      0x20\n      add\n      dup3\n      dup1\n      sload\n      tag_162\n      swap1\n      tag_68\n      jump\t// in\n    tag_162:\n      dup1\n      iszero\n      tag_163\n      jumpi\n      dup1\n      0x1f\n      lt\n      tag_164\n      jumpi\n      0x0100\n      dup1\n      dup4\n      sload\n      div\n      mul\n      dup4\n      mstore\n      swap2\n      0x20\n      add\n      swap2\n      jump(tag_163)\n    tag_164:\n      dup3\n      add\n      swap2\n      swap1\n      0x00\n      mstore\n      keccak256(0x00, 0x20)\n      swap1\n    tag_165:\n      dup2\n      sload\n      dup2\n      mstore\n      swap1\n      0x01\n      add\n      swap1\n      0x20\n      add\n      dup1\n      dup4\n      gt\n      tag_165\n      jumpi\n      dup3\n      swap1\n      sub\n      0x1f\n      and\n      dup3\n      add\n      swap2\n    tag_163:\n      pop\n      pop\n      pop\n      pop\n      pop\n      dup2\n      mstore\n      0x20\n      add\n      0x03\n      dup3\n      add\n      0x00\n      swap1\n      sload\n      swap1\n      0x0100\n      exp\n      swap1\n      div\n      0xffffffffffffffffffffffffffffffffffffffff\n      and\n      0xffffffffffffffffffffffffffffffffffffffff\n      and\n      0xffffffffffffffffffffffffffffffffffffffff\n      and\n      dup2\n      mstore\n      0x20\n      add\n      0x04\n      dup3\n      add\n      0x00\n      swap1\n      sload\n      swap1\n      0x0100\n      exp\n      swap1\n      div\n      0xffffffffffffffffffffffffffffffffffffffff\n      and\n      0xffffffffffffffffffffffffffffffffffffffff\n      and\n      0xffffffffffffffffffffffffffffffffffffffff\n      and\n      dup2\n      mstore\n      0x20\n      add\n      0x05\n      dup3\n      add\n      sload\n      dup2\n      mstore\n      0x20\n      add\n      0x06\n      dup3\n      add\n      dup1\n      sload\n      tag_166\n      swap1\n      tag_68\n      jump\t// in\n    tag_166:\n      dup1\n      0x1f\n      add\n      0x20\n      dup1\n      swap2\n      div\n      mul\n      0x20\n      add\n      mload(0x40)\n      swap1\n      dup2\n      add\n      0x40\n      mstore\n      dup1\n      swap3\n      swap2\n      swap1\n      dup2\n      dup2\n      mstore\n      0x20\n      add\n      dup3\n      dup1\n      sload\n      tag_167\n      swap1\n      tag_68\n      jump\t// in\n    tag_167:\n      dup1\n      iszero\n      tag_168\n      jumpi\n      dup1\n      0x1f\n      lt\n      tag_169\n      jumpi\n      0x0100\n      dup1\n      dup4\n      sload\n      div\n      mul\n      dup4\n      mstore\n      swap2\n      0x20\n      add\n      swap2\n      jump(tag_168)\n    tag_169:\n      dup3\n      add\n      swap2\n      swap1\n      0x00\n      mstore\n      keccak256(0x00, 0x20)\n      swap1\n    tag_170:\n      dup2\n      sload\n      dup2\n      mstore\n      swap1\n      0x01\n      add\n      swap1\n      0x20\n      add\n      dup1\n      dup4\n      gt\n      tag_170\n      jumpi\n      dup3\n      swap1\n      sub\n      0x1f\n      and\n      dup3\n      add\n      swap2\n    tag_168:\n      pop\n      pop\n      pop\n      pop\n      pop\n      dup2\n      mstore\n      0x20\n      add\n      0x07\n      dup3\n      add\n      0x00\n      swap1\n      sload\n      swap1\n      0x0100\n      exp\n      swap1\n      div\n      0xff\n      and\n      iszero\n      iszero\n      iszero\n      iszero\n      dup2\n      mstore\n      pop\n      pop\n      swap1\n      pop\n        /* \"blockchain/contracts/Marketplace.sol\":2913:2914  0 */\n      0x00\n        /* \"blockchain/contracts/Marketplace.sol\":2886:2894  txRecord */\n      dup2\n        /* \"blockchain/contracts/Marketplace.sol\":2886:2902  txRecord.orderId */\n      0x00\n      add\n      mload\n        /* \"blockchain/contracts/Marketplace.sol\":2880:2910  bytes(txRecord.orderId).length */\n      mload\n        /* \"blockchain/contracts/Marketplace.sol\":2880:2914  bytes(txRecord.orderId).length > 0 */\n      gt\n        /* \"blockchain/contracts/Marketplace.sol\":2872:2940  require(bytes(txRecord.orderId).length > 0, \"Transaction not found\") */\n      tag_171\n      jumpi\n      mload(0x40)\n      0x08c379a000000000000000000000000000000000000000000000000000000000\n      dup2\n      mstore\n      0x04\n      add\n      tag_172\n      swap1\n      tag_173\n      jump\t// in\n    tag_172:\n      mload(0x40)\n      dup1\n      swap2\n      sub\n      swap1\n      revert\n    tag_171:\n        /* \"blockchain/contracts/Marketplace.sol\":2983:2991  txRecord */\n      dup1\n        /* \"blockchain/contracts/Marketplace.sol\":2983:2999  txRecord.orderId */\n      0x00\n      add\n      mload\n        /* \"blockchain/contracts/Marketplace.sol\":3014:3022  txRecord */\n      dup2\n        /* \"blockchain/contracts/Marketplace.sol\":3014:3039  txRecord.paymentReference */\n      0x20\n      add\n      mload\n        /* \"blockchain/contracts/Marketplace.sol\":3054:3062  txRecord */\n      dup3\n        /* \"blockchain/contracts/Marketplace.sol\":3054:3072  txRecord.amountETB */\n      0x40\n      add\n      mload\n        /* \"blockchain/contracts/Marketplace.sol\":3087:3095  txRecord */\n      dup4\n        /* \"blockchain/contracts/Marketplace.sol\":3087:3101  txRecord.buyer */\n      0x60\n      add\n      mload\n        /* \"blockchain/contracts/Marketplace.sol\":3116:3124  txRecord */\n      dup5\n        /* \"blockchain/contracts/Marketplace.sol\":3116:3133  txRecord.producer */\n      0x80\n      add\n      mload\n        /* \"blockchain/contracts/Marketplace.sol\":3148:3156  txRecord */\n      dup6\n        /* \"blockchain/contracts/Marketplace.sol\":3148:3166  txRecord.timestamp */\n      0xa0\n      add\n      mload\n        /* \"blockchain/contracts/Marketplace.sol\":3181:3189  txRecord */\n      dup7\n        /* \"blockchain/contracts/Marketplace.sol\":3181:3196  txRecord.txHash */\n      0xc0\n      add\n      mload\n        /* \"blockchain/contracts/Marketplace.sol\":3211:3219  txRecord */\n      dup8\n        /* \"blockchain/contracts/Marketplace.sol\":3211:3230  txRecord.isVerified */\n      0xe0\n      add\n      mload\n        /* \"blockchain/contracts/Marketplace.sol\":2961:3241  return (... */\n      swap9\n      pop\n      swap9\n      pop\n      swap9\n      pop\n      swap9\n      pop\n      swap9\n      pop\n      swap9\n      pop\n      swap9\n      pop\n      swap9\n      pop\n      pop\n        /* \"blockchain/contracts/Marketplace.sol\":2471:3249  function getTransaction(string memory _orderId) external view returns (... */\n      swap2\n      swap4\n      swap6\n      swap8\n      pop\n      swap2\n      swap4\n      swap6\n      swap8\n      jump\t// out\n        /* \"blockchain/contracts/Marketplace.sol\":445:497  mapping(address => string[]) public userTransactions */\n    tag_57:\n      mstore(0x20, 0x01)\n      dup2\n      0x00\n      mstore\n      keccak256(0x00, 0x40)\n      dup2\n      dup2\n      sload\n      dup2\n      lt\n      tag_174\n      jumpi\n      0x00\n      dup1\n      revert\n    tag_174:\n      swap1\n      0x00\n      mstore\n      keccak256(0x00, 0x20)\n      add\n      0x00\n      swap2\n      pop\n      swap2\n      pop\n      pop\n      dup1\n      sload\n      tag_176\n      swap1\n      tag_68\n      jump\t// in\n    tag_176:\n      dup1\n      0x1f\n      add\n      0x20\n      dup1\n      swap2\n      div\n      mul\n      0x20\n      add\n      mload(0x40)\n      swap1\n      dup2\n      add\n      0x40\n      mstore\n      dup1\n      swap3\n      swap2\n      swap1\n      dup2\n      dup2\n      mstore\n      0x20\n      add\n      dup3\n      dup1\n      sload\n      tag_177\n      swap1\n      tag_68\n      jump\t// in\n    tag_177:\n      dup1\n      iszero\n      tag_178\n      jumpi\n      dup1\n      0x1f\n      lt\n      tag_179\n      jumpi\n      0x0100\n      dup1\n      dup4\n      sload\n      div\n      mul\n      dup4\n      mstore\n      swap2\n      0x20\n      add\n      swap2\n      jump(tag_178)\n    tag_179:\n      dup3\n      add\n      swap2\n      swap1\n      0x00\n      mstore\n      keccak256(0x00, 0x20)\n      swap1\n    tag_180:\n      dup2\n      sload\n      dup2\n      mstore\n      swap1\n      0x01\n      add\n      swap1\n      0x20\n      add\n      dup1\n      dup4\n      gt\n      tag_180\n      jumpi\n      dup3\n      swap1\n      sub\n      0x1f\n      and\n      dup3\n      add\n      swap2\n    tag_178:\n      pop\n      pop\n      pop\n      pop\n      pop\n      dup2\n      jump\t// out\n        /* \"blockchain/contracts/Marketplace.sol\":504:560  mapping(address => string[]) public producerTransactions */\n    tag_61:\n      mstore(0x20, 0x02)\n      dup2\n      0x00\n      mstore\n      keccak256(0x00, 0x40)\n      dup2\n      dup2\n      sload\n      dup2\n      lt\n      tag_181\n      jumpi\n      0x00\n      dup1\n      revert\n    tag_181:\n      swap1\n      0x00\n      mstore\n      keccak256(0x00, 0x20)\n      add\n      0x00\n      swap2\n      pop\n      swap2\n      pop\n      pop\n      dup1\n      sload\n      tag_183\n      swap1\n      tag_68\n      jump\t// in\n    tag_183:\n      dup1\n      0x1f\n      add\n      0x20\n      dup1\n      swap2\n      div\n      mul\n      0x20\n      add\n      mload(0x40)\n      swap1\n      dup2\n      add\n      0x40\n      mstore\n      dup1\n      swap3\n      swap2\n      swap1\n      dup2\n      dup2\n      mstore\n      0x20\n      add\n      dup3\n      dup1\n      sload\n      tag_184\n      swap1\n      tag_68\n      jump\t// in\n    tag_184:\n      dup1\n      iszero\n      tag_185\n      jumpi\n      dup1\n      0x1f\n      lt\n      tag_186\n      jumpi\n      0x0100\n      dup1\n      dup4\n      sload\n      div\n      mul\n      dup4\n      mstore\n      swap2\n      0x20\n      add\n      swap2\n      jump(tag_185)\n    tag_186:\n      dup3\n      add\n      swap2\n      swap1\n      0x00\n      mstore\n      keccak256(0x00, 0x20)\n      swap1\n    tag_187:\n      dup2\n      sload\n      dup2\n      mstore\n      swap1\n      0x01\n      add\n      swap1\n      0x20\n      add\n      dup1\n      dup4\n      gt\n      tag_187\n      jumpi\n      dup3\n      swap1\n      sub\n      0x1f\n      and\n      dup3\n      add\n      swap2\n    tag_185:\n      pop\n      pop\n      pop\n      pop\n      pop\n      dup2\n      jump\t// out\n        /* \"blockchain/contracts/Marketplace.sol\":3427:3560  function getUserTransactions(address _user) external view returns (string[] memory) {... */\n    tag_65:\n        /* \"blockchain/contracts/Marketplace.sol\":3494:3509  string[] memory */\n      0x60\n        /* \"blockchain/contracts/Marketplace.sol\":3529:3545  userTransactions */\n      0x01\n        /* \"blockchain/contracts/Marketplace.sol\":3529:3552  userTransactions[_user] */\n      0x00\n        /* \"blockchain/contracts/Marketplace.sol\":3546:3551  _user */\n      dup4\n        /* \"blockchain/contracts/Marketplace.sol\":3529:3552  userTransactions[_user] */\n      0xffffffffffffffffffffffffffffffffffffffff\n      and\n      0xffffffffffffffffffffffffffffffffffffffff\n      and\n      dup2\n      mstore\n      0x20\n      add\n      swap1\n      dup2\n      mstore\n      0x20\n      add\n      0x00\n      keccak256\n        /* \"blockchain/contracts/Marketplace.sol\":3522:3552  return userTransactions[_user] */\n      dup1\n      sload\n      dup1\n      0x20\n      mul\n      0x20\n      add\n      mload(0x40)\n      swap1\n      dup2\n      add\n      0x40\n      mstore\n      dup1\n      swap3\n      swap2\n      swap1\n      dup2\n      dup2\n      mstore\n      0x20\n      add\n      0x00\n      swap1\n    tag_189:\n      dup3\n      dup3\n      lt\n      iszero\n      tag_190\n      jumpi\n      dup4\n      dup3\n      swap1\n      0x00\n      mstore\n      keccak256(0x00, 0x20)\n      add\n      dup1\n      sload\n      tag_192\n      swap1\n      tag_68\n      jump\t// in\n    tag_192:\n      dup1\n      0x1f\n      add\n      0x20\n      dup1\n      swap2\n      div\n      mul\n      0x20\n      add\n      mload(0x40)\n      swap1\n      dup2\n      add\n      0x40\n      mstore\n      dup1\n      swap3\n      swap2\n      swap1\n      dup2\n      dup2\n      mstore\n      0x20\n      add\n      dup3\n      dup1\n      sload\n      tag_193\n      swap1\n      tag_68\n      jump\t// in\n    tag_193:\n      dup1\n      iszero\n      tag_194\n      jumpi\n      dup1\n      0x1f\n      lt\n      tag_195\n      jumpi\n      0x0100\n      dup1\n      dup4\n      sload\n      div\n      mul\n      dup4\n      mstore\n      swap2\n      0x20\n      add\n      swap2\n      jump(tag_194)\n    tag_195:\n      dup3\n      add\n      swap2\n      swap1\n      0x00\n      mstore\n      keccak256(0x00, 0x20)\n      swap1\n    tag_196:\n      dup2\n      sload\n      dup2\n      mstore\n      swap1\n      0x01\n      add\n      swap1\n      0x20\n      add\n      dup1\n      dup4\n      gt\n      tag_196\n      jumpi\n      dup3\n      swap1\n      sub\n      0x1f\n      and\n      dup3\n      add\n      swap2\n    tag_194:\n      pop\n      pop\n      pop\n      pop\n      pop\n      dup2\n      mstore\n      0x20\n      add\n      swap1\n      0x01\n      add\n      swap1\n      jump(tag_189)\n    tag_190:\n      pop\n      pop\n      pop\n      pop\n      swap1\n      pop\n        /* \"blockchain/contracts/Marketplace.sol\":3427:3560  function getUserTransactions(address _user) external view returns (string[] memory) {... */\n      swap2\n      swap1\n      pop\n      jump\t// out\n        /* \"#utility.yul\":7:82   */\n    tag_197:\n        /* \"#utility.yul\":40:46   */\n      0x00\n        /* \"#utility.yul\":73:75   */\n      0x40\n        /* \"#utility.yul\":67:76   */\n      mload\n        /* \"#utility.yul\":57:76   */\n      swap1\n      pop\n        /* \"#utility.yul\":7:82   */\n      swap1\n      jump\t// out\n        /* \"#utility.yul\":88:205   */\n    tag_198:\n        /* \"#utility.yul\":197:198   */\n      0x00\n        /* \"#utility.yul\":194:195   */\n      0x00\n        /* \"#utility.yul\":187:199   */\n      revert\n        /* \"#utility.yul\":211:328   */\n    tag_199:\n        /* \"#utility.yul\":320:321   */\n      0x00\n        /* \"#utility.yul\":317:318   */\n      0x00\n        /* \"#utility.yul\":310:322   */\n      revert\n        /* \"#utility.yul\":334:451   */\n    tag_200:\n        /* \"#utility.yul\":443:444   */\n      0x00\n        /* \"#utility.yul\":440:441   */\n      0x00\n        /* \"#utility.yul\":433:445   */\n      revert\n        /* \"#utility.yul\":457:574   */\n    tag_201:\n        /* \"#utility.yul\":566:567   */\n      0x00\n        /* \"#utility.yul\":563:564   */\n      0x00\n        /* \"#utility.yul\":556:568   */\n      revert\n        /* \"#utility.yul\":580:682   */\n    tag_202:\n        /* \"#utility.yul\":621:627   */\n      0x00\n        /* \"#utility.yul\":672:674   */\n      0x1f\n        /* \"#utility.yul\":668:675   */\n      not\n        /* \"#utility.yul\":663:665   */\n      0x1f\n        /* \"#utility.yul\":656:661   */\n      dup4\n        /* \"#utility.yul\":652:666   */\n      add\n        /* \"#utility.yul\":648:676   */\n      and\n        /* \"#utility.yul\":638:676   */\n      swap1\n      pop\n        /* \"#utility.yul\":580:682   */\n      swap2\n      swap1\n      pop\n      jump\t// out\n        /* \"#utility.yul\":688:868   */\n    tag_203:\n        /* \"#utility.yul\":736:813   */\n      0x4e487b7100000000000000000000000000000000000000000000000000000000\n        /* \"#utility.yul\":733:734   */\n      0x00\n        /* \"#utility.yul\":726:814   */\n      mstore\n        /* \"#utility.yul\":833:837   */\n      0x41\n        /* \"#utility.yul\":830:831   */\n      0x04\n        /* \"#utility.yul\":823:838   */\n      mstore\n        /* \"#utility.yul\":857:861   */\n      0x24\n        /* \"#utility.yul\":854:855   */\n      0x00\n        /* \"#utility.yul\":847:862   */\n      revert\n        /* \"#utility.yul\":874:1155   */\n    tag_204:\n        /* \"#utility.yul\":957:984   */\n      tag_276\n        /* \"#utility.yul\":979:983   */\n      dup3\n        /* \"#utility.yul\":957:984   */\n      tag_202\n      jump\t// in\n    tag_276:\n        /* \"#utility.yul\":949:955   */\n      dup2\n        /* \"#utility.yul\":945:985   */\n      add\n        /* \"#utility.yul\":1087:1093   */\n      dup2\n        /* \"#utility.yul\":1075:1085   */\n      dup2\n        /* \"#utility.yul\":1072:1094   */\n      lt\n        /* \"#utility.yul\":1051:1069   */\n      0xffffffffffffffff\n        /* \"#utility.yul\":1039:1049   */\n      dup3\n        /* \"#utility.yul\":1036:1070   */\n      gt\n        /* \"#utility.yul\":1033:1095   */\n      or\n        /* \"#utility.yul\":1030:1118   */\n      iszero\n      tag_277\n      jumpi\n        /* \"#utility.yul\":1098:1116   */\n      tag_278\n      tag_203\n      jump\t// in\n    tag_278:\n        /* \"#utility.yul\":1030:1118   */\n    tag_277:\n        /* \"#utility.yul\":1138:1148   */\n      dup1\n        /* \"#utility.yul\":1134:1136   */\n      0x40\n        /* \"#utility.yul\":1127:1149   */\n      mstore\n        /* \"#utility.yul\":917:1155   */\n      pop\n        /* \"#utility.yul\":874:1155   */\n      pop\n      pop\n      jump\t// out\n        /* \"#utility.yul\":1161:1290   */\n    tag_205:\n        /* \"#utility.yul\":1195:1201   */\n      0x00\n        /* \"#utility.yul\":1222:1242   */\n      tag_280\n      tag_197\n      jump\t// in\n    tag_280:\n        /* \"#utility.yul\":1212:1242   */\n      swap1\n      pop\n        /* \"#utility.yul\":1251:1284   */\n      tag_281\n        /* \"#utility.yul\":1279:1283   */\n      dup3\n        /* \"#utility.yul\":1271:1277   */\n      dup3\n        /* \"#utility.yul\":1251:1284   */\n      tag_204\n      jump\t// in\n    tag_281:\n        /* \"#utility.yul\":1161:1290   */\n      swap2\n      swap1\n      pop\n      jump\t// out\n        /* \"#utility.yul\":1296:1604   */\n    tag_206:\n        /* \"#utility.yul\":1358:1362   */\n      0x00\n        /* \"#utility.yul\":1448:1466   */\n      0xffffffffffffffff\n        /* \"#utility.yul\":1440:1446   */\n      dup3\n        /* \"#utility.yul\":1437:1467   */\n      gt\n        /* \"#utility.yul\":1434:1490   */\n      iszero\n      tag_283\n      jumpi\n        /* \"#utility.yul\":1470:1488   */\n      tag_284\n      tag_203\n      jump\t// in\n    tag_284:\n        /* \"#utility.yul\":1434:1490   */\n    tag_283:\n        /* \"#utility.yul\":1508:1537   */\n      tag_285\n        /* \"#utility.yul\":1530:1536   */\n      dup3\n        /* \"#utility.yul\":1508:1537   */\n      tag_202\n      jump\t// in\n    tag_285:\n        /* \"#utility.yul\":1500:1537   */\n      swap1\n      pop\n        /* \"#utility.yul\":1592:1596   */\n      0x20\n        /* \"#utility.yul\":1586:1590   */\n      dup2\n        /* \"#utility.yul\":1582:1597   */\n      add\n        /* \"#utility.yul\":1574:1597   */\n      swap1\n      pop\n        /* \"#utility.yul\":1296:1604   */\n      swap2\n      swap1\n      pop\n      jump\t// out\n        /* \"#utility.yul\":1610:1758   */\n    tag_207:\n        /* \"#utility.yul\":1708:1714   */\n      dup3\n        /* \"#utility.yul\":1703:1706   */\n      dup2\n        /* \"#utility.yul\":1698:1701   */\n      dup4\n        /* \"#utility.yul\":1685:1715   */\n      calldatacopy\n        /* \"#utility.yul\":1749:1750   */\n      0x00\n        /* \"#utility.yul\":1740:1746   */\n      dup4\n        /* \"#utility.yul\":1735:1738   */\n      dup4\n        /* \"#utility.yul\":1731:1747   */\n      add\n        /* \"#utility.yul\":1724:1751   */\n      mstore\n        /* \"#utility.yul\":1610:1758   */\n      pop\n      pop\n      pop\n      jump\t// out\n        /* \"#utility.yul\":1764:2189   */\n    tag_208:\n        /* \"#utility.yul\":1842:1847   */\n      0x00\n        /* \"#utility.yul\":1867:1933   */\n      tag_288\n        /* \"#utility.yul\":1883:1932   */\n      tag_289\n        /* \"#utility.yul\":1925:1931   */\n      dup5\n        /* \"#utility.yul\":1883:1932   */\n      tag_206\n      jump\t// in\n    tag_289:\n        /* \"#utility.yul\":1867:1933   */\n      tag_205\n      jump\t// in\n    tag_288:\n        /* \"#utility.yul\":1858:1933   */\n      swap1\n      pop\n        /* \"#utility.yul\":1956:1962   */\n      dup3\n        /* \"#utility.yul\":1949:1954   */\n      dup2\n        /* \"#utility.yul\":1942:1963   */\n      mstore\n        /* \"#utility.yul\":1994:1998   */\n      0x20\n        /* \"#utility.yul\":1987:1992   */\n      dup2\n        /* \"#utility.yul\":1983:1999   */\n      add\n        /* \"#utility.yul\":2032:2035   */\n      dup5\n        /* \"#utility.yul\":2023:2029   */\n      dup5\n        /* \"#utility.yul\":2018:2021   */\n      dup5\n        /* \"#utility.yul\":2014:2030   */\n      add\n        /* \"#utility.yul\":2011:2036   */\n      gt\n        /* \"#utility.yul\":2008:2120   */\n      iszero\n      tag_290\n      jumpi\n        /* \"#utility.yul\":2039:2118   */\n      tag_291\n      tag_201\n      jump\t// in\n    tag_291:\n        /* \"#utility.yul\":2008:2120   */\n    tag_290:\n        /* \"#utility.yul\":2129:2183   */\n      tag_292\n        /* \"#utility.yul\":2176:2182   */\n      dup5\n        /* \"#utility.yul\":2171:2174   */\n      dup3\n        /* \"#utility.yul\":2166:2169   */\n      dup6\n        /* \"#utility.yul\":2129:2183   */\n      tag_207\n      jump\t// in\n    tag_292:\n        /* \"#utility.yul\":1848:2189   */\n      pop\n        /* \"#utility.yul\":1764:2189   */\n      swap4\n      swap3\n      pop\n      pop\n      pop\n      jump\t// out\n        /* \"#utility.yul\":2209:2549   */\n    tag_209:\n        /* \"#utility.yul\":2265:2270   */\n      0x00\n        /* \"#utility.yul\":2314:2317   */\n      dup3\n        /* \"#utility.yul\":2307:2311   */\n      0x1f\n        /* \"#utility.yul\":2299:2305   */\n      dup4\n        /* \"#utility.yul\":2295:2312   */\n      add\n        /* \"#utility.yul\":2291:2318   */\n      slt\n        /* \"#utility.yul\":2281:2403   */\n      tag_294\n      jumpi\n        /* \"#utility.yul\":2322:2401   */\n      tag_295\n      tag_200\n      jump\t// in\n    tag_295:\n        /* \"#utility.yul\":2281:2403   */\n    tag_294:\n        /* \"#utility.yul\":2439:2445   */\n      dup2\n        /* \"#utility.yul\":2426:2446   */\n      calldataload\n        /* \"#utility.yul\":2464:2543   */\n      tag_296\n        /* \"#utility.yul\":2539:2542   */\n      dup5\n        /* \"#utility.yul\":2531:2537   */\n      dup3\n        /* \"#utility.yul\":2524:2528   */\n      0x20\n        /* \"#utility.yul\":2516:2522   */\n      dup7\n        /* \"#utility.yul\":2512:2529   */\n      add\n        /* \"#utility.yul\":2464:2543   */\n      tag_208\n      jump\t// in\n    tag_296:\n        /* \"#utility.yul\":2455:2543   */\n      swap2\n      pop\n        /* \"#utility.yul\":2271:2549   */\n      pop\n        /* \"#utility.yul\":2209:2549   */\n      swap3\n      swap2\n      pop\n      pop\n      jump\t// out\n        /* \"#utility.yul\":2555:3064   */\n    tag_17:\n        /* \"#utility.yul\":2624:2630   */\n      0x00\n        /* \"#utility.yul\":2673:2675   */\n      0x20\n        /* \"#utility.yul\":2661:2670   */\n      dup3\n        /* \"#utility.yul\":2652:2659   */\n      dup5\n        /* \"#utility.yul\":2648:2671   */\n      sub\n        /* \"#utility.yul\":2644:2676   */\n      slt\n        /* \"#utility.yul\":2641:2760   */\n      iszero\n      tag_298\n      jumpi\n        /* \"#utility.yul\":2679:2758   */\n      tag_299\n      tag_198\n      jump\t// in\n    tag_299:\n        /* \"#utility.yul\":2641:2760   */\n    tag_298:\n        /* \"#utility.yul\":2827:2828   */\n      0x00\n        /* \"#utility.yul\":2816:2825   */\n      dup3\n        /* \"#utility.yul\":2812:2829   */\n      add\n        /* \"#utility.yul\":2799:2830   */\n      calldataload\n        /* \"#utility.yul\":2857:2875   */\n      0xffffffffffffffff\n        /* \"#utility.yul\":2849:2855   */\n      dup2\n        /* \"#utility.yul\":2846:2876   */\n      gt\n        /* \"#utility.yul\":2843:2960   */\n      iszero\n      tag_300\n      jumpi\n        /* \"#utility.yul\":2879:2958   */\n      tag_301\n      tag_199\n      jump\t// in\n    tag_301:\n        /* \"#utility.yul\":2843:2960   */\n    tag_300:\n        /* \"#utility.yul\":2984:3047   */\n      tag_302\n        /* \"#utility.yul\":3039:3046   */\n      dup5\n        /* \"#utility.yul\":3030:3036   */\n      dup3\n        /* \"#utility.yul\":3019:3028   */\n      dup6\n        /* \"#utility.yul\":3015:3037   */\n      add\n        /* \"#utility.yul\":2984:3047   */\n      tag_209\n      jump\t// in\n    tag_302:\n        /* \"#utility.yul\":2974:3047   */\n      swap2\n      pop\n        /* \"#utility.yul\":2770:3057   */\n      pop\n        /* \"#utility.yul\":2555:3064   */\n      swap3\n      swap2\n      pop\n      pop\n      jump\t// out\n        /* \"#utility.yul\":3070:3169   */\n    tag_210:\n        /* \"#utility.yul\":3122:3128   */\n      0x00\n        /* \"#utility.yul\":3156:3161   */\n      dup2\n        /* \"#utility.yul\":3150:3162   */\n      mload\n        /* \"#utility.yul\":3140:3162   */\n      swap1\n      pop\n        /* \"#utility.yul\":3070:3169   */\n      swap2\n      swap1\n      pop\n      jump\t// out\n        /* \"#utility.yul\":3175:3344   */\n    tag_211:\n        /* \"#utility.yul\":3259:3270   */\n      0x00\n        /* \"#utility.yul\":3293:3299   */\n      dup3\n        /* \"#utility.yul\":3288:3291   */\n      dup3\n        /* \"#utility.yul\":3281:3300   */\n      mstore\n        /* \"#utility.yul\":3333:3337   */\n      0x20\n        /* \"#utility.yul\":3328:3331   */\n      dup3\n        /* \"#utility.yul\":3324:3338   */\n      add\n        /* \"#utility.yul\":3309:3338   */\n      swap1\n      pop\n        /* \"#utility.yul\":3175:3344   */\n      swap3\n      swap2\n      pop\n      pop\n      jump\t// out\n        /* \"#utility.yul\":3350:3489   */\n    tag_212:\n        /* \"#utility.yul\":3439:3445   */\n      dup3\n        /* \"#utility.yul\":3434:3437   */\n      dup2\n        /* \"#utility.yul\":3429:3432   */\n      dup4\n        /* \"#utility.yul\":3423:3446   */\n      mcopy\n        /* \"#utility.yul\":3480:3481   */\n      0x00\n        /* \"#utility.yul\":3471:3477   */\n      dup4\n        /* \"#utility.yul\":3466:3469   */\n      dup4\n        /* \"#utility.yul\":3462:3478   */\n      add\n        /* \"#utility.yul\":3455:3482   */\n      mstore\n        /* \"#utility.yul\":3350:3489   */\n      pop\n      pop\n      pop\n      jump\t// out\n        /* \"#utility.yul\":3495:3872   */\n    tag_213:\n        /* \"#utility.yul\":3583:3586   */\n      0x00\n        /* \"#utility.yul\":3611:3650   */\n      tag_307\n        /* \"#utility.yul\":3644:3649   */\n      dup3\n        /* \"#utility.yul\":3611:3650   */\n      tag_210\n      jump\t// in\n    tag_307:\n        /* \"#utility.yul\":3666:3737   */\n      tag_308\n        /* \"#utility.yul\":3730:3736   */\n      dup2\n        /* \"#utility.yul\":3725:3728   */\n      dup6\n        /* \"#utility.yul\":3666:3737   */\n      tag_211\n      jump\t// in\n    tag_308:\n        /* \"#utility.yul\":3659:3737   */\n      swap4\n      pop\n        /* \"#utility.yul\":3746:3811   */\n      tag_309\n        /* \"#utility.yul\":3804:3810   */\n      dup2\n        /* \"#utility.yul\":3799:3802   */\n      dup6\n        /* \"#utility.yul\":3792:3796   */\n      0x20\n        /* \"#utility.yul\":3785:3790   */\n      dup7\n        /* \"#utility.yul\":3781:3797   */\n      add\n        /* \"#utility.yul\":3746:3811   */\n      tag_212\n      jump\t// in\n    tag_309:\n        /* \"#utility.yul\":3836:3865   */\n      tag_310\n        /* \"#utility.yul\":3858:3864   */\n      dup2\n        /* \"#utility.yul\":3836:3865   */\n      tag_202\n      jump\t// in\n    tag_310:\n        /* \"#utility.yul\":3831:3834   */\n      dup5\n        /* \"#utility.yul\":3827:3866   */\n      add\n        /* \"#utility.yul\":3820:3866   */\n      swap2\n      pop\n        /* \"#utility.yul\":3587:3872   */\n      pop\n        /* \"#utility.yul\":3495:3872   */\n      swap3\n      swap2\n      pop\n      pop\n      jump\t// out\n        /* \"#utility.yul\":3878:4004   */\n    tag_214:\n        /* \"#utility.yul\":3915:3922   */\n      0x00\n        /* \"#utility.yul\":3955:3997   */\n      0xffffffffffffffffffffffffffffffffffffffff\n        /* \"#utility.yul\":3948:3953   */\n      dup3\n        /* \"#utility.yul\":3944:3998   */\n      and\n        /* \"#utility.yul\":3933:3998   */\n      swap1\n      pop\n        /* \"#utility.yul\":3878:4004   */\n      swap2\n      swap1\n      pop\n      jump\t// out\n        /* \"#utility.yul\":4010:4106   */\n    tag_215:\n        /* \"#utility.yul\":4047:4054   */\n      0x00\n        /* \"#utility.yul\":4076:4100   */\n      tag_313\n        /* \"#utility.yul\":4094:4099   */\n      dup3\n        /* \"#utility.yul\":4076:4100   */\n      tag_214\n      jump\t// in\n    tag_313:\n        /* \"#utility.yul\":4065:4100   */\n      swap1\n      pop\n        /* \"#utility.yul\":4010:4106   */\n      swap2\n      swap1\n      pop\n      jump\t// out\n        /* \"#utility.yul\":4112:4230   */\n    tag_216:\n        /* \"#utility.yul\":4199:4223   */\n      tag_315\n        /* \"#utility.yul\":4217:4222   */\n      dup2\n        /* \"#utility.yul\":4199:4223   */\n      tag_215\n      jump\t// in\n    tag_315:\n        /* \"#utility.yul\":4194:4197   */\n      dup3\n        /* \"#utility.yul\":4187:4224   */\n      mstore\n        /* \"#utility.yul\":4112:4230   */\n      pop\n      pop\n      jump\t// out\n        /* \"#utility.yul\":4236:4313   */\n    tag_217:\n        /* \"#utility.yul\":4273:4280   */\n      0x00\n        /* \"#utility.yul\":4302:4307   */\n      dup2\n        /* \"#utility.yul\":4291:4307   */\n      swap1\n      pop\n        /* \"#utility.yul\":4236:4313   */\n      swap2\n      swap1\n      pop\n      jump\t// out\n        /* \"#utility.yul\":4319:4437   */\n    tag_218:\n        /* \"#utility.yul\":4406:4430   */\n      tag_318\n        /* \"#utility.yul\":4424:4429   */\n      dup2\n        /* \"#utility.yul\":4406:4430   */\n      tag_217\n      jump\t// in\n    tag_318:\n        /* \"#utility.yul\":4401:4404   */\n      dup3\n        /* \"#utility.yul\":4394:4431   */\n      mstore\n        /* \"#utility.yul\":4319:4437   */\n      pop\n      pop\n      jump\t// out\n        /* \"#utility.yul\":4443:4533   */\n    tag_219:\n        /* \"#utility.yul\":4477:4484   */\n      0x00\n        /* \"#utility.yul\":4520:4525   */\n      dup2\n        /* \"#utility.yul\":4513:4526   */\n      iszero\n        /* \"#utility.yul\":4506:4527   */\n      iszero\n        /* \"#utility.yul\":4495:4527   */\n      swap1\n      pop\n        /* \"#utility.yul\":4443:4533   */\n      swap2\n      swap1\n      pop\n      jump\t// out\n        /* \"#utility.yul\":4539:4648   */\n    tag_220:\n        /* \"#utility.yul\":4620:4641   */\n      tag_321\n        /* \"#utility.yul\":4635:4640   */\n      dup2\n        /* \"#utility.yul\":4620:4641   */\n      tag_219\n      jump\t// in\n    tag_321:\n        /* \"#utility.yul\":4615:4618   */\n      dup3\n        /* \"#utility.yul\":4608:4642   */\n      mstore\n        /* \"#utility.yul\":4539:4648   */\n      pop\n      pop\n      jump\t// out\n        /* \"#utility.yul\":4654:6003   */\n    tag_20:\n        /* \"#utility.yul\":5017:5021   */\n      0x00\n        /* \"#utility.yul\":5055:5058   */\n      0x0100\n        /* \"#utility.yul\":5044:5053   */\n      dup3\n        /* \"#utility.yul\":5040:5059   */\n      add\n        /* \"#utility.yul\":5032:5059   */\n      swap1\n      pop\n        /* \"#utility.yul\":5105:5114   */\n      dup2\n        /* \"#utility.yul\":5099:5103   */\n      dup2\n        /* \"#utility.yul\":5095:5115   */\n      sub\n        /* \"#utility.yul\":5091:5092   */\n      0x00\n        /* \"#utility.yul\":5080:5089   */\n      dup4\n        /* \"#utility.yul\":5076:5093   */\n      add\n        /* \"#utility.yul\":5069:5116   */\n      mstore\n        /* \"#utility.yul\":5133:5211   */\n      tag_323\n        /* \"#utility.yul\":5206:5210   */\n      dup2\n        /* \"#utility.yul\":5197:5203   */\n      dup12\n        /* \"#utility.yul\":5133:5211   */\n      tag_213\n      jump\t// in\n    tag_323:\n        /* \"#utility.yul\":5125:5211   */\n      swap1\n      pop\n        /* \"#utility.yul\":5258:5267   */\n      dup2\n        /* \"#utility.yul\":5252:5256   */\n      dup2\n        /* \"#utility.yul\":5248:5268   */\n      sub\n        /* \"#utility.yul\":5243:5245   */\n      0x20\n        /* \"#utility.yul\":5232:5241   */\n      dup4\n        /* \"#utility.yul\":5228:5246   */\n      add\n        /* \"#utility.yul\":5221:5269   */\n      mstore\n        /* \"#utility.yul\":5286:5364   */\n      tag_324\n        /* \"#utility.yul\":5359:5363   */\n      dup2\n        /* \"#utility.yul\":5350:5356   */\n      dup11\n        /* \"#utility.yul\":5286:5364   */\n      tag_213\n      jump\t// in\n    tag_324:\n        /* \"#utility.yul\":5278:5364   */\n      swap1\n      pop\n        /* \"#utility.yul\":5411:5420   */\n      dup2\n        /* \"#utility.yul\":5405:5409   */\n      dup2\n        /* \"#utility.yul\":5401:5421   */\n      sub\n        /* \"#utility.yul\":5396:5398   */\n      0x40\n        /* \"#utility.yul\":5385:5394   */\n      dup4\n        /* \"#utility.yul\":5381:5399   */\n      add\n        /* \"#utility.yul\":5374:5422   */\n      mstore\n        /* \"#utility.yul\":5439:5517   */\n      tag_325\n        /* \"#utility.yul\":5512:5516   */\n      dup2\n        /* \"#utility.yul\":5503:5509   */\n      dup10\n        /* \"#utility.yul\":5439:5517   */\n      tag_213\n      jump\t// in\n    tag_325:\n        /* \"#utility.yul\":5431:5517   */\n      swap1\n      pop\n        /* \"#utility.yul\":5527:5599   */\n      tag_326\n        /* \"#utility.yul\":5595:5597   */\n      0x60\n        /* \"#utility.yul\":5584:5593   */\n      dup4\n        /* \"#utility.yul\":5580:5598   */\n      add\n        /* \"#utility.yul\":5571:5577   */\n      dup9\n        /* \"#utility.yul\":5527:5599   */\n      tag_216\n      jump\t// in\n    tag_326:\n        /* \"#utility.yul\":5609:5682   */\n      tag_327\n        /* \"#utility.yul\":5677:5680   */\n      0x80\n        /* \"#utility.yul\":5666:5675   */\n      dup4\n        /* \"#utility.yul\":5662:5681   */\n      add\n        /* \"#utility.yul\":5653:5659   */\n      dup8\n        /* \"#utility.yul\":5609:5682   */\n      tag_216\n      jump\t// in\n    tag_327:\n        /* \"#utility.yul\":5692:5765   */\n      tag_328\n        /* \"#utility.yul\":5760:5763   */\n      0xa0\n        /* \"#utility.yul\":5749:5758   */\n      dup4\n        /* \"#utility.yul\":5745:5764   */\n      add\n        /* \"#utility.yul\":5736:5742   */\n      dup7\n        /* \"#utility.yul\":5692:5765   */\n      tag_218\n      jump\t// in\n    tag_328:\n        /* \"#utility.yul\":5813:5822   */\n      dup2\n        /* \"#utility.yul\":5807:5811   */\n      dup2\n        /* \"#utility.yul\":5803:5823   */\n      sub\n        /* \"#utility.yul\":5797:5800   */\n      0xc0\n        /* \"#utility.yul\":5786:5795   */\n      dup4\n        /* \"#utility.yul\":5782:5801   */\n      add\n        /* \"#utility.yul\":5775:5824   */\n      mstore\n        /* \"#utility.yul\":5841:5919   */\n      tag_329\n        /* \"#utility.yul\":5914:5918   */\n      dup2\n        /* \"#utility.yul\":5905:5911   */\n      dup6\n        /* \"#utility.yul\":5841:5919   */\n      tag_213\n      jump\t// in\n    tag_329:\n        /* \"#utility.yul\":5833:5919   */\n      swap1\n      pop\n        /* \"#utility.yul\":5929:5996   */\n      tag_330\n        /* \"#utility.yul\":5991:5994   */\n      0xe0\n        /* \"#utility.yul\":5980:5989   */\n      dup4\n        /* \"#utility.yul\":5976:5995   */\n      add\n        /* \"#utility.yul\":5967:5973   */\n      dup5\n        /* \"#utility.yul\":5929:5996   */\n      tag_220\n      jump\t// in\n    tag_330:\n        /* \"#utility.yul\":4654:6003   */\n      swap10\n      swap9\n      pop\n      pop\n      pop\n      pop\n      pop\n      pop\n      pop\n      pop\n      pop\n      jump\t// out\n        /* \"#utility.yul\":6009:6131   */\n    tag_221:\n        /* \"#utility.yul\":6082:6106   */\n      tag_332\n        /* \"#utility.yul\":6100:6105   */\n      dup2\n        /* \"#utility.yul\":6082:6106   */\n      tag_215\n      jump\t// in\n    tag_332:\n        /* \"#utility.yul\":6075:6080   */\n      dup2\n        /* \"#utility.yul\":6072:6107   */\n      eq\n        /* \"#utility.yul\":6062:6125   */\n      tag_333\n      jumpi\n        /* \"#utility.yul\":6121:6122   */\n      0x00\n        /* \"#utility.yul\":6118:6119   */\n      0x00\n        /* \"#utility.yul\":6111:6123   */\n      revert\n        /* \"#utility.yul\":6062:6125   */\n    tag_333:\n        /* \"#utility.yul\":6009:6131   */\n      pop\n      jump\t// out\n        /* \"#utility.yul\":6137:6276   */\n    tag_222:\n        /* \"#utility.yul\":6183:6188   */\n      0x00\n        /* \"#utility.yul\":6221:6227   */\n      dup2\n        /* \"#utility.yul\":6208:6228   */\n      calldataload\n        /* \"#utility.yul\":6199:6228   */\n      swap1\n      pop\n        /* \"#utility.yul\":6237:6270   */\n      tag_335\n        /* \"#utility.yul\":6264:6269   */\n      dup2\n        /* \"#utility.yul\":6237:6270   */\n      tag_221\n      jump\t// in\n    tag_335:\n        /* \"#utility.yul\":6137:6276   */\n      swap3\n      swap2\n      pop\n      pop\n      jump\t// out\n        /* \"#utility.yul\":6282:8059   */\n    tag_23:\n        /* \"#utility.yul\":6426:6432   */\n      0x00\n        /* \"#utility.yul\":6434:6440   */\n      0x00\n        /* \"#utility.yul\":6442:6448   */\n      0x00\n        /* \"#utility.yul\":6450:6456   */\n      0x00\n        /* \"#utility.yul\":6458:6464   */\n      0x00\n        /* \"#utility.yul\":6466:6472   */\n      0x00\n        /* \"#utility.yul\":6515:6518   */\n      0xc0\n        /* \"#utility.yul\":6503:6512   */\n      dup8\n        /* \"#utility.yul\":6494:6501   */\n      dup10\n        /* \"#utility.yul\":6490:6513   */\n      sub\n        /* \"#utility.yul\":6486:6519   */\n      slt\n        /* \"#utility.yul\":6483:6603   */\n      iszero\n      tag_337\n      jumpi\n        /* \"#utility.yul\":6522:6601   */\n      tag_338\n      tag_198\n      jump\t// in\n    tag_338:\n        /* \"#utility.yul\":6483:6603   */\n    tag_337:\n        /* \"#utility.yul\":6670:6671   */\n      0x00\n        /* \"#utility.yul\":6659:6668   */\n      dup8\n        /* \"#utility.yul\":6655:6672   */\n      add\n        /* \"#utility.yul\":6642:6673   */\n      calldataload\n        /* \"#utility.yul\":6700:6718   */\n      0xffffffffffffffff\n        /* \"#utility.yul\":6692:6698   */\n      dup2\n        /* \"#utility.yul\":6689:6719   */\n      gt\n        /* \"#utility.yul\":6686:6803   */\n      iszero\n      tag_339\n      jumpi\n        /* \"#utility.yul\":6722:6801   */\n      tag_340\n      tag_199\n      jump\t// in\n    tag_340:\n        /* \"#utility.yul\":6686:6803   */\n    tag_339:\n        /* \"#utility.yul\":6827:6890   */\n      tag_341\n        /* \"#utility.yul\":6882:6889   */\n      dup10\n        /* \"#utility.yul\":6873:6879   */\n      dup3\n        /* \"#utility.yul\":6862:6871   */\n      dup11\n        /* \"#utility.yul\":6858:6880   */\n      add\n        /* \"#utility.yul\":6827:6890   */\n      tag_209\n      jump\t// in\n    tag_341:\n        /* \"#utility.yul\":6817:6890   */\n      swap7\n      pop\n        /* \"#utility.yul\":6613:6900   */\n      pop\n        /* \"#utility.yul\":6967:6969   */\n      0x20\n        /* \"#utility.yul\":6956:6965   */\n      dup8\n        /* \"#utility.yul\":6952:6970   */\n      add\n        /* \"#utility.yul\":6939:6971   */\n      calldataload\n        /* \"#utility.yul\":6998:7016   */\n      0xffffffffffffffff\n        /* \"#utility.yul\":6990:6996   */\n      dup2\n        /* \"#utility.yul\":6987:7017   */\n      gt\n        /* \"#utility.yul\":6984:7101   */\n      iszero\n      tag_342\n      jumpi\n        /* \"#utility.yul\":7020:7099   */\n      tag_343\n      tag_199\n      jump\t// in\n    tag_343:\n        /* \"#utility.yul\":6984:7101   */\n    tag_342:\n        /* \"#utility.yul\":7125:7188   */\n      tag_344\n        /* \"#utility.yul\":7180:7187   */\n      dup10\n        /* \"#utility.yul\":7171:7177   */\n      dup3\n        /* \"#utility.yul\":7160:7169   */\n      dup11\n        /* \"#utility.yul\":7156:7178   */\n      add\n        /* \"#utility.yul\":7125:7188   */\n      tag_209\n      jump\t// in\n    tag_344:\n        /* \"#utility.yul\":7115:7188   */\n      swap6\n      pop\n        /* \"#utility.yul\":6910:7198   */\n      pop\n        /* \"#utility.yul\":7265:7267   */\n      0x40\n        /* \"#utility.yul\":7254:7263   */\n      dup8\n        /* \"#utility.yul\":7250:7268   */\n      add\n        /* \"#utility.yul\":7237:7269   */\n      calldataload\n        /* \"#utility.yul\":7296:7314   */\n      0xffffffffffffffff\n        /* \"#utility.yul\":7288:7294   */\n      dup2\n        /* \"#utility.yul\":7285:7315   */\n      gt\n        /* \"#utility.yul\":7282:7399   */\n      iszero\n      tag_345\n      jumpi\n        /* \"#utility.yul\":7318:7397   */\n      tag_346\n      tag_199\n      jump\t// in\n    tag_346:\n        /* \"#utility.yul\":7282:7399   */\n    tag_345:\n        /* \"#utility.yul\":7423:7486   */\n      tag_347\n        /* \"#utility.yul\":7478:7485   */\n      dup10\n        /* \"#utility.yul\":7469:7475   */\n      dup3\n        /* \"#utility.yul\":7458:7467   */\n      dup11\n        /* \"#utility.yul\":7454:7476   */\n      add\n        /* \"#utility.yul\":7423:7486   */\n      tag_209\n      jump\t// in\n    tag_347:\n        /* \"#utility.yul\":7413:7486   */\n      swap5\n      pop\n        /* \"#utility.yul\":7208:7496   */\n      pop\n        /* \"#utility.yul\":7535:7537   */\n      0x60\n        /* \"#utility.yul\":7561:7614   */\n      tag_348\n        /* \"#utility.yul\":7606:7613   */\n      dup10\n        /* \"#utility.yul\":7597:7603   */\n      dup3\n        /* \"#utility.yul\":7586:7595   */\n      dup11\n        /* \"#utility.yul\":7582:7604   */\n      add\n        /* \"#utility.yul\":7561:7614   */\n      tag_222\n      jump\t// in\n    tag_348:\n        /* \"#utility.yul\":7551:7614   */\n      swap4\n      pop\n        /* \"#utility.yul\":7506:7624   */\n      pop\n        /* \"#utility.yul\":7663:7666   */\n      0x80\n        /* \"#utility.yul\":7690:7743   */\n      tag_349\n        /* \"#utility.yul\":7735:7742   */\n      dup10\n        /* \"#utility.yul\":7726:7732   */\n      dup3\n        /* \"#utility.yul\":7715:7724   */\n      dup11\n        /* \"#utility.yul\":7711:7733   */\n      add\n        /* \"#utility.yul\":7690:7743   */\n      tag_222\n      jump\t// in\n    tag_349:\n        /* \"#utility.yul\":7680:7743   */\n      swap3\n      pop\n        /* \"#utility.yul\":7634:7753   */\n      pop\n        /* \"#utility.yul\":7820:7823   */\n      0xa0\n        /* \"#utility.yul\":7809:7818   */\n      dup8\n        /* \"#utility.yul\":7805:7824   */\n      add\n        /* \"#utility.yul\":7792:7825   */\n      calldataload\n        /* \"#utility.yul\":7852:7870   */\n      0xffffffffffffffff\n        /* \"#utility.yul\":7844:7850   */\n      dup2\n        /* \"#utility.yul\":7841:7871   */\n      gt\n        /* \"#utility.yul\":7838:7955   */\n      iszero\n      tag_350\n      jumpi\n        /* \"#utility.yul\":7874:7953   */\n      tag_351\n      tag_199\n      jump\t// in\n    tag_351:\n        /* \"#utility.yul\":7838:7955   */\n    tag_350:\n        /* \"#utility.yul\":7979:8042   */\n      tag_352\n        /* \"#utility.yul\":8034:8041   */\n      dup10\n        /* \"#utility.yul\":8025:8031   */\n      dup3\n        /* \"#utility.yul\":8014:8023   */\n      dup11\n        /* \"#utility.yul\":8010:8032   */\n      add\n        /* \"#utility.yul\":7979:8042   */\n      tag_209\n      jump\t// in\n    tag_352:\n        /* \"#utility.yul\":7969:8042   */\n      swap2\n      pop\n        /* \"#utility.yul\":7763:8052   */\n      pop\n        /* \"#utility.yul\":6282:8059   */\n      swap3\n      swap6\n      pop\n      swap3\n      swap6\n      pop\n      swap3\n      swap6\n      jump\t// out\n        /* \"#utility.yul\":8065:8187   */\n    tag_223:\n        /* \"#utility.yul\":8138:8162   */\n      tag_354\n        /* \"#utility.yul\":8156:8161   */\n      dup2\n        /* \"#utility.yul\":8138:8162   */\n      tag_217\n      jump\t// in\n    tag_354:\n        /* \"#utility.yul\":8131:8136   */\n      dup2\n        /* \"#utility.yul\":8128:8163   */\n      eq\n        /* \"#utility.yul\":8118:8181   */\n      tag_355\n      jumpi\n        /* \"#utility.yul\":8177:8178   */\n      0x00\n        /* \"#utility.yul\":8174:8175   */\n      0x00\n        /* \"#utility.yul\":8167:8179   */\n      revert\n        /* \"#utility.yul\":8118:8181   */\n    tag_355:\n        /* \"#utility.yul\":8065:8187   */\n      pop\n      jump\t// out\n        /* \"#utility.yul\":8193:8332   */\n    tag_224:\n        /* \"#utility.yul\":8239:8244   */\n      0x00\n        /* \"#utility.yul\":8277:8283   */\n      dup2\n        /* \"#utility.yul\":8264:8284   */\n      calldataload\n        /* \"#utility.yul\":8255:8284   */\n      swap1\n      pop\n        /* \"#utility.yul\":8293:8326   */\n      tag_357\n        /* \"#utility.yul\":8320:8325   */\n      dup2\n        /* \"#utility.yul\":8293:8326   */\n      tag_223\n      jump\t// in\n    tag_357:\n        /* \"#utility.yul\":8193:8332   */\n      swap3\n      swap2\n      pop\n      pop\n      jump\t// out\n        /* \"#utility.yul\":8338:8667   */\n    tag_27:\n        /* \"#utility.yul\":8397:8403   */\n      0x00\n        /* \"#utility.yul\":8446:8448   */\n      0x20\n        /* \"#utility.yul\":8434:8443   */\n      dup3\n        /* \"#utility.yul\":8425:8432   */\n      dup5\n        /* \"#utility.yul\":8421:8444   */\n      sub\n        /* \"#utility.yul\":8417:8449   */\n      slt\n        /* \"#utility.yul\":8414:8533   */\n      iszero\n      tag_359\n      jumpi\n        /* \"#utility.yul\":8452:8531   */\n      tag_360\n      tag_198\n      jump\t// in\n    tag_360:\n        /* \"#utility.yul\":8414:8533   */\n    tag_359:\n        /* \"#utility.yul\":8572:8573   */\n      0x00\n        /* \"#utility.yul\":8597:8650   */\n      tag_361\n        /* \"#utility.yul\":8642:8649   */\n      dup5\n        /* \"#utility.yul\":8633:8639   */\n      dup3\n        /* \"#utility.yul\":8622:8631   */\n      dup6\n        /* \"#utility.yul\":8618:8640   */\n      add\n        /* \"#utility.yul\":8597:8650   */\n      tag_224\n      jump\t// in\n    tag_361:\n        /* \"#utility.yul\":8587:8650   */\n      swap2\n      pop\n        /* \"#utility.yul\":8543:8660   */\n      pop\n        /* \"#utility.yul\":8338:8667   */\n      swap3\n      swap2\n      pop\n      pop\n      jump\t// out\n        /* \"#utility.yul\":8673:8986   */\n    tag_30:\n        /* \"#utility.yul\":8786:8790   */\n      0x00\n        /* \"#utility.yul\":8824:8826   */\n      0x20\n        /* \"#utility.yul\":8813:8822   */\n      dup3\n        /* \"#utility.yul\":8809:8827   */\n      add\n        /* \"#utility.yul\":8801:8827   */\n      swap1\n      pop\n        /* \"#utility.yul\":8873:8882   */\n      dup2\n        /* \"#utility.yul\":8867:8871   */\n      dup2\n        /* \"#utility.yul\":8863:8883   */\n      sub\n        /* \"#utility.yul\":8859:8860   */\n      0x00\n        /* \"#utility.yul\":8848:8857   */\n      dup4\n        /* \"#utility.yul\":8844:8861   */\n      add\n        /* \"#utility.yul\":8837:8884   */\n      mstore\n        /* \"#utility.yul\":8901:8979   */\n      tag_363\n        /* \"#utility.yul\":8974:8978   */\n      dup2\n        /* \"#utility.yul\":8965:8971   */\n      dup5\n        /* \"#utility.yul\":8901:8979   */\n      tag_213\n      jump\t// in\n    tag_363:\n        /* \"#utility.yul\":8893:8979   */\n      swap1\n      pop\n        /* \"#utility.yul\":8673:8986   */\n      swap3\n      swap2\n      pop\n      pop\n      jump\t// out\n        /* \"#utility.yul\":8992:9321   */\n    tag_33:\n        /* \"#utility.yul\":9051:9057   */\n      0x00\n        /* \"#utility.yul\":9100:9102   */\n      0x20\n        /* \"#utility.yul\":9088:9097   */\n      dup3\n        /* \"#utility.yul\":9079:9086   */\n      dup5\n        /* \"#utility.yul\":9075:9098   */\n      sub\n        /* \"#utility.yul\":9071:9103   */\n      slt\n        /* \"#utility.yul\":9068:9187   */\n      iszero\n      tag_365\n      jumpi\n        /* \"#utility.yul\":9106:9185   */\n      tag_366\n      tag_198\n      jump\t// in\n    tag_366:\n        /* \"#utility.yul\":9068:9187   */\n    tag_365:\n        /* \"#utility.yul\":9226:9227   */\n      0x00\n        /* \"#utility.yul\":9251:9304   */\n      tag_367\n        /* \"#utility.yul\":9296:9303   */\n      dup5\n        /* \"#utility.yul\":9287:9293   */\n      dup3\n        /* \"#utility.yul\":9276:9285   */\n      dup6\n        /* \"#utility.yul\":9272:9294   */\n      add\n        /* \"#utility.yul\":9251:9304   */\n      tag_222\n      jump\t// in\n    tag_367:\n        /* \"#utility.yul\":9241:9304   */\n      swap2\n      pop\n        /* \"#utility.yul\":9197:9314   */\n      pop\n        /* \"#utility.yul\":8992:9321   */\n      swap3\n      swap2\n      pop\n      pop\n      jump\t// out\n        /* \"#utility.yul\":9327:9451   */\n    tag_225:\n        /* \"#utility.yul\":9404:9410   */\n      0x00\n        /* \"#utility.yul\":9438:9443   */\n      dup2\n        /* \"#utility.yul\":9432:9444   */\n      mload\n        /* \"#utility.yul\":9422:9444   */\n      swap1\n      pop\n        /* \"#utility.yul\":9327:9451   */\n      swap2\n      swap1\n      pop\n      jump\t// out\n        /* \"#utility.yul\":9457:9651   */\n    tag_226:\n        /* \"#utility.yul\":9566:9577   */\n      0x00\n        /* \"#utility.yul\":9600:9606   */\n      dup3\n        /* \"#utility.yul\":9595:9598   */\n      dup3\n        /* \"#utility.yul\":9588:9607   */\n      mstore\n        /* \"#utility.yul\":9640:9644   */\n      0x20\n        /* \"#utility.yul\":9635:9638   */\n      dup3\n        /* \"#utility.yul\":9631:9645   */\n      add\n        /* \"#utility.yul\":9616:9645   */\n      swap1\n      pop\n        /* \"#utility.yul\":9457:9651   */\n      swap3\n      swap2\n      pop\n      pop\n      jump\t// out\n        /* \"#utility.yul\":9657:9799   */\n    tag_227:\n        /* \"#utility.yul\":9734:9738   */\n      0x00\n        /* \"#utility.yul\":9757:9760   */\n      dup2\n        /* \"#utility.yul\":9749:9760   */\n      swap1\n      pop\n        /* \"#utility.yul\":9787:9791   */\n      0x20\n        /* \"#utility.yul\":9782:9785   */\n      dup3\n        /* \"#utility.yul\":9778:9792   */\n      add\n        /* \"#utility.yul\":9770:9792   */\n      swap1\n      pop\n        /* \"#utility.yul\":9657:9799   */\n      swap2\n      swap1\n      pop\n      jump\t// out\n        /* \"#utility.yul\":9805:9964   */\n    tag_228:\n        /* \"#utility.yul\":9879:9890   */\n      0x00\n        /* \"#utility.yul\":9913:9919   */\n      dup3\n        /* \"#utility.yul\":9908:9911   */\n      dup3\n        /* \"#utility.yul\":9901:9920   */\n      mstore\n        /* \"#utility.yul\":9953:9957   */\n      0x20\n        /* \"#utility.yul\":9948:9951   */\n      dup3\n        /* \"#utility.yul\":9944:9958   */\n      add\n        /* \"#utility.yul\":9929:9958   */\n      swap1\n      pop\n        /* \"#utility.yul\":9805:9964   */\n      swap3\n      swap2\n      pop\n      pop\n      jump\t// out\n        /* \"#utility.yul\":9970:10327   */\n    tag_229:\n        /* \"#utility.yul\":10048:10051   */\n      0x00\n        /* \"#utility.yul\":10076:10115   */\n      tag_373\n        /* \"#utility.yul\":10109:10114   */\n      dup3\n        /* \"#utility.yul\":10076:10115   */\n      tag_210\n      jump\t// in\n    tag_373:\n        /* \"#utility.yul\":10131:10192   */\n      tag_374\n        /* \"#utility.yul\":10185:10191   */\n      dup2\n        /* \"#utility.yul\":10180:10183   */\n      dup6\n        /* \"#utility.yul\":10131:10192   */\n      tag_228\n      jump\t// in\n    tag_374:\n        /* \"#utility.yul\":10124:10192   */\n      swap4\n      pop\n        /* \"#utility.yul\":10201:10266   */\n      tag_375\n        /* \"#utility.yul\":10259:10265   */\n      dup2\n        /* \"#utility.yul\":10254:10257   */\n      dup6\n        /* \"#utility.yul\":10247:10251   */\n      0x20\n        /* \"#utility.yul\":10240:10245   */\n      dup7\n        /* \"#utility.yul\":10236:10252   */\n      add\n        /* \"#utility.yul\":10201:10266   */\n      tag_212\n      jump\t// in\n    tag_375:\n        /* \"#utility.yul\":10291:10320   */\n      tag_376\n        /* \"#utility.yul\":10313:10319   */\n      dup2\n        /* \"#utility.yul\":10291:10320   */\n      tag_202\n      jump\t// in\n    tag_376:\n        /* \"#utility.yul\":10286:10289   */\n      dup5\n        /* \"#utility.yul\":10282:10321   */\n      add\n        /* \"#utility.yul\":10275:10321   */\n      swap2\n      pop\n        /* \"#utility.yul\":10052:10327   */\n      pop\n        /* \"#utility.yul\":9970:10327   */\n      swap3\n      swap2\n      pop\n      pop\n      jump\t// out\n        /* \"#utility.yul\":10333:10529   */\n    tag_230:\n        /* \"#utility.yul\":10422:10432   */\n      0x00\n        /* \"#utility.yul\":10457:10523   */\n      tag_378\n        /* \"#utility.yul\":10519:10522   */\n      dup4\n        /* \"#utility.yul\":10511:10517   */\n      dup4\n        /* \"#utility.yul\":10457:10523   */\n      tag_229\n      jump\t// in\n    tag_378:\n        /* \"#utility.yul\":10443:10523   */\n      swap1\n      pop\n        /* \"#utility.yul\":10333:10529   */\n      swap3\n      swap2\n      pop\n      pop\n      jump\t// out\n        /* \"#utility.yul\":10535:10658   */\n    tag_231:\n        /* \"#utility.yul\":10615:10619   */\n      0x00\n        /* \"#utility.yul\":10647:10651   */\n      0x20\n        /* \"#utility.yul\":10642:10645   */\n      dup3\n        /* \"#utility.yul\":10638:10652   */\n      add\n        /* \"#utility.yul\":10630:10652   */\n      swap1\n      pop\n        /* \"#utility.yul\":10535:10658   */\n      swap2\n      swap1\n      pop\n      jump\t// out\n        /* \"#utility.yul\":10692:11683   */\n    tag_232:\n        /* \"#utility.yul\":10831:10834   */\n      0x00\n        /* \"#utility.yul\":10860:10924   */\n      tag_381\n        /* \"#utility.yul\":10918:10923   */\n      dup3\n        /* \"#utility.yul\":10860:10924   */\n      tag_225\n      jump\t// in\n    tag_381:\n        /* \"#utility.yul\":10940:11036   */\n      tag_382\n        /* \"#utility.yul\":11029:11035   */\n      dup2\n        /* \"#utility.yul\":11024:11027   */\n      dup6\n        /* \"#utility.yul\":10940:11036   */\n      tag_226\n      jump\t// in\n    tag_382:\n        /* \"#utility.yul\":10933:11036   */\n      swap4\n      pop\n        /* \"#utility.yul\":11062:11065   */\n      dup4\n        /* \"#utility.yul\":11107:11111   */\n      0x20\n        /* \"#utility.yul\":11099:11105   */\n      dup3\n        /* \"#utility.yul\":11095:11112   */\n      mul\n        /* \"#utility.yul\":11090:11093   */\n      dup6\n        /* \"#utility.yul\":11086:11113   */\n      add\n        /* \"#utility.yul\":11137:11203   */\n      tag_383\n        /* \"#utility.yul\":11197:11202   */\n      dup6\n        /* \"#utility.yul\":11137:11203   */\n      tag_227\n      jump\t// in\n    tag_383:\n        /* \"#utility.yul\":11226:11233   */\n      dup1\n        /* \"#utility.yul\":11257:11258   */\n      0x00\n        /* \"#utility.yul\":11242:11638   */\n    tag_384:\n        /* \"#utility.yul\":11267:11273   */\n      dup6\n        /* \"#utility.yul\":11264:11265   */\n      dup2\n        /* \"#utility.yul\":11261:11274   */\n      lt\n        /* \"#utility.yul\":11242:11638   */\n      iszero\n      tag_386\n      jumpi\n        /* \"#utility.yul\":11338:11347   */\n      dup5\n        /* \"#utility.yul\":11332:11336   */\n      dup5\n        /* \"#utility.yul\":11328:11348   */\n      sub\n        /* \"#utility.yul\":11323:11326   */\n      dup10\n        /* \"#utility.yul\":11316:11349   */\n      mstore\n        /* \"#utility.yul\":11389:11395   */\n      dup2\n        /* \"#utility.yul\":11383:11396   */\n      mload\n        /* \"#utility.yul\":11417:11501   */\n      tag_387\n        /* \"#utility.yul\":11496:11500   */\n      dup6\n        /* \"#utility.yul\":11481:11494   */\n      dup3\n        /* \"#utility.yul\":11417:11501   */\n      tag_230\n      jump\t// in\n    tag_387:\n        /* \"#utility.yul\":11409:11501   */\n      swap5\n      pop\n        /* \"#utility.yul\":11524:11594   */\n      tag_388\n        /* \"#utility.yul\":11587:11593   */\n      dup4\n        /* \"#utility.yul\":11524:11594   */\n      tag_231\n      jump\t// in\n    tag_388:\n        /* \"#utility.yul\":11514:11594   */\n      swap3\n      pop\n        /* \"#utility.yul\":11623:11627   */\n      0x20\n        /* \"#utility.yul\":11618:11621   */\n      dup11\n        /* \"#utility.yul\":11614:11628   */\n      add\n        /* \"#utility.yul\":11607:11628   */\n      swap10\n      pop\n        /* \"#utility.yul\":11302:11638   */\n      pop\n        /* \"#utility.yul\":11289:11290   */\n      0x01\n        /* \"#utility.yul\":11286:11287   */\n      dup2\n        /* \"#utility.yul\":11282:11291   */\n      add\n        /* \"#utility.yul\":11277:11291   */\n      swap1\n      pop\n        /* \"#utility.yul\":11242:11638   */\n      jump(tag_384)\n    tag_386:\n        /* \"#utility.yul\":11246:11260   */\n      pop\n        /* \"#utility.yul\":11654:11658   */\n      dup3\n        /* \"#utility.yul\":11647:11658   */\n      swap8\n      pop\n        /* \"#utility.yul\":11674:11677   */\n      dup8\n        /* \"#utility.yul\":11667:11677   */\n      swap6\n      pop\n        /* \"#utility.yul\":10836:11683   */\n      pop\n      pop\n      pop\n      pop\n      pop\n        /* \"#utility.yul\":10692:11683   */\n      swap3\n      swap2\n      pop\n      pop\n      jump\t// out\n        /* \"#utility.yul\":11689:12102   */\n    tag_36:\n        /* \"#utility.yul\":11852:11856   */\n      0x00\n        /* \"#utility.yul\":11890:11892   */\n      0x20\n        /* \"#utility.yul\":11879:11888   */\n      dup3\n        /* \"#utility.yul\":11875:11893   */\n      add\n        /* \"#utility.yul\":11867:11893   */\n      swap1\n      pop\n        /* \"#utility.yul\":11939:11948   */\n      dup2\n        /* \"#utility.yul\":11933:11937   */\n      dup2\n        /* \"#utility.yul\":11929:11949   */\n      sub\n        /* \"#utility.yul\":11925:11926   */\n      0x00\n        /* \"#utility.yul\":11914:11923   */\n      dup4\n        /* \"#utility.yul\":11910:11927   */\n      add\n        /* \"#utility.yul\":11903:11950   */\n      mstore\n        /* \"#utility.yul\":11967:12095   */\n      tag_390\n        /* \"#utility.yul\":12090:12094   */\n      dup2\n        /* \"#utility.yul\":12081:12087   */\n      dup5\n        /* \"#utility.yul\":11967:12095   */\n      tag_232\n      jump\t// in\n    tag_390:\n        /* \"#utility.yul\":11959:12095   */\n      swap1\n      pop\n        /* \"#utility.yul\":11689:12102   */\n      swap3\n      swap2\n      pop\n      pop\n      jump\t// out\n        /* \"#utility.yul\":12108:12330   */\n    tag_40:\n        /* \"#utility.yul\":12201:12205   */\n      0x00\n        /* \"#utility.yul\":12239:12241   */\n      0x20\n        /* \"#utility.yul\":12228:12237   */\n      dup3\n        /* \"#utility.yul\":12224:12242   */\n      add\n        /* \"#utility.yul\":12216:12242   */\n      swap1\n      pop\n        /* \"#utility.yul\":12252:12323   */\n      tag_392\n        /* \"#utility.yul\":12320:12321   */\n      0x00\n        /* \"#utility.yul\":12309:12318   */\n      dup4\n        /* \"#utility.yul\":12305:12322   */\n      add\n        /* \"#utility.yul\":12296:12302   */\n      dup5\n        /* \"#utility.yul\":12252:12323   */\n      tag_218\n      jump\t// in\n    tag_392:\n        /* \"#utility.yul\":12108:12330   */\n      swap3\n      swap2\n      pop\n      pop\n      jump\t// out\n        /* \"#utility.yul\":12336:12546   */\n    tag_45:\n        /* \"#utility.yul\":12423:12427   */\n      0x00\n        /* \"#utility.yul\":12461:12463   */\n      0x20\n        /* \"#utility.yul\":12450:12459   */\n      dup3\n        /* \"#utility.yul\":12446:12464   */\n      add\n        /* \"#utility.yul\":12438:12464   */\n      swap1\n      pop\n        /* \"#utility.yul\":12474:12539   */\n      tag_394\n        /* \"#utility.yul\":12536:12537   */\n      0x00\n        /* \"#utility.yul\":12525:12534   */\n      dup4\n        /* \"#utility.yul\":12521:12538   */\n      add\n        /* \"#utility.yul\":12512:12518   */\n      dup5\n        /* \"#utility.yul\":12474:12539   */\n      tag_220\n      jump\t// in\n    tag_394:\n        /* \"#utility.yul\":12336:12546   */\n      swap3\n      swap2\n      pop\n      pop\n      jump\t// out\n        /* \"#utility.yul\":12552:12774   */\n    tag_49:\n        /* \"#utility.yul\":12645:12649   */\n      0x00\n        /* \"#utility.yul\":12683:12685   */\n      0x20\n        /* \"#utility.yul\":12672:12681   */\n      dup3\n        /* \"#utility.yul\":12668:12686   */\n      add\n        /* \"#utility.yul\":12660:12686   */\n      swap1\n      pop\n        /* \"#utility.yul\":12696:12767   */\n      tag_396\n        /* \"#utility.yul\":12764:12765   */\n      0x00\n        /* \"#utility.yul\":12753:12762   */\n      dup4\n        /* \"#utility.yul\":12749:12766   */\n      add\n        /* \"#utility.yul\":12740:12746   */\n      dup5\n        /* \"#utility.yul\":12696:12767   */\n      tag_216\n      jump\t// in\n    tag_396:\n        /* \"#utility.yul\":12552:12774   */\n      swap3\n      swap2\n      pop\n      pop\n      jump\t// out\n        /* \"#utility.yul\":12780:13254   */\n    tag_56:\n        /* \"#utility.yul\":12848:12854   */\n      0x00\n        /* \"#utility.yul\":12856:12862   */\n      0x00\n        /* \"#utility.yul\":12905:12907   */\n      0x40\n        /* \"#utility.yul\":12893:12902   */\n      dup4\n        /* \"#utility.yul\":12884:12891   */\n      dup6\n        /* \"#utility.yul\":12880:12903   */\n      sub\n        /* \"#utility.yul\":12876:12908   */\n      slt\n        /* \"#utility.yul\":12873:12992   */\n      iszero\n      tag_398\n      jumpi\n        /* \"#utility.yul\":12911:12990   */\n      tag_399\n      tag_198\n      jump\t// in\n    tag_399:\n        /* \"#utility.yul\":12873:12992   */\n    tag_398:\n        /* \"#utility.yul\":13031:13032   */\n      0x00\n        /* \"#utility.yul\":13056:13109   */\n      tag_400\n        /* \"#utility.yul\":13101:13108   */\n      dup6\n        /* \"#utility.yul\":13092:13098   */\n      dup3\n        /* \"#utility.yul\":13081:13090   */\n      dup7\n        /* \"#utility.yul\":13077:13099   */\n      add\n        /* \"#utility.yul\":13056:13109   */\n      tag_222\n      jump\t// in\n    tag_400:\n        /* \"#utility.yul\":13046:13109   */\n      swap3\n      pop\n        /* \"#utility.yul\":13002:13119   */\n      pop\n        /* \"#utility.yul\":13158:13160   */\n      0x20\n        /* \"#utility.yul\":13184:13237   */\n      tag_401\n        /* \"#utility.yul\":13229:13236   */\n      dup6\n        /* \"#utility.yul\":13220:13226   */\n      dup3\n        /* \"#utility.yul\":13209:13218   */\n      dup7\n        /* \"#utility.yul\":13205:13227   */\n      add\n        /* \"#utility.yul\":13184:13237   */\n      tag_224\n      jump\t// in\n    tag_401:\n        /* \"#utility.yul\":13174:13237   */\n      swap2\n      pop\n        /* \"#utility.yul\":13129:13247   */\n      pop\n        /* \"#utility.yul\":12780:13254   */\n      swap3\n      pop\n      swap3\n      swap1\n      pop\n      jump\t// out\n        /* \"#utility.yul\":13260:13440   */\n    tag_233:\n        /* \"#utility.yul\":13308:13385   */\n      0x4e487b7100000000000000000000000000000000000000000000000000000000\n        /* \"#utility.yul\":13305:13306   */\n      0x00\n        /* \"#utility.yul\":13298:13386   */\n      mstore\n        /* \"#utility.yul\":13405:13409   */\n      0x22\n        /* \"#utility.yul\":13402:13403   */\n      0x04\n        /* \"#utility.yul\":13395:13410   */\n      mstore\n        /* \"#utility.yul\":13429:13433   */\n      0x24\n        /* \"#utility.yul\":13426:13427   */\n      0x00\n        /* \"#utility.yul\":13419:13434   */\n      revert\n        /* \"#utility.yul\":13446:13766   */\n    tag_68:\n        /* \"#utility.yul\":13490:13496   */\n      0x00\n        /* \"#utility.yul\":13527:13528   */\n      0x02\n        /* \"#utility.yul\":13521:13525   */\n      dup3\n        /* \"#utility.yul\":13517:13529   */\n      div\n        /* \"#utility.yul\":13507:13529   */\n      swap1\n      pop\n        /* \"#utility.yul\":13574:13575   */\n      0x01\n        /* \"#utility.yul\":13568:13572   */\n      dup3\n        /* \"#utility.yul\":13564:13576   */\n      and\n        /* \"#utility.yul\":13595:13613   */\n      dup1\n        /* \"#utility.yul\":13585:13666   */\n      tag_404\n      jumpi\n        /* \"#utility.yul\":13651:13655   */\n      0x7f\n        /* \"#utility.yul\":13643:13649   */\n      dup3\n        /* \"#utility.yul\":13639:13656   */\n      and\n        /* \"#utility.yul\":13629:13656   */\n      swap2\n      pop\n        /* \"#utility.yul\":13585:13666   */\n    tag_404:\n        /* \"#utility.yul\":13713:13715   */\n      0x20\n        /* \"#utility.yul\":13705:13711   */\n      dup3\n        /* \"#utility.yul\":13702:13716   */\n      lt\n        /* \"#utility.yul\":13682:13700   */\n      dup2\n        /* \"#utility.yul\":13679:13717   */\n      sub\n        /* \"#utility.yul\":13676:13760   */\n      tag_405\n      jumpi\n        /* \"#utility.yul\":13732:13750   */\n      tag_406\n      tag_233\n      jump\t// in\n    tag_406:\n        /* \"#utility.yul\":13676:13760   */\n    tag_405:\n        /* \"#utility.yul\":13497:13766   */\n      pop\n        /* \"#utility.yul\":13446:13766   */\n      swap2\n      swap1\n      pop\n      jump\t// out\n        /* \"#utility.yul\":13772:13992   */\n    tag_234:\n        /* \"#utility.yul\":13912:13946   */\n      0x4f6e6c79206f776e65722063616e2063616c6c20746869732066756e6374696f\n        /* \"#utility.yul\":13908:13909   */\n      0x00\n        /* \"#utility.yul\":13900:13906   */\n      dup3\n        /* \"#utility.yul\":13896:13910   */\n      add\n        /* \"#utility.yul\":13889:13947   */\n      mstore\n        /* \"#utility.yul\":13981:13984   */\n      0x6e00000000000000000000000000000000000000000000000000000000000000\n        /* \"#utility.yul\":13976:13978   */\n      0x20\n        /* \"#utility.yul\":13968:13974   */\n      dup3\n        /* \"#utility.yul\":13964:13979   */\n      add\n        /* \"#utility.yul\":13957:13985   */\n      mstore\n        /* \"#utility.yul\":13772:13992   */\n      pop\n      jump\t// out\n        /* \"#utility.yul\":13998:14364   */\n    tag_235:\n        /* \"#utility.yul\":14140:14143   */\n      0x00\n        /* \"#utility.yul\":14161:14228   */\n      tag_409\n        /* \"#utility.yul\":14225:14227   */\n      0x21\n        /* \"#utility.yul\":14220:14223   */\n      dup4\n        /* \"#utility.yul\":14161:14228   */\n      tag_211\n      jump\t// in\n    tag_409:\n        /* \"#utility.yul\":14154:14228   */\n      swap2\n      pop\n        /* \"#utility.yul\":14237:14330   */\n      tag_410\n        /* \"#utility.yul\":14326:14329   */\n      dup3\n        /* \"#utility.yul\":14237:14330   */\n      tag_234\n      jump\t// in\n    tag_410:\n        /* \"#utility.yul\":14355:14357   */\n      0x40\n        /* \"#utility.yul\":14350:14353   */\n      dup3\n        /* \"#utility.yul\":14346:14358   */\n      add\n        /* \"#utility.yul\":14339:14358   */\n      swap1\n      pop\n        /* \"#utility.yul\":13998:14364   */\n      swap2\n      swap1\n      pop\n      jump\t// out\n        /* \"#utility.yul\":14370:14789   */\n    tag_91:\n        /* \"#utility.yul\":14536:14540   */\n      0x00\n        /* \"#utility.yul\":14574:14576   */\n      0x20\n        /* \"#utility.yul\":14563:14572   */\n      dup3\n        /* \"#utility.yul\":14559:14577   */\n      add\n        /* \"#utility.yul\":14551:14577   */\n      swap1\n      pop\n        /* \"#utility.yul\":14623:14632   */\n      dup2\n        /* \"#utility.yul\":14617:14621   */\n      dup2\n        /* \"#utility.yul\":14613:14633   */\n      sub\n        /* \"#utility.yul\":14609:14610   */\n      0x00\n        /* \"#utility.yul\":14598:14607   */\n      dup4\n        /* \"#utility.yul\":14594:14611   */\n      add\n        /* \"#utility.yul\":14587:14634   */\n      mstore\n        /* \"#utility.yul\":14651:14782   */\n      tag_412\n        /* \"#utility.yul\":14777:14781   */\n      dup2\n        /* \"#utility.yul\":14651:14782   */\n      tag_235\n      jump\t// in\n    tag_412:\n        /* \"#utility.yul\":14643:14782   */\n      swap1\n      pop\n        /* \"#utility.yul\":14370:14789   */\n      swap2\n      swap1\n      pop\n      jump\t// out\n        /* \"#utility.yul\":14795:14962   */\n    tag_236:\n        /* \"#utility.yul\":14935:14954   */\n      0x4f72646572204944207265717569726564000000000000000000000000000000\n        /* \"#utility.yul\":14931:14932   */\n      0x00\n        /* \"#utility.yul\":14923:14929   */\n      dup3\n        /* \"#utility.yul\":14919:14933   */\n      add\n        /* \"#utility.yul\":14912:14955   */\n      mstore\n        /* \"#utility.yul\":14795:14962   */\n      pop\n      jump\t// out\n        /* \"#utility.yul\":14968:15334   */\n    tag_237:\n        /* \"#utility.yul\":15110:15113   */\n      0x00\n        /* \"#utility.yul\":15131:15198   */\n      tag_415\n        /* \"#utility.yul\":15195:15197   */\n      0x11\n        /* \"#utility.yul\":15190:15193   */\n      dup4\n        /* \"#utility.yul\":15131:15198   */\n      tag_211\n      jump\t// in\n    tag_415:\n        /* \"#utility.yul\":15124:15198   */\n      swap2\n      pop\n        /* \"#utility.yul\":15207:15300   */\n      tag_416\n        /* \"#utility.yul\":15296:15299   */\n      dup3\n        /* \"#utility.yul\":15207:15300   */\n      tag_236\n      jump\t// in\n    tag_416:\n        /* \"#utility.yul\":15325:15327   */\n      0x20\n        /* \"#utility.yul\":15320:15323   */\n      dup3\n        /* \"#utility.yul\":15316:15328   */\n      add\n        /* \"#utility.yul\":15309:15328   */\n      swap1\n      pop\n        /* \"#utility.yul\":14968:15334   */\n      swap2\n      swap1\n      pop\n      jump\t// out\n        /* \"#utility.yul\":15340:15759   */\n    tag_95:\n        /* \"#utility.yul\":15506:15510   */\n      0x00\n        /* \"#utility.yul\":15544:15546   */\n      0x20\n        /* \"#utility.yul\":15533:15542   */\n      dup3\n        /* \"#utility.yul\":15529:15547   */\n      add\n        /* \"#utility.yul\":15521:15547   */\n      swap1\n      pop\n        /* \"#utility.yul\":15593:15602   */\n      dup2\n        /* \"#utility.yul\":15587:15591   */\n      dup2\n        /* \"#utility.yul\":15583:15603   */\n      sub\n        /* \"#utility.yul\":15579:15580   */\n      0x00\n        /* \"#utility.yul\":15568:15577   */\n      dup4\n        /* \"#utility.yul\":15564:15581   */\n      add\n        /* \"#utility.yul\":15557:15604   */\n      mstore\n        /* \"#utility.yul\":15621:15752   */\n      tag_418\n        /* \"#utility.yul\":15747:15751   */\n      dup2\n        /* \"#utility.yul\":15621:15752   */\n      tag_237\n      jump\t// in\n    tag_418:\n        /* \"#utility.yul\":15613:15752   */\n      swap1\n      pop\n        /* \"#utility.yul\":15340:15759   */\n      swap2\n      swap1\n      pop\n      jump\t// out\n        /* \"#utility.yul\":15765:15941   */\n    tag_238:\n        /* \"#utility.yul\":15905:15933   */\n      0x5061796d656e74207265666572656e6365207265717569726564000000000000\n        /* \"#utility.yul\":15901:15902   */\n      0x00\n        /* \"#utility.yul\":15893:15899   */\n      dup3\n        /* \"#utility.yul\":15889:15903   */\n      add\n        /* \"#utility.yul\":15882:15934   */\n      mstore\n        /* \"#utility.yul\":15765:15941   */\n      pop\n      jump\t// out\n        /* \"#utility.yul\":15947:16313   */\n    tag_239:\n        /* \"#utility.yul\":16089:16092   */\n      0x00\n        /* \"#utility.yul\":16110:16177   */\n      tag_421\n        /* \"#utility.yul\":16174:16176   */\n      0x1a\n        /* \"#utility.yul\":16169:16172   */\n      dup4\n        /* \"#utility.yul\":16110:16177   */\n      tag_211\n      jump\t// in\n    tag_421:\n        /* \"#utility.yul\":16103:16177   */\n      swap2\n      pop\n        /* \"#utility.yul\":16186:16279   */\n      tag_422\n        /* \"#utility.yul\":16275:16278   */\n      dup3\n        /* \"#utility.yul\":16186:16279   */\n      tag_238\n      jump\t// in\n    tag_422:\n        /* \"#utility.yul\":16304:16306   */\n      0x20\n        /* \"#utility.yul\":16299:16302   */\n      dup3\n        /* \"#utility.yul\":16295:16307   */\n      add\n        /* \"#utility.yul\":16288:16307   */\n      swap1\n      pop\n        /* \"#utility.yul\":15947:16313   */\n      swap2\n      swap1\n      pop\n      jump\t// out\n        /* \"#utility.yul\":16319:16738   */\n    tag_98:\n        /* \"#utility.yul\":16485:16489   */\n      0x00\n        /* \"#utility.yul\":16523:16525   */\n      0x20\n        /* \"#utility.yul\":16512:16521   */\n      dup3\n        /* \"#utility.yul\":16508:16526   */\n      add\n        /* \"#utility.yul\":16500:16526   */\n      swap1\n      pop\n        /* \"#utility.yul\":16572:16581   */\n      dup2\n        /* \"#utility.yul\":16566:16570   */\n      dup2\n        /* \"#utility.yul\":16562:16582   */\n      sub\n        /* \"#utility.yul\":16558:16559   */\n      0x00\n        /* \"#utility.yul\":16547:16556   */\n      dup4\n        /* \"#utility.yul\":16543:16560   */\n      add\n        /* \"#utility.yul\":16536:16583   */\n      mstore\n        /* \"#utility.yul\":16600:16731   */\n      tag_424\n        /* \"#utility.yul\":16726:16730   */\n      dup2\n        /* \"#utility.yul\":16600:16731   */\n      tag_239\n      jump\t// in\n    tag_424:\n        /* \"#utility.yul\":16592:16731   */\n      swap1\n      pop\n        /* \"#utility.yul\":16319:16738   */\n      swap2\n      swap1\n      pop\n      jump\t// out\n        /* \"#utility.yul\":16744:16909   */\n    tag_240:\n        /* \"#utility.yul\":16884:16901   */\n      0x416d6f756e742072657175697265640000000000000000000000000000000000\n        /* \"#utility.yul\":16880:16881   */\n      0x00\n        /* \"#utility.yul\":16872:16878   */\n      dup3\n        /* \"#utility.yul\":16868:16882   */\n      add\n        /* \"#utility.yul\":16861:16902   */\n      mstore\n        /* \"#utility.yul\":16744:16909   */\n      pop\n      jump\t// out\n        /* \"#utility.yul\":16915:17281   */\n    tag_241:\n        /* \"#utility.yul\":17057:17060   */\n      0x00\n        /* \"#utility.yul\":17078:17145   */\n      tag_427\n        /* \"#utility.yul\":17142:17144   */\n      0x0f\n        /* \"#utility.yul\":17137:17140   */\n      dup4\n        /* \"#utility.yul\":17078:17145   */\n      tag_211\n      jump\t// in\n    tag_427:\n        /* \"#utility.yul\":17071:17145   */\n      swap2\n      pop\n        /* \"#utility.yul\":17154:17247   */\n      tag_428\n        /* \"#utility.yul\":17243:17246   */\n      dup3\n        /* \"#utility.yul\":17154:17247   */\n      tag_240\n      jump\t// in\n    tag_428:\n        /* \"#utility.yul\":17272:17274   */\n      0x20\n        /* \"#utility.yul\":17267:17270   */\n      dup3\n        /* \"#utility.yul\":17263:17275   */\n      add\n        /* \"#utility.yul\":17256:17275   */\n      swap1\n      pop\n        /* \"#utility.yul\":16915:17281   */\n      swap2\n      swap1\n      pop\n      jump\t// out\n        /* \"#utility.yul\":17287:17706   */\n    tag_101:\n        /* \"#utility.yul\":17453:17457   */\n      0x00\n        /* \"#utility.yul\":17491:17493   */\n      0x20\n        /* \"#utility.yul\":17480:17489   */\n      dup3\n        /* \"#utility.yul\":17476:17494   */\n      add\n        /* \"#utility.yul\":17468:17494   */\n      swap1\n      pop\n        /* \"#utility.yul\":17540:17549   */\n      dup2\n        /* \"#utility.yul\":17534:17538   */\n      dup2\n        /* \"#utility.yul\":17530:17550   */\n      sub\n        /* \"#utility.yul\":17526:17527   */\n      0x00\n        /* \"#utility.yul\":17515:17524   */\n      dup4\n        /* \"#utility.yul\":17511:17528   */\n      add\n        /* \"#utility.yul\":17504:17551   */\n      mstore\n        /* \"#utility.yul\":17568:17699   */\n      tag_430\n        /* \"#utility.yul\":17694:17698   */\n      dup2\n        /* \"#utility.yul\":17568:17699   */\n      tag_241\n      jump\t// in\n    tag_430:\n        /* \"#utility.yul\":17560:17699   */\n      swap1\n      pop\n        /* \"#utility.yul\":17287:17706   */\n      swap2\n      swap1\n      pop\n      jump\t// out\n        /* \"#utility.yul\":17712:17883   */\n    tag_242:\n        /* \"#utility.yul\":17852:17875   */\n      0x496e76616c696420627579657220616464726573730000000000000000000000\n        /* \"#utility.yul\":17848:17849   */\n      0x00\n        /* \"#utility.yul\":17840:17846   */\n      dup3\n        /* \"#utility.yul\":17836:17850   */\n      add\n        /* \"#utility.yul\":17829:17876   */\n      mstore\n        /* \"#utility.yul\":17712:17883   */\n      pop\n      jump\t// out\n        /* \"#utility.yul\":17889:18255   */\n    tag_243:\n        /* \"#utility.yul\":18031:18034   */\n      0x00\n        /* \"#utility.yul\":18052:18119   */\n      tag_433\n        /* \"#utility.yul\":18116:18118   */\n      0x15\n        /* \"#utility.yul\":18111:18114   */\n      dup4\n        /* \"#utility.yul\":18052:18119   */\n      tag_211\n      jump\t// in\n    tag_433:\n        /* \"#utility.yul\":18045:18119   */\n      swap2\n      pop\n        /* \"#utility.yul\":18128:18221   */\n      tag_434\n        /* \"#utility.yul\":18217:18220   */\n      dup3\n        /* \"#utility.yul\":18128:18221   */\n      tag_242\n      jump\t// in\n    tag_434:\n        /* \"#utility.yul\":18246:18248   */\n      0x20\n        /* \"#utility.yul\":18241:18244   */\n      dup3\n        /* \"#utility.yul\":18237:18249   */\n      add\n        /* \"#utility.yul\":18230:18249   */\n      swap1\n      pop\n        /* \"#utility.yul\":17889:18255   */\n      swap2\n      swap1\n      pop\n      jump\t// out\n        /* \"#utility.yul\":18261:18680   */\n    tag_104:\n        /* \"#utility.yul\":18427:18431   */\n      0x00\n        /* \"#utility.yul\":18465:18467   */\n      0x20\n        /* \"#utility.yul\":18454:18463   */\n      dup3\n        /* \"#utility.yul\":18450:18468   */\n      add\n        /* \"#utility.yul\":18442:18468   */\n      swap1\n      pop\n        /* \"#utility.yul\":18514:18523   */\n      dup2\n        /* \"#utility.yul\":18508:18512   */\n      dup2\n        /* \"#utility.yul\":18504:18524   */\n      sub\n        /* \"#utility.yul\":18500:18501   */\n      0x00\n        /* \"#utility.yul\":18489:18498   */\n      dup4\n        /* \"#utility.yul\":18485:18502   */\n      add\n        /* \"#utility.yul\":18478:18525   */\n      mstore\n        /* \"#utility.yul\":18542:18673   */\n      tag_436\n        /* \"#utility.yul\":18668:18672   */\n      dup2\n        /* \"#utility.yul\":18542:18673   */\n      tag_243\n      jump\t// in\n    tag_436:\n        /* \"#utility.yul\":18534:18673   */\n      swap1\n      pop\n        /* \"#utility.yul\":18261:18680   */\n      swap2\n      swap1\n      pop\n      jump\t// out\n        /* \"#utility.yul\":18686:18860   */\n    tag_244:\n        /* \"#utility.yul\":18826:18852   */\n      0x496e76616c69642070726f647563657220616464726573730000000000000000\n        /* \"#utility.yul\":18822:18823   */\n      0x00\n        /* \"#utility.yul\":18814:18820   */\n      dup3\n        /* \"#utility.yul\":18810:18824   */\n      add\n        /* \"#utility.yul\":18803:18853   */\n      mstore\n        /* \"#utility.yul\":18686:18860   */\n      pop\n      jump\t// out\n        /* \"#utility.yul\":18866:19232   */\n    tag_245:\n        /* \"#utility.yul\":19008:19011   */\n      0x00\n        /* \"#utility.yul\":19029:19096   */\n      tag_439\n        /* \"#utility.yul\":19093:19095   */\n      0x18\n        /* \"#utility.yul\":19088:19091   */\n      dup4\n        /* \"#utility.yul\":19029:19096   */\n      tag_211\n      jump\t// in\n    tag_439:\n        /* \"#utility.yul\":19022:19096   */\n      swap2\n      pop\n        /* \"#utility.yul\":19105:19198   */\n      tag_440\n        /* \"#utility.yul\":19194:19197   */\n      dup3\n        /* \"#utility.yul\":19105:19198   */\n      tag_244\n      jump\t// in\n    tag_440:\n        /* \"#utility.yul\":19223:19225   */\n      0x20\n        /* \"#utility.yul\":19218:19221   */\n      dup3\n        /* \"#utility.yul\":19214:19226   */\n      add\n        /* \"#utility.yul\":19207:19226   */\n      swap1\n      pop\n        /* \"#utility.yul\":18866:19232   */\n      swap2\n      swap1\n      pop\n      jump\t// out\n        /* \"#utility.yul\":19238:19657   */\n    tag_107:\n        /* \"#utility.yul\":19404:19408   */\n      0x00\n        /* \"#utility.yul\":19442:19444   */\n      0x20\n        /* \"#utility.yul\":19431:19440   */\n      dup3\n        /* \"#utility.yul\":19427:19445   */\n      add\n        /* \"#utility.yul\":19419:19445   */\n      swap1\n      pop\n        /* \"#utility.yul\":19491:19500   */\n      dup2\n        /* \"#utility.yul\":19485:19489   */\n      dup2\n        /* \"#utility.yul\":19481:19501   */\n      sub\n        /* \"#utility.yul\":19477:19478   */\n      0x00\n        /* \"#utility.yul\":19466:19475   */\n      dup4\n        /* \"#utility.yul\":19462:19479   */\n      add\n        /* \"#utility.yul\":19455:19502   */\n      mstore\n        /* \"#utility.yul\":19519:19650   */\n      tag_442\n        /* \"#utility.yul\":19645:19649   */\n      dup2\n        /* \"#utility.yul\":19519:19650   */\n      tag_245\n      jump\t// in\n    tag_442:\n        /* \"#utility.yul\":19511:19650   */\n      swap1\n      pop\n        /* \"#utility.yul\":19238:19657   */\n      swap2\n      swap1\n      pop\n      jump\t// out\n        /* \"#utility.yul\":19663:19811   */\n    tag_246:\n        /* \"#utility.yul\":19765:19776   */\n      0x00\n        /* \"#utility.yul\":19802:19805   */\n      dup2\n        /* \"#utility.yul\":19787:19805   */\n      swap1\n      pop\n        /* \"#utility.yul\":19663:19811   */\n      swap3\n      swap2\n      pop\n      pop\n      jump\t// out\n        /* \"#utility.yul\":19817:20207   */\n    tag_247:\n        /* \"#utility.yul\":19923:19926   */\n      0x00\n        /* \"#utility.yul\":19951:19990   */\n      tag_445\n        /* \"#utility.yul\":19984:19989   */\n      dup3\n        /* \"#utility.yul\":19951:19990   */\n      tag_210\n      jump\t// in\n    tag_445:\n        /* \"#utility.yul\":20006:20095   */\n      tag_446\n        /* \"#utility.yul\":20088:20094   */\n      dup2\n        /* \"#utility.yul\":20083:20086   */\n      dup6\n        /* \"#utility.yul\":20006:20095   */\n      tag_246\n      jump\t// in\n    tag_446:\n        /* \"#utility.yul\":19999:20095   */\n      swap4\n      pop\n        /* \"#utility.yul\":20104:20169   */\n      tag_447\n        /* \"#utility.yul\":20162:20168   */\n      dup2\n        /* \"#utility.yul\":20157:20160   */\n      dup6\n        /* \"#utility.yul\":20150:20154   */\n      0x20\n        /* \"#utility.yul\":20143:20148   */\n      dup7\n        /* \"#utility.yul\":20139:20155   */\n      add\n        /* \"#utility.yul\":20104:20169   */\n      tag_212\n      jump\t// in\n    tag_447:\n        /* \"#utility.yul\":20194:20200   */\n      dup1\n        /* \"#utility.yul\":20189:20192   */\n      dup5\n        /* \"#utility.yul\":20185:20201   */\n      add\n        /* \"#utility.yul\":20178:20201   */\n      swap2\n      pop\n        /* \"#utility.yul\":19927:20207   */\n      pop\n        /* \"#utility.yul\":19817:20207   */\n      swap3\n      swap2\n      pop\n      pop\n      jump\t// out\n        /* \"#utility.yul\":20213:20488   */\n    tag_109:\n        /* \"#utility.yul\":20345:20348   */\n      0x00\n        /* \"#utility.yul\":20367:20462   */\n      tag_449\n        /* \"#utility.yul\":20458:20461   */\n      dup3\n        /* \"#utility.yul\":20449:20455   */\n      dup5\n        /* \"#utility.yul\":20367:20462   */\n      tag_247\n      jump\t// in\n    tag_449:\n        /* \"#utility.yul\":20360:20462   */\n      swap2\n      pop\n        /* \"#utility.yul\":20479:20482   */\n      dup2\n        /* \"#utility.yul\":20472:20482   */\n      swap1\n      pop\n        /* \"#utility.yul\":20213:20488   */\n      swap3\n      swap2\n      pop\n      pop\n      jump\t// out\n        /* \"#utility.yul\":20494:20672   */\n    tag_248:\n        /* \"#utility.yul\":20634:20664   */\n      0x5472616e73616374696f6e20616c7265616479207265636f7264656400000000\n        /* \"#utility.yul\":20630:20631   */\n      0x00\n        /* \"#utility.yul\":20622:20628   */\n      dup3\n        /* \"#utility.yul\":20618:20632   */\n      add\n        /* \"#utility.yul\":20611:20665   */\n      mstore\n        /* \"#utility.yul\":20494:20672   */\n      pop\n      jump\t// out\n        /* \"#utility.yul\":20678:21044   */\n    tag_249:\n        /* \"#utility.yul\":20820:20823   */\n      0x00\n        /* \"#utility.yul\":20841:20908   */\n      tag_452\n        /* \"#utility.yul\":20905:20907   */\n      0x1c\n        /* \"#utility.yul\":20900:20903   */\n      dup4\n        /* \"#utility.yul\":20841:20908   */\n      tag_211\n      jump\t// in\n    tag_452:\n        /* \"#utility.yul\":20834:20908   */\n      swap2\n      pop\n        /* \"#utility.yul\":20917:21010   */\n      tag_453\n        /* \"#utility.yul\":21006:21009   */\n      dup3\n        /* \"#utility.yul\":20917:21010   */\n      tag_248\n      jump\t// in\n    tag_453:\n        /* \"#utility.yul\":21035:21037   */\n      0x20\n        /* \"#utility.yul\":21030:21033   */\n      dup3\n        /* \"#utility.yul\":21026:21038   */\n      add\n        /* \"#utility.yul\":21019:21038   */\n      swap1\n      pop\n        /* \"#utility.yul\":20678:21044   */\n      swap2\n      swap1\n      pop\n      jump\t// out\n        /* \"#utility.yul\":21050:21469   */\n    tag_113:\n        /* \"#utility.yul\":21216:21220   */\n      0x00\n        /* \"#utility.yul\":21254:21256   */\n      0x20\n        /* \"#utility.yul\":21243:21252   */\n      dup3\n        /* \"#utility.yul\":21239:21257   */\n      add\n        /* \"#utility.yul\":21231:21257   */\n      swap1\n      pop\n        /* \"#utility.yul\":21303:21312   */\n      dup2\n        /* \"#utility.yul\":21297:21301   */\n      dup2\n        /* \"#utility.yul\":21293:21313   */\n      sub\n        /* \"#utility.yul\":21289:21290   */\n      0x00\n        /* \"#utility.yul\":21278:21287   */\n      dup4\n        /* \"#utility.yul\":21274:21291   */\n      add\n        /* \"#utility.yul\":21267:21314   */\n      mstore\n        /* \"#utility.yul\":21331:21462   */\n      tag_455\n        /* \"#utility.yul\":21457:21461   */\n      dup2\n        /* \"#utility.yul\":21331:21462   */\n      tag_249\n      jump\t// in\n    tag_455:\n        /* \"#utility.yul\":21323:21462   */\n      swap1\n      pop\n        /* \"#utility.yul\":21050:21469   */\n      swap2\n      swap1\n      pop\n      jump\t// out\n        /* \"#utility.yul\":21475:21616   */\n    tag_250:\n        /* \"#utility.yul\":21524:21528   */\n      0x00\n        /* \"#utility.yul\":21547:21550   */\n      dup2\n        /* \"#utility.yul\":21539:21550   */\n      swap1\n      pop\n        /* \"#utility.yul\":21570:21573   */\n      dup2\n        /* \"#utility.yul\":21567:21568   */\n      0x00\n        /* \"#utility.yul\":21560:21574   */\n      mstore\n        /* \"#utility.yul\":21604:21608   */\n      0x20\n        /* \"#utility.yul\":21601:21602   */\n      0x00\n        /* \"#utility.yul\":21591:21609   */\n      keccak256\n        /* \"#utility.yul\":21583:21609   */\n      swap1\n      pop\n        /* \"#utility.yul\":21475:21616   */\n      swap2\n      swap1\n      pop\n      jump\t// out\n        /* \"#utility.yul\":21622:21715   */\n    tag_251:\n        /* \"#utility.yul\":21659:21665   */\n      0x00\n        /* \"#utility.yul\":21706:21708   */\n      0x20\n        /* \"#utility.yul\":21701:21703   */\n      0x1f\n        /* \"#utility.yul\":21694:21699   */\n      dup4\n        /* \"#utility.yul\":21690:21704   */\n      add\n        /* \"#utility.yul\":21686:21709   */\n      div\n        /* \"#utility.yul\":21676:21709   */\n      swap1\n      pop\n        /* \"#utility.yul\":21622:21715   */\n      swap2\n      swap1\n      pop\n      jump\t// out\n        /* \"#utility.yul\":21721:21828   */\n    tag_252:\n        /* \"#utility.yul\":21765:21773   */\n      0x00\n        /* \"#utility.yul\":21815:21820   */\n      dup3\n        /* \"#utility.yul\":21809:21813   */\n      dup3\n        /* \"#utility.yul\":21805:21821   */\n      shl\n        /* \"#utility.yul\":21784:21821   */\n      swap1\n      pop\n        /* \"#utility.yul\":21721:21828   */\n      swap3\n      swap2\n      pop\n      pop\n      jump\t// out\n        /* \"#utility.yul\":21834:22227   */\n    tag_253:\n        /* \"#utility.yul\":21903:21909   */\n      0x00\n        /* \"#utility.yul\":21953:21954   */\n      0x08\n        /* \"#utility.yul\":21941:21951   */\n      dup4\n        /* \"#utility.yul\":21937:21955   */\n      mul\n        /* \"#utility.yul\":21976:22073   */\n      tag_460\n        /* \"#utility.yul\":22006:22072   */\n      0xffffffffffffffffffffffffffffffffffffffffffffffffffffffffffffffff\n        /* \"#utility.yul\":21995:22004   */\n      dup3\n        /* \"#utility.yul\":21976:22073   */\n      tag_252\n      jump\t// in\n    tag_460:\n        /* \"#utility.yul\":22094:22133   */\n      tag_461\n        /* \"#utility.yul\":22124:22132   */\n      dup7\n        /* \"#utility.yul\":22113:22122   */\n      dup4\n        /* \"#utility.yul\":22094:22133   */\n      tag_252\n      jump\t// in\n    tag_461:\n        /* \"#utility.yul\":22082:22133   */\n      swap6\n      pop\n        /* \"#utility.yul\":22166:22170   */\n      dup1\n        /* \"#utility.yul\":22162:22171   */\n      not\n        /* \"#utility.yul\":22155:22160   */\n      dup5\n        /* \"#utility.yul\":22151:22172   */\n      and\n        /* \"#utility.yul\":22142:22172   */\n      swap4\n      pop\n        /* \"#utility.yul\":22215:22219   */\n      dup1\n        /* \"#utility.yul\":22205:22213   */\n      dup7\n        /* \"#utility.yul\":22201:22220   */\n      and\n        /* \"#utility.yul\":22194:22199   */\n      dup5\n        /* \"#utility.yul\":22191:22221   */\n      or\n        /* \"#utility.yul\":22181:22221   */\n      swap3\n      pop\n        /* \"#utility.yul\":21910:22227   */\n      pop\n      pop\n        /* \"#utility.yul\":21834:22227   */\n      swap4\n      swap3\n      pop\n      pop\n      pop\n      jump\t// out\n        /* \"#utility.yul\":22233:22293   */\n    tag_254:\n        /* \"#utility.yul\":22261:22264   */\n      0x00\n        /* \"#utility.yul\":22282:22287   */\n      dup2\n        /* \"#utility.yul\":22275:22287   */\n      swap1\n      pop\n        /* \"#utility.yul\":22233:22293   */\n      swap2\n      swap1\n      pop\n      jump\t// out\n        /* \"#utility.yul\":22299:22441   */\n    tag_255:\n        /* \"#utility.yul\":22349:22358   */\n      0x00\n        /* \"#utility.yul\":22382:22435   */\n      tag_464\n        /* \"#utility.yul\":22400:22434   */\n      tag_465\n        /* \"#utility.yul\":22409:22433   */\n      tag_466\n        /* \"#utility.yul\":22427:22432   */\n      dup5\n        /* \"#utility.yul\":22409:22433   */\n      tag_217\n      jump\t// in\n    tag_466:\n        /* \"#utility.yul\":22400:22434   */\n      tag_254\n      jump\t// in\n    tag_465:\n        /* \"#utility.yul\":22382:22435   */\n      tag_217\n      jump\t// in\n    tag_464:\n        /* \"#utility.yul\":22369:22435   */\n      swap1\n      pop\n        /* \"#utility.yul\":22299:22441   */\n      swap2\n      swap1\n      pop\n      jump\t// out\n        /* \"#utility.yul\":22447:22522   */\n    tag_256:\n        /* \"#utility.yul\":22490:22493   */\n      0x00\n        /* \"#utility.yul\":22511:22516   */\n      dup2\n        /* \"#utility.yul\":22504:22516   */\n      swap1\n      pop\n        /* \"#utility.yul\":22447:22522   */\n      swap2\n      swap1\n      pop\n      jump\t// out\n        /* \"#utility.yul\":22528:22797   */\n    tag_257:\n        /* \"#utility.yul\":22638:22677   */\n      tag_469\n        /* \"#utility.yul\":22669:22676   */\n      dup4\n        /* \"#utility.yul\":22638:22677   */\n      tag_255\n      jump\t// in\n    tag_469:\n        /* \"#utility.yul\":22699:22790   */\n      tag_470\n        /* \"#utility.yul\":22748:22789   */\n      tag_471\n        /* \"#utility.yul\":22772:22788   */\n      dup3\n        /* \"#utility.yul\":22748:22789   */\n      tag_256\n      jump\t// in\n    tag_471:\n        /* \"#utility.yul\":22740:22746   */\n      dup5\n        /* \"#utility.yul\":22733:22737   */\n      dup5\n        /* \"#utility.yul\":22727:22738   */\n      sload\n        /* \"#utility.yul\":22699:22790   */\n      tag_253\n      jump\t// in\n    tag_470:\n        /* \"#utility.yul\":22693:22697   */\n      dup3\n        /* \"#utility.yul\":22686:22791   */\n      sstore\n        /* \"#utility.yul\":22604:22797   */\n      pop\n        /* \"#utility.yul\":22528:22797   */\n      pop\n      pop\n      pop\n      jump\t// out\n        /* \"#utility.yul\":22803:22876   */\n    tag_258:\n        /* \"#utility.yul\":22848:22851   */\n      0x00\n        /* \"#utility.yul\":22869:22870   */\n      0x00\n        /* \"#utility.yul\":22862:22870   */\n      swap1\n      pop\n        /* \"#utility.yul\":22803:22876   */\n      swap1\n      jump\t// out\n        /* \"#utility.yul\":22882:23071   */\n    tag_259:\n        /* \"#utility.yul\":22959:22991   */\n      tag_474\n      tag_258\n      jump\t// in\n    tag_474:\n        /* \"#utility.yul\":23000:23065   */\n      tag_475\n        /* \"#utility.yul\":23058:23064   */\n      dup2\n        /* \"#utility.yul\":23050:23056   */\n      dup5\n        /* \"#utility.yul\":23044:23048   */\n      dup5\n        /* \"#utility.yul\":23000:23065   */\n      tag_257\n      jump\t// in\n    tag_475:\n        /* \"#utility.yul\":22935:23071   */\n      pop\n        /* \"#utility.yul\":22882:23071   */\n      pop\n      pop\n      jump\t// out\n        /* \"#utility.yul\":23077:23263   */\n    tag_260:\n        /* \"#utility.yul\":23137:23257   */\n    tag_477:\n        /* \"#utility.yul\":23154:23157   */\n      dup2\n        /* \"#utility.yul\":23147:23152   */\n      dup2\n        /* \"#utility.yul\":23144:23158   */\n      lt\n        /* \"#utility.yul\":23137:23257   */\n      iszero\n      tag_479\n      jumpi\n        /* \"#utility.yul\":23208:23247   */\n      tag_480\n        /* \"#utility.yul\":23245:23246   */\n      0x00\n        /* \"#utility.yul\":23238:23243   */\n      dup3\n        /* \"#utility.yul\":23208:23247   */\n      tag_259\n      jump\t// in\n    tag_480:\n        /* \"#utility.yul\":23181:23182   */\n      0x01\n        /* \"#utility.yul\":23174:23179   */\n      dup2\n        /* \"#utility.yul\":23170:23183   */\n      add\n        /* \"#utility.yul\":23161:23183   */\n      swap1\n      pop\n        /* \"#utility.yul\":23137:23257   */\n      jump(tag_477)\n    tag_479:\n        /* \"#utility.yul\":23077:23263   */\n      pop\n      pop\n      jump\t// out\n        /* \"#utility.yul\":23269:23812   */\n    tag_261:\n        /* \"#utility.yul\":23370:23372   */\n      0x1f\n        /* \"#utility.yul\":23365:23368   */\n      dup3\n        /* \"#utility.yul\":23362:23373   */\n      gt\n        /* \"#utility.yul\":23359:23805   */\n      iszero\n      tag_482\n      jumpi\n        /* \"#utility.yul\":23404:23442   */\n      tag_483\n        /* \"#utility.yul\":23436:23441   */\n      dup2\n        /* \"#utility.yul\":23404:23442   */\n      tag_250\n      jump\t// in\n    tag_483:\n        /* \"#utility.yul\":23488:23517   */\n      tag_484\n        /* \"#utility.yul\":23506:23516   */\n      dup5\n        /* \"#utility.yul\":23488:23517   */\n      tag_251\n      jump\t// in\n    tag_484:\n        /* \"#utility.yul\":23478:23486   */\n      dup2\n        /* \"#utility.yul\":23474:23518   */\n      add\n        /* \"#utility.yul\":23671:23673   */\n      0x20\n        /* \"#utility.yul\":23659:23669   */\n      dup6\n        /* \"#utility.yul\":23656:23674   */\n      lt\n        /* \"#utility.yul\":23653:23702   */\n      iszero\n      tag_485\n      jumpi\n        /* \"#utility.yul\":23692:23700   */\n      dup2\n        /* \"#utility.yul\":23677:23700   */\n      swap1\n      pop\n        /* \"#utility.yul\":23653:23702   */\n    tag_485:\n        /* \"#utility.yul\":23715:23795   */\n      tag_486\n        /* \"#utility.yul\":23771:23793   */\n      tag_487\n        /* \"#utility.yul\":23789:23792   */\n      dup6\n        /* \"#utility.yul\":23771:23793   */\n      tag_251\n      jump\t// in\n    tag_487:\n        /* \"#utility.yul\":23761:23769   */\n      dup4\n        /* \"#utility.yul\":23757:23794   */\n      add\n        /* \"#utility.yul\":23744:23755   */\n      dup3\n        /* \"#utility.yul\":23715:23795   */\n      tag_260\n      jump\t// in\n    tag_486:\n        /* \"#utility.yul\":23374:23805   */\n      pop\n      pop\n        /* \"#utility.yul\":23359:23805   */\n    tag_482:\n        /* \"#utility.yul\":23269:23812   */\n      pop\n      pop\n      pop\n      jump\t// out\n        /* \"#utility.yul\":23818:23935   */\n    tag_262:\n        /* \"#utility.yul\":23872:23880   */\n      0x00\n        /* \"#utility.yul\":23922:23927   */\n      dup3\n        /* \"#utility.yul\":23916:23920   */\n      dup3\n        /* \"#utility.yul\":23912:23928   */\n      shr\n        /* \"#utility.yul\":23891:23928   */\n      swap1\n      pop\n        /* \"#utility.yul\":23818:23935   */\n      swap3\n      swap2\n      pop\n      pop\n      jump\t// out\n        /* \"#utility.yul\":23941:24110   */\n    tag_263:\n        /* \"#utility.yul\":23985:23991   */\n      0x00\n        /* \"#utility.yul\":24018:24069   */\n      tag_490\n        /* \"#utility.yul\":24066:24067   */\n      0x00\n        /* \"#utility.yul\":24062:24068   */\n      not\n        /* \"#utility.yul\":24054:24059   */\n      dup5\n        /* \"#utility.yul\":24051:24052   */\n      0x08\n        /* \"#utility.yul\":24047:24060   */\n      mul\n        /* \"#utility.yul\":24018:24069   */\n      tag_262\n      jump\t// in\n    tag_490:\n        /* \"#utility.yul\":24014:24070   */\n      not\n        /* \"#utility.yul\":24099:24103   */\n      dup1\n        /* \"#utility.yul\":24093:24097   */\n      dup4\n        /* \"#utility.yul\":24089:24104   */\n      and\n        /* \"#utility.yul\":24079:24104   */\n      swap2\n      pop\n        /* \"#utility.yul\":23992:24110   */\n      pop\n        /* \"#utility.yul\":23941:24110   */\n      swap3\n      swap2\n      pop\n      pop\n      jump\t// out\n        /* \"#utility.yul\":24115:24410   */\n    tag_264:\n        /* \"#utility.yul\":24191:24195   */\n      0x00\n        /* \"#utility.yul\":24337:24366   */\n      tag_492\n        /* \"#utility.yul\":24362:24365   */\n      dup4\n        /* \"#utility.yul\":24356:24360   */\n      dup4\n        /* \"#utility.yul\":24337:24366   */\n      tag_263\n      jump\t// in\n    tag_492:\n        /* \"#utility.yul\":24329:24366   */\n      swap2\n      pop\n        /* \"#utility.yul\":24399:24402   */\n      dup3\n        /* \"#utility.yul\":24396:24397   */\n      0x02\n        /* \"#utility.yul\":24392:24403   */\n      mul\n        /* \"#utility.yul\":24386:24390   */\n      dup3\n        /* \"#utility.yul\":24383:24404   */\n      or\n        /* \"#utility.yul\":24375:24404   */\n      swap1\n      pop\n        /* \"#utility.yul\":24115:24410   */\n      swap3\n      swap2\n      pop\n      pop\n      jump\t// out\n        /* \"#utility.yul\":24415:25810   */\n    tag_116:\n        /* \"#utility.yul\":24532:24569   */\n      tag_494\n        /* \"#utility.yul\":24565:24568   */\n      dup3\n        /* \"#utility.yul\":24532:24569   */\n      tag_210\n      jump\t// in\n    tag_494:\n        /* \"#utility.yul\":24634:24652   */\n      0xffffffffffffffff\n        /* \"#utility.yul\":24626:24632   */\n      dup2\n        /* \"#utility.yul\":24623:24653   */\n      gt\n        /* \"#utility.yul\":24620:24676   */\n      iszero\n      tag_495\n      jumpi\n        /* \"#utility.yul\":24656:24674   */\n      tag_496\n      tag_203\n      jump\t// in\n    tag_496:\n        /* \"#utility.yul\":24620:24676   */\n    tag_495:\n        /* \"#utility.yul\":24700:24738   */\n      tag_497\n        /* \"#utility.yul\":24732:24736   */\n      dup3\n        /* \"#utility.yul\":24726:24737   */\n      sload\n        /* \"#utility.yul\":24700:24738   */\n      tag_68\n      jump\t// in\n    tag_497:\n        /* \"#utility.yul\":24785:24852   */\n      tag_498\n        /* \"#utility.yul\":24845:24851   */\n      dup3\n        /* \"#utility.yul\":24837:24843   */\n      dup3\n        /* \"#utility.yul\":24831:24835   */\n      dup6\n        /* \"#utility.yul\":24785:24852   */\n      tag_261\n      jump\t// in\n    tag_498:\n        /* \"#utility.yul\":24879:24880   */\n      0x00\n        /* \"#utility.yul\":24903:24907   */\n      0x20\n        /* \"#utility.yul\":24890:24907   */\n      swap1\n      pop\n        /* \"#utility.yul\":24935:24937   */\n      0x1f\n        /* \"#utility.yul\":24927:24933   */\n      dup4\n        /* \"#utility.yul\":24924:24938   */\n      gt\n        /* \"#utility.yul\":24952:24953   */\n      0x01\n        /* \"#utility.yul\":24947:25565   */\n      dup2\n      eq\n      tag_500\n      jumpi\n        /* \"#utility.yul\":25609:25610   */\n      0x00\n        /* \"#utility.yul\":25626:25632   */\n      dup5\n        /* \"#utility.yul\":25623:25700   */\n      iszero\n      tag_501\n      jumpi\n        /* \"#utility.yul\":25675:25684   */\n      dup3\n        /* \"#utility.yul\":25670:25673   */\n      dup8\n        /* \"#utility.yul\":25666:25685   */\n      add\n        /* \"#utility.yul\":25660:25686   */\n      mload\n        /* \"#utility.yul\":25651:25686   */\n      swap1\n      pop\n        /* \"#utility.yul\":25623:25700   */\n    tag_501:\n        /* \"#utility.yul\":25726:25793   */\n      tag_502\n        /* \"#utility.yul\":25786:25792   */\n      dup6\n        /* \"#utility.yul\":25779:25784   */\n      dup3\n        /* \"#utility.yul\":25726:25793   */\n      tag_264\n      jump\t// in\n    tag_502:\n        /* \"#utility.yul\":25720:25724   */\n      dup7\n        /* \"#utility.yul\":25713:25794   */\n      sstore\n        /* \"#utility.yul\":25582:25804   */\n      pop\n        /* \"#utility.yul\":24917:25804   */\n      jump(tag_499)\n        /* \"#utility.yul\":24947:25565   */\n    tag_500:\n        /* \"#utility.yul\":24999:25003   */\n      0x1f\n        /* \"#utility.yul\":24995:25004   */\n      not\n        /* \"#utility.yul\":24987:24993   */\n      dup5\n        /* \"#utility.yul\":24983:25005   */\n      and\n        /* \"#utility.yul\":25033:25070   */\n      tag_503\n        /* \"#utility.yul\":25065:25069   */\n      dup7\n        /* \"#utility.yul\":25033:25070   */\n      tag_250\n      jump\t// in\n    tag_503:\n        /* \"#utility.yul\":25092:25093   */\n      0x00\n        /* \"#utility.yul\":25106:25314   */\n    tag_504:\n        /* \"#utility.yul\":25120:25127   */\n      dup3\n        /* \"#utility.yul\":25117:25118   */\n      dup2\n        /* \"#utility.yul\":25114:25128   */\n      lt\n        /* \"#utility.yul\":25106:25314   */\n      iszero\n      tag_506\n      jumpi\n        /* \"#utility.yul\":25199:25208   */\n      dup5\n        /* \"#utility.yul\":25194:25197   */\n      dup10\n        /* \"#utility.yul\":25190:25209   */\n      add\n        /* \"#utility.yul\":25184:25210   */\n      mload\n        /* \"#utility.yul\":25176:25182   */\n      dup3\n        /* \"#utility.yul\":25169:25211   */\n      sstore\n        /* \"#utility.yul\":25250:25251   */\n      0x01\n        /* \"#utility.yul\":25242:25248   */\n      dup3\n        /* \"#utility.yul\":25238:25252   */\n      add\n        /* \"#utility.yul\":25228:25252   */\n      swap2\n      pop\n        /* \"#utility.yul\":25297:25299   */\n      0x20\n        /* \"#utility.yul\":25286:25295   */\n      dup6\n        /* \"#utility.yul\":25282:25300   */\n      add\n        /* \"#utility.yul\":25269:25300   */\n      swap5\n      pop\n        /* \"#utility.yul\":25143:25147   */\n      0x20\n        /* \"#utility.yul\":25140:25141   */\n      dup2\n        /* \"#utility.yul\":25136:25148   */\n      add\n        /* \"#utility.yul\":25131:25148   */\n      swap1\n      pop\n        /* \"#utility.yul\":25106:25314   */\n      jump(tag_504)\n    tag_506:\n        /* \"#utility.yul\":25342:25348   */\n      dup7\n        /* \"#utility.yul\":25333:25340   */\n      dup4\n        /* \"#utility.yul\":25330:25349   */\n      lt\n        /* \"#utility.yul\":25327:25506   */\n      iszero\n      tag_507\n      jumpi\n        /* \"#utility.yul\":25400:25409   */\n      dup5\n        /* \"#utility.yul\":25395:25398   */\n      dup10\n        /* \"#utility.yul\":25391:25410   */\n      add\n        /* \"#utility.yul\":25385:25411   */\n      mload\n        /* \"#utility.yul\":25443:25491   */\n      tag_508\n        /* \"#utility.yul\":25485:25489   */\n      0x1f\n        /* \"#utility.yul\":25477:25483   */\n      dup10\n        /* \"#utility.yul\":25473:25490   */\n      and\n        /* \"#utility.yul\":25462:25471   */\n      dup3\n        /* \"#utility.yul\":25443:25491   */\n      tag_263\n      jump\t// in\n    tag_508:\n        /* \"#utility.yul\":25435:25441   */\n      dup4\n        /* \"#utility.yul\":25428:25492   */\n      sstore\n        /* \"#utility.yul\":25350:25506   */\n      pop\n        /* \"#utility.yul\":25327:25506   */\n    tag_507:\n        /* \"#utility.yul\":25552:25553   */\n      0x01\n        /* \"#utility.yul\":25548:25549   */\n      0x02\n        /* \"#utility.yul\":25540:25546   */\n      dup9\n        /* \"#utility.yul\":25536:25550   */\n      mul\n        /* \"#utility.yul\":25532:25554   */\n      add\n        /* \"#utility.yul\":25526:25530   */\n      dup9\n        /* \"#utility.yul\":25519:25555   */\n      sstore\n        /* \"#utility.yul\":24954:25565   */\n      pop\n      pop\n      pop\n        /* \"#utility.yul\":24917:25804   */\n    tag_499:\n      pop\n        /* \"#utility.yul\":24507:25810   */\n      pop\n      pop\n      pop\n        /* \"#utility.yul\":24415:25810   */\n      pop\n      pop\n      jump\t// out\n        /* \"#utility.yul\":25816:26642   */\n    tag_128:\n        /* \"#utility.yul\":26053:26057   */\n      0x00\n        /* \"#utility.yul\":26091:26094   */\n      0x80\n        /* \"#utility.yul\":26080:26089   */\n      dup3\n        /* \"#utility.yul\":26076:26095   */\n      add\n        /* \"#utility.yul\":26068:26095   */\n      swap1\n      pop\n        /* \"#utility.yul\":26141:26150   */\n      dup2\n        /* \"#utility.yul\":26135:26139   */\n      dup2\n        /* \"#utility.yul\":26131:26151   */\n      sub\n        /* \"#utility.yul\":26127:26128   */\n      0x00\n        /* \"#utility.yul\":26116:26125   */\n      dup4\n        /* \"#utility.yul\":26112:26129   */\n      add\n        /* \"#utility.yul\":26105:26152   */\n      mstore\n        /* \"#utility.yul\":26169:26247   */\n      tag_510\n        /* \"#utility.yul\":26242:26246   */\n      dup2\n        /* \"#utility.yul\":26233:26239   */\n      dup8\n        /* \"#utility.yul\":26169:26247   */\n      tag_213\n      jump\t// in\n    tag_510:\n        /* \"#utility.yul\":26161:26247   */\n      swap1\n      pop\n        /* \"#utility.yul\":26294:26303   */\n      dup2\n        /* \"#utility.yul\":26288:26292   */\n      dup2\n        /* \"#utility.yul\":26284:26304   */\n      sub\n        /* \"#utility.yul\":26279:26281   */\n      0x20\n        /* \"#utility.yul\":26268:26277   */\n      dup4\n        /* \"#utility.yul\":26264:26282   */\n      add\n        /* \"#utility.yul\":26257:26305   */\n      mstore\n        /* \"#utility.yul\":26322:26400   */\n      tag_511\n        /* \"#utility.yul\":26395:26399   */\n      dup2\n        /* \"#utility.yul\":26386:26392   */\n      dup7\n        /* \"#utility.yul\":26322:26400   */\n      tag_213\n      jump\t// in\n    tag_511:\n        /* \"#utility.yul\":26314:26400   */\n      swap1\n      pop\n        /* \"#utility.yul\":26410:26482   */\n      tag_512\n        /* \"#utility.yul\":26478:26480   */\n      0x40\n        /* \"#utility.yul\":26467:26476   */\n      dup4\n        /* \"#utility.yul\":26463:26481   */\n      add\n        /* \"#utility.yul\":26454:26460   */\n      dup6\n        /* \"#utility.yul\":26410:26482   */\n      tag_218\n      jump\t// in\n    tag_512:\n        /* \"#utility.yul\":26529:26538   */\n      dup2\n        /* \"#utility.yul\":26523:26527   */\n      dup2\n        /* \"#utility.yul\":26519:26539   */\n      sub\n        /* \"#utility.yul\":26514:26516   */\n      0x60\n        /* \"#utility.yul\":26503:26512   */\n      dup4\n        /* \"#utility.yul\":26499:26517   */\n      add\n        /* \"#utility.yul\":26492:26540   */\n      mstore\n        /* \"#utility.yul\":26557:26635   */\n      tag_513\n        /* \"#utility.yul\":26630:26634   */\n      dup2\n        /* \"#utility.yul\":26621:26627   */\n      dup5\n        /* \"#utility.yul\":26557:26635   */\n      tag_213\n      jump\t// in\n    tag_513:\n        /* \"#utility.yul\":26549:26635   */\n      swap1\n      pop\n        /* \"#utility.yul\":25816:26642   */\n      swap6\n      swap5\n      pop\n      pop\n      pop\n      pop\n      pop\n      jump\t// out\n        /* \"#utility.yul\":26648:26819   */\n    tag_265:\n        /* \"#utility.yul\":26788:26811   */\n      0x5472616e73616374696f6e206e6f7420666f756e640000000000000000000000\n        /* \"#utility.yul\":26784:26785   */\n      0x00\n        /* \"#utility.yul\":26776:26782   */\n      dup3\n        /* \"#utility.yul\":26772:26786   */\n      add\n        /* \"#utility.yul\":26765:26812   */\n      mstore\n        /* \"#utility.yul\":26648:26819   */\n      pop\n      jump\t// out\n        /* \"#utility.yul\":26825:27191   */\n    tag_266:\n        /* \"#utility.yul\":26967:26970   */\n      0x00\n        /* \"#utility.yul\":26988:27055   */\n      tag_516\n        /* \"#utility.yul\":27052:27054   */\n      0x15\n        /* \"#utility.yul\":27047:27050   */\n      dup4\n        /* \"#utility.yul\":26988:27055   */\n      tag_211\n      jump\t// in\n    tag_516:\n        /* \"#utility.yul\":26981:27055   */\n      swap2\n      pop\n        /* \"#utility.yul\":27064:27157   */\n      tag_517\n        /* \"#utility.yul\":27153:27156   */\n      dup3\n        /* \"#utility.yul\":27064:27157   */\n      tag_265\n      jump\t// in\n    tag_517:\n        /* \"#utility.yul\":27182:27184   */\n      0x20\n        /* \"#utility.yul\":27177:27180   */\n      dup3\n        /* \"#utility.yul\":27173:27185   */\n      add\n        /* \"#utility.yul\":27166:27185   */\n      swap1\n      pop\n        /* \"#utility.yul\":26825:27191   */\n      swap2\n      swap1\n      pop\n      jump\t// out\n        /* \"#utility.yul\":27197:27616   */\n    tag_173:\n        /* \"#utility.yul\":27363:27367   */\n      0x00\n        /* \"#utility.yul\":27401:27403   */\n      0x20\n        /* \"#utility.yul\":27390:27399   */\n      dup3\n        /* \"#utility.yul\":27386:27404   */\n      add\n        /* \"#utility.yul\":27378:27404   */\n      swap1\n      pop\n        /* \"#utility.yul\":27450:27459   */\n      dup2\n        /* \"#utility.yul\":27444:27448   */\n      dup2\n        /* \"#utility.yul\":27440:27460   */\n      sub\n        /* \"#utility.yul\":27436:27437   */\n      0x00\n        /* \"#utility.yul\":27425:27434   */\n      dup4\n        /* \"#utility.yul\":27421:27438   */\n      add\n        /* \"#utility.yul\":27414:27461   */\n      mstore\n        /* \"#utility.yul\":27478:27609   */\n      tag_519\n        /* \"#utility.yul\":27604:27608   */\n      dup2\n        /* \"#utility.yul\":27478:27609   */\n      tag_266\n      jump\t// in\n    tag_519:\n        /* \"#utility.yul\":27470:27609   */\n      swap1\n      pop\n        /* \"#utility.yul\":27197:27616   */\n      swap2\n      swap1\n      pop\n      jump\t// out\n\n    auxdata: 0xa26469706673582212206fe4fe4baf577458ce0e182e58b4941f4de7920f3df38f7a04dcefe931ac79ba64736f6c634300081e0033\n}\n",
				"bytecode": {
					"linkReferences": {},
					"object": "6080604052348015600e575f5ffd5b503360045f6101000a81548173ffffffffffffffffffffffffffffffffffffffff021916908373ffffffffffffffffffffffffffffffffffffffff1602179055506120f28061005c5f395ff3fe608060405234801561000f575f5ffd5b50600436106100a7575f3560e01c80636f37ce431161006f5780636f37ce431461017c5780638da5cb5b146101ac578063ac2ccd07146101ca578063b842ec4414610201578063c14a08c914610231578063ef92539914610261576100a7565b8063022236f4146100ab5780630a5be728146100e25780632a4f6f96146100fe5780632e08673a1461012e5780632e7700f01461015e575b5f5ffd5b6100c560048036038101906100c091906114c3565b610291565b6040516100d99897969594939291906115db565b60405180910390f35b6100fc60048036038101906100f7919061169d565b61054e565b005b610118600480360381019061011391906117c0565b610b18565b60405161012591906117eb565b60405180910390f35b6101486004803603810190610143919061180b565b610bbe565b6040516101559190611939565b60405180910390f35b610166610ccf565b6040516101739190611959565b60405180910390f35b610196600480360381019061019191906114c3565b610cdb565b6040516101a39190611972565b60405180910390f35b6101b4610d11565b6040516101c1919061198b565b60405180910390f35b6101e460048036038101906101df91906114c3565b610d36565b6040516101f89897969594939291906115db565b60405180910390f35b61021b600480360381019061021691906119a4565b611103565b60405161022891906117eb565b60405180910390f35b61024b600480360381019061024691906119a4565b6111b4565b60405161025891906117eb565b60405180910390f35b61027b6004803603810190610276919061180b565b611265565b6040516102889190611939565b60405180910390f35b5f818051602081018201805184825260208301602085012081835280955050505050505f91509050805f0180546102c790611a0f565b80601f01602080910402602001604051908101604052809291908181526020018280546102f390611a0f565b801561033e5780601f106103155761010080835404028352916020019161033e565b820191905f5260205f20905b81548152906001019060200180831161032157829003601f168201915b50505050509080600101805461035390611a0f565b80601f016020809104026020016040519081016040528092919081815260200182805461037f90611a0f565b80156103ca5780601f106103a1576101008083540402835291602001916103ca565b820191905f5260205f20905b8154815290600101906020018083116103ad57829003601f168201915b5050505050908060020180546103df90611a0f565b80601f016020809104026020016040519081016040528092919081815260200182805461040b90611a0f565b80156104565780601f1061042d57610100808354040283529160200191610456565b820191905f5260205f20905b81548152906001019060200180831161043957829003601f168201915b505050505090806003015f9054906101000a900473ffffffffffffffffffffffffffffffffffffffff1690806004015f9054906101000a900473ffffffffffffffffffffffffffffffffffffffff16908060050154908060060180546104bb90611a0f565b80601f01602080910402602001604051908101604052809291908181526020018280546104e790611a0f565b80156105325780601f1061050957610100808354040283529160200191610532565b820191905f5260205f20905b81548152906001019060200180831161051557829003601f168201915b505050505090806007015f9054906101000a900460ff16905088565b60045f9054906101000a900473ffffffffffffffffffffffffffffffffffffffff1673ffffffffffffffffffffffffffffffffffffffff163373ffffffffffffffffffffffffffffffffffffffff16146105dd576040517f08c379a00000000000000000000000000000000000000000000000000000000081526004016105d490611aaf565b60405180910390fd5b5f865111610620576040517f08c379a000000000000000000000000000000000000000000000000000000000815260040161061790611b17565b60405180910390fd5b5f855111610663576040517f08c379a000000000000000000000000000000000000000000000000000000000815260040161065a90611b7f565b60405180910390fd5b5f8451116106a6576040517f08c379a000000000000000000000000000000000000000000000000000000000815260040161069d90611be7565b60405180910390fd5b5f73ffffffffffffffffffffffffffffffffffffffff168373ffffffffffffffffffffffffffffffffffffffff1603610714576040517f08c379a000000000000000000000000000000000000000000000000000000000815260040161070b90611c4f565b60405180910390fd5b5f73ffffffffffffffffffffffffffffffffffffffff168273ffffffffffffffffffffffffffffffffffffffff1603610782576040517f08c379a000000000000000000000000000000000000000000000000000000000815260040161077990611cb7565b60405180910390fd5b5f5f876040516107929190611d0f565b90815260200160405180910390205f0180546107ad90611a0f565b9050146107ef576040517f08c379a00000000000000000000000000000000000000000000000000000000081526004016107e690611d6f565b60405180910390fd5b6040518061010001604052808781526020018681526020018581526020018473ffffffffffffffffffffffffffffffffffffffff1681526020018373ffffffffffffffffffffffffffffffffffffffff168152602001428152602001828152602001600115158152505f876040516108679190611d0f565b90815260200160405180910390205f820151815f0190816108889190611f2d565b50602082015181600101908161089e9190611f2d565b5060408201518160020190816108b49190611f2d565b506060820151816003015f6101000a81548173ffffffffffffffffffffffffffffffffffffffff021916908373ffffffffffffffffffffffffffffffffffffffff1602179055506080820151816004015f6101000a81548173ffffffffffffffffffffffffffffffffffffffff021916908373ffffffffffffffffffffffffffffffffffffffff16021790555060a0820151816005015560c08201518160060190816109609190611f2d565b5060e0820151816007015f6101000a81548160ff02191690831515021790555090505060015f8473ffffffffffffffffffffffffffffffffffffffff1673ffffffffffffffffffffffffffffffffffffffff1681526020019081526020015f2086908060018154018082558091505060019003905f5260205f20015f9091909190915090816109ef9190611f2d565b5060025f8373ffffffffffffffffffffffffffffffffffffffff1673ffffffffffffffffffffffffffffffffffffffff1681526020019081526020015f2086908060018154018082558091505060019003905f5260205f20015f909190919091509081610a5c9190611f2d565b50600386908060018154018082558091505060019003905f5260205f20015f909190919091509081610a8e9190611f2d565b508173ffffffffffffffffffffffffffffffffffffffff168373ffffffffffffffffffffffffffffffffffffffff1687604051610acb9190611d0f565b60405180910390207f1d6df450fde89da5262d9c385cb893b94396a58c489909ef155a6be43175979a88884287604051610b089493929190611ffc565b60405180910390a4505050505050565b60038181548110610b27575f80fd5b905f5260205f20015f915090508054610b3f90611a0f565b80601f0160208091040260200160405190810160405280929190818152602001828054610b6b90611a0f565b8015610bb65780601f10610b8d57610100808354040283529160200191610bb6565b820191905f5260205f20905b815481529060010190602001808311610b9957829003601f168201915b505050505081565b606060025f8373ffffffffffffffffffffffffffffffffffffffff1673ffffffffffffffffffffffffffffffffffffffff1681526020019081526020015f20805480602002602001604051908101604052809291908181526020015f905b82821015610cc4578382905f5260205f20018054610c3990611a0f565b80601f0160208091040260200160405190810160405280929190818152602001828054610c6590611a0f565b8015610cb05780601f10610c8757610100808354040283529160200191610cb0565b820191905f5260205f20905b815481529060010190602001808311610c9357829003601f168201915b505050505081526020019060010190610c1c565b505050509050919050565b5f600380549050905090565b5f5f5f83604051610cec9190611d0f565b90815260200160405180910390205f018054610d0790611a0f565b9050119050919050565b60045f9054906101000a900473ffffffffffffffffffffffffffffffffffffffff1681565b60608060605f5f5f60605f5f5f8a604051610d519190611d0f565b9081526020016040518091039020604051806101000160405290815f82018054610d7a90611a0f565b80601f0160208091040260200160405190810160405280929190818152602001828054610da690611a0f565b8015610df15780601f10610dc857610100808354040283529160200191610df1565b820191905f5260205f20905b815481529060010190602001808311610dd457829003601f168201915b50505050508152602001600182018054610e0a90611a0f565b80601f0160208091040260200160405190810160405280929190818152602001828054610e3690611a0f565b8015610e815780601f10610e5857610100808354040283529160200191610e81565b820191905f5260205f20905b815481529060010190602001808311610e6457829003601f168201915b50505050508152602001600282018054610e9a90611a0f565b80601f0160208091040260200160405190810160405280929190818152602001828054610ec690611a0f565b8015610f115780601f10610ee857610100808354040283529160200191610f11565b820191905f5260205f20905b815481529060010190602001808311610ef457829003601f168201915b50505050508152602001600382015f9054906101000a900473ffffffffffffffffffffffffffffffffffffffff1673ffffffffffffffffffffffffffffffffffffffff1673ffffffffffffffffffffffffffffffffffffffff168152602001600482015f9054906101000a900473ffffffffffffffffffffffffffffffffffffffff1673ffffffffffffffffffffffffffffffffffffffff1673ffffffffffffffffffffffffffffffffffffffff16815260200160058201548152602001600682018054610fde90611a0f565b80601f016020809104026020016040519081016040528092919081815260200182805461100a90611a0f565b80156110555780601f1061102c57610100808354040283529160200191611055565b820191905f5260205f20905b81548152906001019060200180831161103857829003601f168201915b50505050508152602001600782015f9054906101000a900460ff16151515158152505090505f815f015151116110c0576040517f08c379a00000000000000000000000000000000000000000000000000000000081526004016110b79061209e565b60405180910390fd5b805f015181602001518260400151836060015184608001518560a001518660c001518760e001519850985098509850985098509850985050919395975091939597565b6001602052815f5260405f20818154811061111c575f80fd5b905f5260205f20015f9150915050805461113590611a0f565b80601f016020809104026020016040519081016040528092919081815260200182805461116190611a0f565b80156111ac5780601f10611183576101008083540402835291602001916111ac565b820191905f5260205f20905b81548152906001019060200180831161118f57829003601f168201915b505050505081565b6002602052815f5260405f2081815481106111cd575f80fd5b905f5260205f20015f915091505080546111e690611a0f565b80601f016020809104026020016040519081016040528092919081815260200182805461121290611a0f565b801561125d5780601f106112345761010080835404028352916020019161125d565b820191905f5260205f20905b81548152906001019060200180831161124057829003601f168201915b505050505081565b606060015f8373ffffffffffffffffffffffffffffffffffffffff1673ffffffffffffffffffffffffffffffffffffffff1681526020019081526020015f20805480602002602001604051908101604052809291908181526020015f905b8282101561136b578382905f5260205f200180546112e090611a0f565b80601f016020809104026020016040519081016040528092919081815260200182805461130c90611a0f565b80156113575780601f1061132e57610100808354040283529160200191611357565b820191905f5260205f20905b81548152906001019060200180831161133a57829003601f168201915b5050505050815260200190600101906112c3565b505050509050919050565b5f604051905090565b5f5ffd5b5f5ffd5b5f5ffd5b5f5ffd5b5f601f19601f8301169050919050565b7f4e487b71000000000000000000000000000000000000000000000000000000005f52604160045260245ffd5b6113d58261138f565b810181811067ffffffffffffffff821117156113f4576113f361139f565b5b80604052505050565b5f611406611376565b905061141282826113cc565b919050565b5f67ffffffffffffffff8211156114315761143061139f565b5b61143a8261138f565b9050602081019050919050565b828183375f83830152505050565b5f61146761146284611417565b6113fd565b9050828152602081018484840111156114835761148261138b565b5b61148e848285611447565b509392505050565b5f82601f8301126114aa576114a9611387565b5b81356114ba848260208601611455565b91505092915050565b5f602082840312156114d8576114d761137f565b5b5f82013567ffffffffffffffff8111156114f5576114f4611383565b5b61150184828501611496565b91505092915050565b5f81519050919050565b5f82825260208201905092915050565b8281835e5f83830152505050565b5f61153c8261150a565b6115468185611514565b9350611556818560208601611524565b61155f8161138f565b840191505092915050565b5f73ffffffffffffffffffffffffffffffffffffffff82169050919050565b5f6115938261156a565b9050919050565b6115a381611589565b82525050565b5f819050919050565b6115bb816115a9565b82525050565b5f8115159050919050565b6115d5816115c1565b82525050565b5f610100820190508181035f8301526115f4818b611532565b90508181036020830152611608818a611532565b9050818103604083015261161c8189611532565b905061162b606083018861159a565b611638608083018761159a565b61164560a08301866115b2565b81810360c08301526116578185611532565b905061166660e08301846115cc565b9998505050505050505050565b61167c81611589565b8114611686575f5ffd5b50565b5f8135905061169781611673565b92915050565b5f5f5f5f5f5f60c087890312156116b7576116b661137f565b5b5f87013567ffffffffffffffff8111156116d4576116d3611383565b5b6116e089828a01611496565b965050602087013567ffffffffffffffff81111561170157611700611383565b5b61170d89828a01611496565b955050604087013567ffffffffffffffff81111561172e5761172d611383565b5b61173a89828a01611496565b945050606061174b89828a01611689565b935050608061175c89828a01611689565b92505060a087013567ffffffffffffffff81111561177d5761177c611383565b5b61178989828a01611496565b9150509295509295509295565b61179f816115a9565b81146117a9575f5ffd5b50565b5f813590506117ba81611796565b92915050565b5f602082840312156117d5576117d461137f565b5b5f6117e2848285016117ac565b91505092915050565b5f6020820190508181035f8301526118038184611532565b905092915050565b5f602082840312156118205761181f61137f565b5b5f61182d84828501611689565b91505092915050565b5f81519050919050565b5f82825260208201905092915050565b5f819050602082019050919050565b5f82825260208201905092915050565b5f6118798261150a565b611883818561185f565b9350611893818560208601611524565b61189c8161138f565b840191505092915050565b5f6118b2838361186f565b905092915050565b5f602082019050919050565b5f6118d082611836565b6118da8185611840565b9350836020820285016118ec85611850565b805f5b85811015611927578484038952815161190885826118a7565b9450611913836118ba565b925060208a019950506001810190506118ef565b50829750879550505050505092915050565b5f6020820190508181035f83015261195181846118c6565b905092915050565b5f60208201905061196c5f8301846115b2565b92915050565b5f6020820190506119855f8301846115cc565b92915050565b5f60208201905061199e5f83018461159a565b92915050565b5f5f604083850312156119ba576119b961137f565b5b5f6119c785828601611689565b92505060206119d8858286016117ac565b9150509250929050565b7f4e487b71000000000000000000000000000000000000000000000000000000005f52602260045260245ffd5b5f6002820490506001821680611a2657607f821691505b602082108103611a3957611a386119e2565b5b50919050565b7f4f6e6c79206f776e65722063616e2063616c6c20746869732066756e6374696f5f8201527f6e00000000000000000000000000000000000000000000000000000000000000602082015250565b5f611a99602183611514565b9150611aa482611a3f565b604082019050919050565b5f6020820190508181035f830152611ac681611a8d565b9050919050565b7f4f726465722049442072657175697265640000000000000000000000000000005f82015250565b5f611b01601183611514565b9150611b0c82611acd565b602082019050919050565b5f6020820190508181035f830152611b2e81611af5565b9050919050565b7f5061796d656e74207265666572656e63652072657175697265640000000000005f82015250565b5f611b69601a83611514565b9150611b7482611b35565b602082019050919050565b5f6020820190508181035f830152611b9681611b5d565b9050919050565b7f416d6f756e7420726571756972656400000000000000000000000000000000005f82015250565b5f611bd1600f83611514565b9150611bdc82611b9d565b602082019050919050565b5f6020820190508181035f830152611bfe81611bc5565b9050919050565b7f496e76616c6964206275796572206164647265737300000000000000000000005f82015250565b5f611c39601583611514565b9150611c4482611c05565b602082019050919050565b5f6020820190508181035f830152611c6681611c2d565b9050919050565b7f496e76616c69642070726f6475636572206164647265737300000000000000005f82015250565b5f611ca1601883611514565b9150611cac82611c6d565b602082019050919050565b5f6020820190508181035f830152611cce81611c95565b9050919050565b5f81905092915050565b5f611ce98261150a565b611cf38185611cd5565b9350611d03818560208601611524565b80840191505092915050565b5f611d1a8284611cdf565b915081905092915050565b7f5472616e73616374696f6e20616c7265616479207265636f72646564000000005f82015250565b5f611d59601c83611514565b9150611d6482611d25565b602082019050919050565b5f6020820190508181035f830152611d8681611d4d565b9050919050565b5f819050815f5260205f209050919050565b5f6020601f8301049050919050565b5f82821b905092915050565b5f60088302611de97fffffffffffffffffffffffffffffffffffffffffffffffffffffffffffffffff82611dae565b611df38683611dae565b95508019841693508086168417925050509392505050565b5f819050919050565b5f611e2e611e29611e24846115a9565b611e0b565b6115a9565b9050919050565b5f819050919050565b611e4783611e14565b611e5b611e5382611e35565b848454611dba565b825550505050565b5f5f905090565b611e72611e63565b611e7d818484611e3e565b505050565b5b81811015611ea057611e955f82611e6a565b600181019050611e83565b5050565b601f821115611ee557611eb681611d8d565b611ebf84611d9f565b81016020851015611ece578190505b611ee2611eda85611d9f565b830182611e82565b50505b505050565b5f82821c905092915050565b5f611f055f1984600802611eea565b1980831691505092915050565b5f611f1d8383611ef6565b9150826002028217905092915050565b611f368261150a565b67ffffffffffffffff811115611f4f57611f4e61139f565b5b611f598254611a0f565b611f64828285611ea4565b5f60209050601f831160018114611f95575f8415611f83578287015190505b611f8d8582611f12565b865550611ff4565b601f198416611fa386611d8d565b5f5b82811015611fca57848901518255600182019150602085019450602081019050611fa5565b86831015611fe75784890151611fe3601f891682611ef6565b8355505b6001600288020188555050505b505050505050565b5f6080820190508181035f8301526120148187611532565b905081810360208301526120288186611532565b905061203760408301856115b2565b81810360608301526120498184611532565b905095945050505050565b7f5472616e73616374696f6e206e6f7420666f756e6400000000000000000000005f82015250565b5f612088601583611514565b915061209382612054565b602082019050919050565b5f6020820190508181035f8301526120b58161207c565b905091905056fea26469706673582212206fe4fe4baf577458ce0e182e58b4941f4de7920f3df38f7a04dcefe931ac79ba64736f6c634300081e0033",
					"opcodes": "PUSH1 0x80 PUSH1 0x40 MSTORE CALLVALUE DUP1 ISZERO PUSH1 0xE JUMPI PUSH0 PUSH0 REVERT JUMPDEST POP CALLER PUSH1 0x4 PUSH0 PUSH2 0x100 EXP DUP2 SLOAD DUP2 PUSH20 0xFFFFFFFFFFFFFFFFFFFFFFFFFFFFFFFFFFFFFFFF MUL NOT AND SWAP1 DUP4 PUSH20 0xFFFFFFFFFFFFFFFFFFFFFFFFFFFFFFFFFFFFFFFF AND MUL OR SWAP1 SSTORE POP PUSH2 0x20F2 DUP1 PUSH2 0x5C PUSH0 CODECOPY PUSH0 RETURN INVALID PUSH1 0x80 PUSH1 0x40 MSTORE CALLVALUE DUP1 ISZERO PUSH2 0xF JUMPI PUSH0 PUSH0 REVERT JUMPDEST POP PUSH1 0x4 CALLDATASIZE LT PUSH2 0xA7 JUMPI PUSH0 CALLDATALOAD PUSH1 0xE0 SHR DUP1 PUSH4 0x6F37CE43 GT PUSH2 0x6F JUMPI DUP1 PUSH4 0x6F37CE43 EQ PUSH2 0x17C JUMPI DUP1 PUSH4 0x8DA5CB5B EQ PUSH2 0x1AC JUMPI DUP1 PUSH4 0xAC2CCD07 EQ PUSH2 0x1CA JUMPI DUP1 PUSH4 0xB842EC44 EQ PUSH2 0x201 JUMPI DUP1 PUSH4 0xC14A08C9 EQ PUSH2 0x231 JUMPI DUP1 PUSH4 0xEF925399 EQ PUSH2 0x261 JUMPI PUSH2 0xA7 JUMP JUMPDEST DUP1 PUSH4 0x22236F4 EQ PUSH2 0xAB JUMPI DUP1 PUSH4 0xA5BE728 EQ PUSH2 0xE2 JUMPI DUP1 PUSH4 0x2A4F6F96 EQ PUSH2 0xFE JUMPI DUP1 PUSH4 0x2E08673A EQ PUSH2 0x12E JUMPI DUP1 PUSH4 0x2E7700F0 EQ PUSH2 0x15E JUMPI JUMPDEST PUSH0 PUSH0 REVERT JUMPDEST PUSH2 0xC5 PUSH1 0x4 DUP1 CALLDATASIZE SUB DUP2 ADD SWAP1 PUSH2 0xC0 SWAP2 SWAP1 PUSH2 0x14C3 JUMP JUMPDEST PUSH2 0x291 JUMP JUMPDEST PUSH1 0x40 MLOAD PUSH2 0xD9 SWAP9 SWAP8 SWAP7 SWAP6 SWAP5 SWAP4 SWAP3 SWAP2 SWAP1 PUSH2 0x15DB JUMP JUMPDEST PUSH1 0x40 MLOAD DUP1 SWAP2 SUB SWAP1 RETURN JUMPDEST PUSH2 0xFC PUSH1 0x4 DUP1 CALLDATASIZE SUB DUP2 ADD SWAP1 PUSH2 0xF7 SWAP2 SWAP1 PUSH2 0x169D JUMP JUMPDEST PUSH2 0x54E JUMP JUMPDEST STOP JUMPDEST PUSH2 0x118 PUSH1 0x4 DUP1 CALLDATASIZE SUB DUP2 ADD SWAP1 PUSH2 0x113 SWAP2 SWAP1 PUSH2 0x17C0 JUMP JUMPDEST PUSH2 0xB18 JUMP JUMPDEST PUSH1 0x40 MLOAD PUSH2 0x125 SWAP2 SWAP1 PUSH2 0x17EB JUMP JUMPDEST PUSH1 0x40 MLOAD DUP1 SWAP2 SUB SWAP1 RETURN JUMPDEST PUSH2 0x148 PUSH1 0x4 DUP1 CALLDATASIZE SUB DUP2 ADD SWAP1 PUSH2 0x143 SWAP2 SWAP1 PUSH2 0x180B JUMP JUMPDEST PUSH2 0xBBE JUMP JUMPDEST PUSH1 0x40 MLOAD PUSH2 0x155 SWAP2 SWAP1 PUSH2 0x1939 JUMP JUMPDEST PUSH1 0x40 MLOAD DUP1 SWAP2 SUB SWAP1 RETURN JUMPDEST PUSH2 0x166 PUSH2 0xCCF JUMP JUMPDEST PUSH1 0x40 MLOAD PUSH2 0x173 SWAP2 SWAP1 PUSH2 0x1959 JUMP JUMPDEST PUSH1 0x40 MLOAD DUP1 SWAP2 SUB SWAP1 RETURN JUMPDEST PUSH2 0x196 PUSH1 0x4 DUP1 CALLDATASIZE SUB DUP2 ADD SWAP1 PUSH2 0x191 SWAP2 SWAP1 PUSH2 0x14C3 JUMP JUMPDEST PUSH2 0xCDB JUMP JUMPDEST PUSH1 0x40 MLOAD PUSH2 0x1A3 SWAP2 SWAP1 PUSH2 0x1972 JUMP JUMPDEST PUSH1 0x40 MLOAD DUP1 SWAP2 SUB SWAP1 RETURN JUMPDEST PUSH2 0x1B4 PUSH2 0xD11 JUMP JUMPDEST PUSH1 0x40 MLOAD PUSH2 0x1C1 SWAP2 SWAP1 PUSH2 0x198B JUMP JUMPDEST PUSH1 0x40 MLOAD DUP1 SWAP2 SUB SWAP1 RETURN JUMPDEST PUSH2 0x1E4 PUSH1 0x4 DUP1 CALLDATASIZE SUB DUP2 ADD SWAP1 PUSH2 0x1DF SWAP2 SWAP1 PUSH2 0x14C3 JUMP JUMPDEST PUSH2 0xD36 JUMP JUMPDEST PUSH1 0x40 MLOAD PUSH2 0x1F8 SWAP9 SWAP8 SWAP7 SWAP6 SWAP5 SWAP4 SWAP3 SWAP2 SWAP1 PUSH2 0x15DB JUMP JUMPDEST PUSH1 0x40 MLOAD DUP1 SWAP2 SUB SWAP1 RETURN JUMPDEST PUSH2 0x21B PUSH1 0x4 DUP1 CALLDATASIZE SUB DUP2 ADD SWAP1 PUSH2 0x216 SWAP2 SWAP1 PUSH2 0x19A4 JUMP JUMPDEST PUSH2 0x1103 JUMP JUMPDEST PUSH1 0x40 MLOAD PUSH2 0x228 SWAP2 SWAP1 PUSH2 0x17EB JUMP JUMPDEST PUSH1 0x40 MLOAD DUP1 SWAP2 SUB SWAP1 RETURN JUMPDEST PUSH2 0x24B PUSH1 0x4 DUP1 CALLDATASIZE SUB DUP2 ADD SWAP1 PUSH2 0x246 SWAP2 SWAP1 PUSH2 0x19A4 JUMP JUMPDEST PUSH2 0x11B4 JUMP JUMPDEST PUSH1 0x40 MLOAD PUSH2 0x258 SWAP2 SWAP1 PUSH2 0x17EB JUMP JUMPDEST PUSH1 0x40 MLOAD DUP1 SWAP2 SUB SWAP1 RETURN JUMPDEST PUSH2 0x27B PUSH1 0x4 DUP1 CALLDATASIZE SUB DUP2 ADD SWAP1 PUSH2 0x276 SWAP2 SWAP1 PUSH2 0x180B JUMP JUMPDEST PUSH2 0x1265 JUMP JUMPDEST PUSH1 0x40 MLOAD PUSH2 0x288 SWAP2 SWAP1 PUSH2 0x1939 JUMP JUMPDEST PUSH1 0x40 MLOAD DUP1 SWAP2 SUB SWAP1 RETURN JUMPDEST PUSH0 DUP2 DUP1 MLOAD PUSH1 0x20 DUP2 ADD DUP3 ADD DUP1 MLOAD DUP5 DUP3 MSTORE PUSH1 0x20 DUP4 ADD PUSH1 0x20 DUP6 ADD KECCAK256 DUP2 DUP4 MSTORE DUP1 SWAP6 POP POP POP POP POP POP PUSH0 SWAP2 POP SWAP1 POP DUP1 PUSH0 ADD DUP1 SLOAD PUSH2 0x2C7 SWAP1 PUSH2 0x1A0F JUMP JUMPDEST DUP1 PUSH1 0x1F ADD PUSH1 0x20 DUP1 SWAP2 DIV MUL PUSH1 0x20 ADD PUSH1 0x40 MLOAD SWAP1 DUP2 ADD PUSH1 0x40 MSTORE DUP1 SWAP3 SWAP2 SWAP1 DUP2 DUP2 MSTORE PUSH1 0x20 ADD DUP3 DUP1 SLOAD PUSH2 0x2F3 SWAP1 PUSH2 0x1A0F JUMP JUMPDEST DUP1 ISZERO PUSH2 0x33E JUMPI DUP1 PUSH1 0x1F LT PUSH2 0x315 JUMPI PUSH2 0x100 DUP1 DUP4 SLOAD DIV MUL DUP4 MSTORE SWAP2 PUSH1 0x20 ADD SWAP2 PUSH2 0x33E JUMP JUMPDEST DUP3 ADD SWAP2 SWAP1 PUSH0 MSTORE PUSH1 0x20 PUSH0 KECCAK256 SWAP1 JUMPDEST DUP2 SLOAD DUP2 MSTORE SWAP1 PUSH1 0x1 ADD SWAP1 PUSH1 0x20 ADD DUP1 DUP4 GT PUSH2 0x321 JUMPI DUP3 SWAP1 SUB PUSH1 0x1F AND DUP3 ADD SWAP2 JUMPDEST POP POP POP POP POP SWAP1 DUP1 PUSH1 0x1 ADD DUP1 SLOAD PUSH2 0x353 SWAP1 PUSH2 0x1A0F JUMP JUMPDEST DUP1 PUSH1 0x1F ADD PUSH1 0x20 DUP1 SWAP2 DIV MUL PUSH1 0x20 ADD PUSH1 0x40 MLOAD SWAP1 DUP2 ADD PUSH1 0x40 MSTORE DUP1 SWAP3 SWAP2 SWAP1 DUP2 DUP2 MSTORE PUSH1 0x20 ADD DUP3 DUP1 SLOAD PUSH2 0x37F SWAP1 PUSH2 0x1A0F JUMP JUMPDEST DUP1 ISZERO PUSH2 0x3CA JUMPI DUP1 PUSH1 0x1F LT PUSH2 0x3A1 JUMPI PUSH2 0x100 DUP1 DUP4 SLOAD DIV MUL DUP4 MSTORE SWAP2 PUSH1 0x20 ADD SWAP2 PUSH2 0x3CA JUMP JUMPDEST DUP3 ADD SWAP2 SWAP1 PUSH0 MSTORE PUSH1 0x20 PUSH0 KECCAK256 SWAP1 JUMPDEST DUP2 SLOAD DUP2 MSTORE SWAP1 PUSH1 0x1 ADD SWAP1 PUSH1 0x20 ADD DUP1 DUP4 GT PUSH2 0x3AD JUMPI DUP3 SWAP1 SUB PUSH1 0x1F AND DUP3 ADD SWAP2 JUMPDEST POP POP POP POP POP SWAP1 DUP1 PUSH1 0x2 ADD DUP1 SLOAD PUSH2 0x3DF SWAP1 PUSH2 0x1A0F JUMP JUMPDEST DUP1 PUSH1 0x1F ADD PUSH1 0x20 DUP1 SWAP2 DIV MUL PUSH1 0x20 ADD PUSH1 0x40 MLOAD SWAP1 DUP2 ADD PUSH1 0x40 MSTORE DUP1 SWAP3 SWAP2 SWAP1 DUP2 DUP2 MSTORE PUSH1 0x20 ADD DUP3 DUP1 SLOAD PUSH2 0x40B SWAP1 PUSH2 0x1A0F JUMP JUMPDEST DUP1 ISZERO PUSH2 0x456 JUMPI DUP1 PUSH1 0x1F LT PUSH2 0x42D JUMPI PUSH2 0x100 DUP1 DUP4 SLOAD DIV MUL DUP4 MSTORE SWAP2 PUSH1 0x20 ADD SWAP2 PUSH2 0x456 JUMP JUMPDEST DUP3 ADD SWAP2 SWAP1 PUSH0 MSTORE PUSH1 0x20 PUSH0 KECCAK256 SWAP1 JUMPDEST DUP2 SLOAD DUP2 MSTORE SWAP1 PUSH1 0x1 ADD SWAP1 PUSH1 0x20 ADD DUP1 DUP4 GT PUSH2 0x439 JUMPI DUP3 SWAP1 SUB PUSH1 0x1F AND DUP3 ADD SWAP2 JUMPDEST POP POP POP POP POP SWAP1 DUP1 PUSH1 0x3 ADD PUSH0 SWAP1 SLOAD SWAP1 PUSH2 0x100 EXP SWAP1 DIV PUSH20 0xFFFFFFFFFFFFFFFFFFFFFFFFFFFFFFFFFFFFFFFF AND SWAP1 DUP1 PUSH1 0x4 ADD PUSH0 SWAP1 SLOAD SWAP1 PUSH2 0x100 EXP SWAP1 DIV PUSH20 0xFFFFFFFFFFFFFFFFFFFFFFFFFFFFFFFFFFFFFFFF AND SWAP1 DUP1 PUSH1 0x5 ADD SLOAD SWAP1 DUP1 PUSH1 0x6 ADD DUP1 SLOAD PUSH2 0x4BB SWAP1 PUSH2 0x1A0F JUMP JUMPDEST DUP1 PUSH1 0x1F ADD PUSH1 0x20 DUP1 SWAP2 DIV MUL PUSH1 0x20 ADD PUSH1 0x40 MLOAD SWAP1 DUP2 ADD PUSH1 0x40 MSTORE DUP1 SWAP3 SWAP2 SWAP1 DUP2 DUP2 MSTORE PUSH1 0x20 ADD DUP3 DUP1 SLOAD PUSH2 0x4E7 SWAP1 PUSH2 0x1A0F JUMP JUMPDEST DUP1 ISZERO PUSH2 0x532 JUMPI DUP1 PUSH1 0x1F LT PUSH2 0x509 JUMPI PUSH2 0x100 DUP1 DUP4 SLOAD DIV MUL DUP4 MSTORE SWAP2 PUSH1 0x20 ADD SWAP2 PUSH2 0x532 JUMP JUMPDEST DUP3 ADD SWAP2 SWAP1 PUSH0 MSTORE PUSH1 0x20 PUSH0 KECCAK256 SWAP1 JUMPDEST DUP2 SLOAD DUP2 MSTORE SWAP1 PUSH1 0x1 ADD SWAP1 PUSH1 0x20 ADD DUP1 DUP4 GT PUSH2 0x515 JUMPI DUP3 SWAP1 SUB PUSH1 0x1F AND DUP3 ADD SWAP2 JUMPDEST POP POP POP POP POP SWAP1 DUP1 PUSH1 0x7 ADD PUSH0 SWAP1 SLOAD SWAP1 PUSH2 0x100 EXP SWAP1 DIV PUSH1 0xFF AND SWAP1 POP DUP9 JUMP JUMPDEST PUSH1 0x4 PUSH0 SWAP1 SLOAD SWAP1 PUSH2 0x100 EXP SWAP1 DIV PUSH20 0xFFFFFFFFFFFFFFFFFFFFFFFFFFFFFFFFFFFFFFFF AND PUSH20 0xFFFFFFFFFFFFFFFFFFFFFFFFFFFFFFFFFFFFFFFF AND CALLER PUSH20 0xFFFFFFFFFFFFFFFFFFFFFFFFFFFFFFFFFFFFFFFF AND EQ PUSH2 0x5DD JUMPI PUSH1 0x40 MLOAD PUSH32 0x8C379A000000000000000000000000000000000000000000000000000000000 DUP2 MSTORE PUSH1 0x4 ADD PUSH2 0x5D4 SWAP1 PUSH2 0x1AAF JUMP JUMPDEST PUSH1 0x40 MLOAD DUP1 SWAP2 SUB SWAP1 REVERT JUMPDEST PUSH0 DUP7 MLOAD GT PUSH2 0x620 JUMPI PUSH1 0x40 MLOAD PUSH32 0x8C379A000000000000000000000000000000000000000000000000000000000 DUP2 MSTORE PUSH1 0x4 ADD PUSH2 0x617 SWAP1 PUSH2 0x1B17 JUMP JUMPDEST PUSH1 0x40 MLOAD DUP1 SWAP2 SUB SWAP1 REVERT JUMPDEST PUSH0 DUP6 MLOAD GT PUSH2 0x663 JUMPI PUSH1 0x40 MLOAD PUSH32 0x8C379A000000000000000000000000000000000000000000000000000000000 DUP2 MSTORE PUSH1 0x4 ADD PUSH2 0x65A SWAP1 PUSH2 0x1B7F JUMP JUMPDEST PUSH1 0x40 MLOAD DUP1 SWAP2 SUB SWAP1 REVERT JUMPDEST PUSH0 DUP5 MLOAD GT PUSH2 0x6A6 JUMPI PUSH1 0x40 MLOAD PUSH32 0x8C379A000000000000000000000000000000000000000000000000000000000 DUP2 MSTORE PUSH1 0x4 ADD PUSH2 0x69D SWAP1 PUSH2 0x1BE7 JUMP JUMPDEST PUSH1 0x40 MLOAD DUP1 SWAP2 SUB SWAP1 REVERT JUMPDEST PUSH0 PUSH20 0xFFFFFFFFFFFFFFFFFFFFFFFFFFFFFFFFFFFFFFFF AND DUP4 PUSH20 0xFFFFFFFFFFFFFFFFFFFFFFFFFFFFFFFFFFFFFFFF AND SUB PUSH2 0x714 JUMPI PUSH1 0x40 MLOAD PUSH32 0x8C379A000000000000000000000000000000000000000000000000000000000 DUP2 MSTORE PUSH1 0x4 ADD PUSH2 0x70B SWAP1 PUSH2 0x1C4F JUMP JUMPDEST PUSH1 0x40 MLOAD DUP1 SWAP2 SUB SWAP1 REVERT JUMPDEST PUSH0 PUSH20 0xFFFFFFFFFFFFFFFFFFFFFFFFFFFFFFFFFFFFFFFF AND DUP3 PUSH20 0xFFFFFFFFFFFFFFFFFFFFFFFFFFFFFFFFFFFFFFFF AND SUB PUSH2 0x782 JUMPI PUSH1 0x40 MLOAD PUSH32 0x8C379A000000000000000000000000000000000000000000000000000000000 DUP2 MSTORE PUSH1 0x4 ADD PUSH2 0x779 SWAP1 PUSH2 0x1CB7 JUMP JUMPDEST PUSH1 0x40 MLOAD DUP1 SWAP2 SUB SWAP1 REVERT JUMPDEST PUSH0 PUSH0 DUP8 PUSH1 0x40 MLOAD PUSH2 0x792 SWAP2 SWAP1 PUSH2 0x1D0F JUMP JUMPDEST SWAP1 DUP2 MSTORE PUSH1 0x20 ADD PUSH1 0x40 MLOAD DUP1 SWAP2 SUB SWAP1 KECCAK256 PUSH0 ADD DUP1 SLOAD PUSH2 0x7AD SWAP1 PUSH2 0x1A0F JUMP JUMPDEST SWAP1 POP EQ PUSH2 0x7EF JUMPI PUSH1 0x40 MLOAD PUSH32 0x8C379A000000000000000000000000000000000000000000000000000000000 DUP2 MSTORE PUSH1 0x4 ADD PUSH2 0x7E6 SWAP1 PUSH2 0x1D6F JUMP JUMPDEST PUSH1 0x40 MLOAD DUP1 SWAP2 SUB SWAP1 REVERT JUMPDEST PUSH1 0x40 MLOAD DUP1 PUSH2 0x100 ADD PUSH1 0x40 MSTORE DUP1 DUP8 DUP2 MSTORE PUSH1 0x20 ADD DUP7 DUP2 MSTORE PUSH1 0x20 ADD DUP6 DUP2 MSTORE PUSH1 0x20 ADD DUP5 PUSH20 0xFFFFFFFFFFFFFFFFFFFFFFFFFFFFFFFFFFFFFFFF AND DUP2 MSTORE PUSH1 0x20 ADD DUP4 PUSH20 0xFFFFFFFFFFFFFFFFFFFFFFFFFFFFFFFFFFFFFFFF AND DUP2 MSTORE PUSH1 0x20 ADD TIMESTAMP DUP2 MSTORE PUSH1 0x20 ADD DUP3 DUP2 MSTORE PUSH1 0x20 ADD PUSH1 0x1 ISZERO ISZERO DUP2 MSTORE POP PUSH0 DUP8 PUSH1 0x40 MLOAD PUSH2 0x867 SWAP2 SWAP1 PUSH2 0x1D0F JUMP JUMPDEST SWAP1 DUP2 MSTORE PUSH1 0x20 ADD PUSH1 0x40 MLOAD DUP1 SWAP2 SUB SWAP1 KECCAK256 PUSH0 DUP3 ADD MLOAD DUP2 PUSH0 ADD SWAP1 DUP2 PUSH2 0x888 SWAP2 SWAP1 PUSH2 0x1F2D JUMP JUMPDEST POP PUSH1 0x20 DUP3 ADD MLOAD DUP2 PUSH1 0x1 ADD SWAP1 DUP2 PUSH2 0x89E SWAP2 SWAP1 PUSH2 0x1F2D JUMP JUMPDEST POP PUSH1 0x40 DUP3 ADD MLOAD DUP2 PUSH1 0x2 ADD SWAP1 DUP2 PUSH2 0x8B4 SWAP2 SWAP1 PUSH2 0x1F2D JUMP JUMPDEST POP PUSH1 0x60 DUP3 ADD MLOAD DUP2 PUSH1 0x3 ADD PUSH0 PUSH2 0x100 EXP DUP2 SLOAD DUP2 PUSH20 0xFFFFFFFFFFFFFFFFFFFFFFFFFFFFFFFFFFFFFFFF MUL NOT AND SWAP1 DUP4 PUSH20 0xFFFFFFFFFFFFFFFFFFFFFFFFFFFFFFFFFFFFFFFF AND MUL OR SWAP1 SSTORE POP PUSH1 0x80 DUP3 ADD MLOAD DUP2 PUSH1 0x4 ADD PUSH0 PUSH2 0x100 EXP DUP2 SLOAD DUP2 PUSH20 0xFFFFFFFFFFFFFFFFFFFFFFFFFFFFFFFFFFFFFFFF MUL NOT AND SWAP1 DUP4 PUSH20 0xFFFFFFFFFFFFFFFFFFFFFFFFFFFFFFFFFFFFFFFF AND MUL OR SWAP1 SSTORE POP PUSH1 0xA0 DUP3 ADD MLOAD DUP2 PUSH1 0x5 ADD SSTORE PUSH1 0xC0 DUP3 ADD MLOAD DUP2 PUSH1 0x6 ADD SWAP1 DUP2 PUSH2 0x960 SWAP2 SWAP1 PUSH2 0x1F2D JUMP JUMPDEST POP PUSH1 0xE0 DUP3 ADD MLOAD DUP2 PUSH1 0x7 ADD PUSH0 PUSH2 0x100 EXP DUP2 SLOAD DUP2 PUSH1 0xFF MUL NOT AND SWAP1 DUP4 ISZERO ISZERO MUL OR SWAP1 SSTORE POP SWAP1 POP POP PUSH1 0x1 PUSH0 DUP5 PUSH20 0xFFFFFFFFFFFFFFFFFFFFFFFFFFFFFFFFFFFFFFFF AND PUSH20 0xFFFFFFFFFFFFFFFFFFFFFFFFFFFFFFFFFFFFFFFF AND DUP2 MSTORE PUSH1 0x20 ADD SWAP1 DUP2 MSTORE PUSH1 0x20 ADD PUSH0 KECCAK256 DUP7 SWAP1 DUP1 PUSH1 0x1 DUP2 SLOAD ADD DUP1 DUP3 SSTORE DUP1 SWAP2 POP POP PUSH1 0x1 SWAP1 SUB SWAP1 PUSH0 MSTORE PUSH1 0x20 PUSH0 KECCAK256 ADD PUSH0 SWAP1 SWAP2 SWAP1 SWAP2 SWAP1 SWAP2 POP SWAP1 DUP2 PUSH2 0x9EF SWAP2 SWAP1 PUSH2 0x1F2D JUMP JUMPDEST POP PUSH1 0x2 PUSH0 DUP4 PUSH20 0xFFFFFFFFFFFFFFFFFFFFFFFFFFFFFFFFFFFFFFFF AND PUSH20 0xFFFFFFFFFFFFFFFFFFFFFFFFFFFFFFFFFFFFFFFF AND DUP2 MSTORE PUSH1 0x20 ADD SWAP1 DUP2 MSTORE PUSH1 0x20 ADD PUSH0 KECCAK256 DUP7 SWAP1 DUP1 PUSH1 0x1 DUP2 SLOAD ADD DUP1 DUP3 SSTORE DUP1 SWAP2 POP POP PUSH1 0x1 SWAP1 SUB SWAP1 PUSH0 MSTORE PUSH1 0x20 PUSH0 KECCAK256 ADD PUSH0 SWAP1 SWAP2 SWAP1 SWAP2 SWAP1 SWAP2 POP SWAP1 DUP2 PUSH2 0xA5C SWAP2 SWAP1 PUSH2 0x1F2D JUMP JUMPDEST POP PUSH1 0x3 DUP7 SWAP1 DUP1 PUSH1 0x1 DUP2 SLOAD ADD DUP1 DUP3 SSTORE DUP1 SWAP2 POP POP PUSH1 0x1 SWAP1 SUB SWAP1 PUSH0 MSTORE PUSH1 0x20 PUSH0 KECCAK256 ADD PUSH0 SWAP1 SWAP2 SWAP1 SWAP2 SWAP1 SWAP2 POP SWAP1 DUP2 PUSH2 0xA8E SWAP2 SWAP1 PUSH2 0x1F2D JUMP JUMPDEST POP DUP2 PUSH20 0xFFFFFFFFFFFFFFFFFFFFFFFFFFFFFFFFFFFFFFFF AND DUP4 PUSH20 0xFFFFFFFFFFFFFFFFFFFFFFFFFFFFFFFFFFFFFFFF AND DUP8 PUSH1 0x40 MLOAD PUSH2 0xACB SWAP2 SWAP1 PUSH2 0x1D0F JUMP JUMPDEST PUSH1 0x40 MLOAD DUP1 SWAP2 SUB SWAP1 KECCAK256 PUSH32 0x1D6DF450FDE89DA5262D9C385CB893B94396A58C489909EF155A6BE43175979A DUP9 DUP9 TIMESTAMP DUP8 PUSH1 0x40 MLOAD PUSH2 0xB08 SWAP5 SWAP4 SWAP3 SWAP2 SWAP1 PUSH2 0x1FFC JUMP JUMPDEST PUSH1 0x40 MLOAD DUP1 SWAP2 SUB SWAP1 LOG4 POP POP POP POP POP POP JUMP JUMPDEST PUSH1 0x3 DUP2 DUP2 SLOAD DUP2 LT PUSH2 0xB27 JUMPI PUSH0 DUP1 REVERT JUMPDEST SWAP1 PUSH0 MSTORE PUSH1 0x20 PUSH0 KECCAK256 ADD PUSH0 SWAP2 POP SWAP1 POP DUP1 SLOAD PUSH2 0xB3F SWAP1 PUSH2 0x1A0F JUMP JUMPDEST DUP1 PUSH1 0x1F ADD PUSH1 0x20 DUP1 SWAP2 DIV MUL PUSH1 0x20 ADD PUSH1 0x40 MLOAD SWAP1 DUP2 ADD PUSH1 0x40 MSTORE DUP1 SWAP3 SWAP2 SWAP1 DUP2 DUP2 MSTORE PUSH1 0x20 ADD DUP3 DUP1 SLOAD PUSH2 0xB6B SWAP1 PUSH2 0x1A0F JUMP JUMPDEST DUP1 ISZERO PUSH2 0xBB6 JUMPI DUP1 PUSH1 0x1F LT PUSH2 0xB8D JUMPI PUSH2 0x100 DUP1 DUP4 SLOAD DIV MUL DUP4 MSTORE SWAP2 PUSH1 0x20 ADD SWAP2 PUSH2 0xBB6 JUMP JUMPDEST DUP3 ADD SWAP2 SWAP1 PUSH0 MSTORE PUSH1 0x20 PUSH0 KECCAK256 SWAP1 JUMPDEST DUP2 SLOAD DUP2 MSTORE SWAP1 PUSH1 0x1 ADD SWAP1 PUSH1 0x20 ADD DUP1 DUP4 GT PUSH2 0xB99 JUMPI DUP3 SWAP1 SUB PUSH1 0x1F AND DUP3 ADD SWAP2 JUMPDEST POP POP POP POP POP DUP2 JUMP JUMPDEST PUSH1 0x60 PUSH1 0x2 PUSH0 DUP4 PUSH20 0xFFFFFFFFFFFFFFFFFFFFFFFFFFFFFFFFFFFFFFFF AND PUSH20 0xFFFFFFFFFFFFFFFFFFFFFFFFFFFFFFFFFFFFFFFF AND DUP2 MSTORE PUSH1 0x20 ADD SWAP1 DUP2 MSTORE PUSH1 0x20 ADD PUSH0 KECCAK256 DUP1 SLOAD DUP1 PUSH1 0x20 MUL PUSH1 0x20 ADD PUSH1 0x40 MLOAD SWAP1 DUP2 ADD PUSH1 0x40 MSTORE DUP1 SWAP3 SWAP2 SWAP1 DUP2 DUP2 MSTORE PUSH1 0x20 ADD PUSH0 SWAP1 JUMPDEST DUP3 DUP3 LT ISZERO PUSH2 0xCC4 JUMPI DUP4 DUP3 SWAP1 PUSH0 MSTORE PUSH1 0x20 PUSH0 KECCAK256 ADD DUP1 SLOAD PUSH2 0xC39 SWAP1 PUSH2 0x1A0F JUMP JUMPDEST DUP1 PUSH1 0x1F ADD PUSH1 0x20 DUP1 SWAP2 DIV MUL PUSH1 0x20 ADD PUSH1 0x40 MLOAD SWAP1 DUP2 ADD PUSH1 0x40 MSTORE DUP1 SWAP3 SWAP2 SWAP1 DUP2 DUP2 MSTORE PUSH1 0x20 ADD DUP3 DUP1 SLOAD PUSH2 0xC65 SWAP1 PUSH2 0x1A0F JUMP JUMPDEST DUP1 ISZERO PUSH2 0xCB0 JUMPI DUP1 PUSH1 0x1F LT PUSH2 0xC87 JUMPI PUSH2 0x100 DUP1 DUP4 SLOAD DIV MUL DUP4 MSTORE SWAP2 PUSH1 0x20 ADD SWAP2 PUSH2 0xCB0 JUMP JUMPDEST DUP3 ADD SWAP2 SWAP1 PUSH0 MSTORE PUSH1 0x20 PUSH0 KECCAK256 SWAP1 JUMPDEST DUP2 SLOAD DUP2 MSTORE SWAP1 PUSH1 0x1 ADD SWAP1 PUSH1 0x20 ADD DUP1 DUP4 GT PUSH2 0xC93 JUMPI DUP3 SWAP1 SUB PUSH1 0x1F AND DUP3 ADD SWAP2 JUMPDEST POP POP POP POP POP DUP2 MSTORE PUSH1 0x20 ADD SWAP1 PUSH1 0x1 ADD SWAP1 PUSH2 0xC1C JUMP JUMPDEST POP POP POP POP SWAP1 POP SWAP2 SWAP1 POP JUMP JUMPDEST PUSH0 PUSH1 0x3 DUP1 SLOAD SWAP1 POP SWAP1 POP SWAP1 JUMP JUMPDEST PUSH0 PUSH0 PUSH0 DUP4 PUSH1 0x40 MLOAD PUSH2 0xCEC SWAP2 SWAP1 PUSH2 0x1D0F JUMP JUMPDEST SWAP1 DUP2 MSTORE PUSH1 0x20 ADD PUSH1 0x40 MLOAD DUP1 SWAP2 SUB SWAP1 KECCAK256 PUSH0 ADD DUP1 SLOAD PUSH2 0xD07 SWAP1 PUSH2 0x1A0F JUMP JUMPDEST SWAP1 POP GT SWAP1 POP SWAP2 SWAP1 POP JUMP JUMPDEST PUSH1 0x4 PUSH0 SWAP1 SLOAD SWAP1 PUSH2 0x100 EXP SWAP1 DIV PUSH20 0xFFFFFFFFFFFFFFFFFFFFFFFFFFFFFFFFFFFFFFFF AND DUP2 JUMP JUMPDEST PUSH1 0x60 DUP1 PUSH1 0x60 PUSH0 PUSH0 PUSH0 PUSH1 0x60 PUSH0 PUSH0 PUSH0 DUP11 PUSH1 0x40 MLOAD PUSH2 0xD51 SWAP2 SWAP1 PUSH2 0x1D0F JUMP JUMPDEST SWAP1 DUP2 MSTORE PUSH1 0x20 ADD PUSH1 0x40 MLOAD DUP1 SWAP2 SUB SWAP1 KECCAK256 PUSH1 0x40 MLOAD DUP1 PUSH2 0x100 ADD PUSH1 0x40 MSTORE SWAP1 DUP2 PUSH0 DUP3 ADD DUP1 SLOAD PUSH2 0xD7A SWAP1 PUSH2 0x1A0F JUMP JUMPDEST DUP1 PUSH1 0x1F ADD PUSH1 0x20 DUP1 SWAP2 DIV MUL PUSH1 0x20 ADD PUSH1 0x40 MLOAD SWAP1 DUP2 ADD PUSH1 0x40 MSTORE DUP1 SWAP3 SWAP2 SWAP1 DUP2 DUP2 MSTORE PUSH1 0x20 ADD DUP3 DUP1 SLOAD PUSH2 0xDA6 SWAP1 PUSH2 0x1A0F JUMP JUMPDEST DUP1 ISZERO PUSH2 0xDF1 JUMPI DUP1 PUSH1 0x1F LT PUSH2 0xDC8 JUMPI PUSH2 0x100 DUP1 DUP4 SLOAD DIV MUL DUP4 MSTORE SWAP2 PUSH1 0x20 ADD SWAP2 PUSH2 0xDF1 JUMP JUMPDEST DUP3 ADD SWAP2 SWAP1 PUSH0 MSTORE PUSH1 0x20 PUSH0 KECCAK256 SWAP1 JUMPDEST DUP2 SLOAD DUP2 MSTORE SWAP1 PUSH1 0x1 ADD SWAP1 PUSH1 0x20 ADD DUP1 DUP4 GT PUSH2 0xDD4 JUMPI DUP3 SWAP1 SUB PUSH1 0x1F AND DUP3 ADD SWAP2 JUMPDEST POP POP POP POP POP DUP2 MSTORE PUSH1 0x20 ADD PUSH1 0x1 DUP3 ADD DUP1 SLOAD PUSH2 0xE0A SWAP1 PUSH2 0x1A0F JUMP JUMPDEST DUP1 PUSH1 0x1F ADD PUSH1 0x20 DUP1 SWAP2 DIV MUL PUSH1 0x20 ADD PUSH1 0x40 MLOAD SWAP1 DUP2 ADD PUSH1 0x40 MSTORE DUP1 SWAP3 SWAP2 SWAP1 DUP2 DUP2 MSTORE PUSH1 0x20 ADD DUP3 DUP1 SLOAD PUSH2 0xE36 SWAP1 PUSH2 0x1A0F JUMP JUMPDEST DUP1 ISZERO PUSH2 0xE81 JUMPI DUP1 PUSH1 0x1F LT PUSH2 0xE58 JUMPI PUSH2 0x100 DUP1 DUP4 SLOAD DIV MUL DUP4 MSTORE SWAP2 PUSH1 0x20 ADD SWAP2 PUSH2 0xE81 JUMP JUMPDEST DUP3 ADD SWAP2 SWAP1 PUSH0 MSTORE PUSH1 0x20 PUSH0 KECCAK256 SWAP1 JUMPDEST DUP2 SLOAD DUP2 MSTORE SWAP1 PUSH1 0x1 ADD SWAP1 PUSH1 0x20 ADD DUP1 DUP4 GT PUSH2 0xE64 JUMPI DUP3 SWAP1 SUB PUSH1 0x1F AND DUP3 ADD SWAP2 JUMPDEST POP POP POP POP POP DUP2 MSTORE PUSH1 0x20 ADD PUSH1 0x2 DUP3 ADD DUP1 SLOAD PUSH2 0xE9A SWAP1 PUSH2 0x1A0F JUMP JUMPDEST DUP1 PUSH1 0x1F ADD PUSH1 0x20 DUP1 SWAP2 DIV MUL PUSH1 0x20 ADD PUSH1 0x40 MLOAD SWAP1 DUP2 ADD PUSH1 0x40 MSTORE DUP1 SWAP3 SWAP2 SWAP1 DUP2 DUP2 MSTORE PUSH1 0x20 ADD DUP3 DUP1 SLOAD PUSH2 0xEC6 SWAP1 PUSH2 0x1A0F JUMP JUMPDEST DUP1 ISZERO PUSH2 0xF11 JUMPI DUP1 PUSH1 0x1F LT PUSH2 0xEE8 JUMPI PUSH2 0x100 DUP1 DUP4 SLOAD DIV MUL DUP4 MSTORE SWAP2 PUSH1 0x20 ADD SWAP2 PUSH2 0xF11 JUMP JUMPDEST DUP3 ADD SWAP2 SWAP1 PUSH0 MSTORE PUSH1 0x20 PUSH0 KECCAK256 SWAP1 JUMPDEST DUP2 SLOAD DUP2 MSTORE SWAP1 PUSH1 0x1 ADD SWAP1 PUSH1 0x20 ADD DUP1 DUP4 GT PUSH2 0xEF4 JUMPI DUP3 SWAP1 SUB PUSH1 0x1F AND DUP3 ADD SWAP2 JUMPDEST POP POP POP POP POP DUP2 MSTORE PUSH1 0x20 ADD PUSH1 0x3 DUP3 ADD PUSH0 SWAP1 SLOAD SWAP1 PUSH2 0x100 EXP SWAP1 DIV PUSH20 0xFFFFFFFFFFFFFFFFFFFFFFFFFFFFFFFFFFFFFFFF AND PUSH20 0xFFFFFFFFFFFFFFFFFFFFFFFFFFFFFFFFFFFFFFFF AND PUSH20 0xFFFFFFFFFFFFFFFFFFFFFFFFFFFFFFFFFFFFFFFF AND DUP2 MSTORE PUSH1 0x20 ADD PUSH1 0x4 DUP3 ADD PUSH0 SWAP1 SLOAD SWAP1 PUSH2 0x100 EXP SWAP1 DIV PUSH20 0xFFFFFFFFFFFFFFFFFFFFFFFFFFFFFFFFFFFFFFFF AND PUSH20 0xFFFFFFFFFFFFFFFFFFFFFFFFFFFFFFFFFFFFFFFF AND PUSH20 0xFFFFFFFFFFFFFFFFFFFFFFFFFFFFFFFFFFFFFFFF AND DUP2 MSTORE PUSH1 0x20 ADD PUSH1 0x5 DUP3 ADD SLOAD DUP2 MSTORE PUSH1 0x20 ADD PUSH1 0x6 DUP3 ADD DUP1 SLOAD PUSH2 0xFDE SWAP1 PUSH2 0x1A0F JUMP JUMPDEST DUP1 PUSH1 0x1F ADD PUSH1 0x20 DUP1 SWAP2 DIV MUL PUSH1 0x20 ADD PUSH1 0x40 MLOAD SWAP1 DUP2 ADD PUSH1 0x40 MSTORE DUP1 SWAP3 SWAP2 SWAP1 DUP2 DUP2 MSTORE PUSH1 0x20 ADD DUP3 DUP1 SLOAD PUSH2 0x100A SWAP1 PUSH2 0x1A0F JUMP JUMPDEST DUP1 ISZERO PUSH2 0x1055 JUMPI DUP1 PUSH1 0x1F LT PUSH2 0x102C JUMPI PUSH2 0x100 DUP1 DUP4 SLOAD DIV MUL DUP4 MSTORE SWAP2 PUSH1 0x20 ADD SWAP2 PUSH2 0x1055 JUMP JUMPDEST DUP3 ADD SWAP2 SWAP1 PUSH0 MSTORE PUSH1 0x20 PUSH0 KECCAK256 SWAP1 JUMPDEST DUP2 SLOAD DUP2 MSTORE SWAP1 PUSH1 0x1 ADD SWAP1 PUSH1 0x20 ADD DUP1 DUP4 GT PUSH2 0x1038 JUMPI DUP3 SWAP1 SUB PUSH1 0x1F AND DUP3 ADD SWAP2 JUMPDEST POP POP POP POP POP DUP2 MSTORE PUSH1 0x20 ADD PUSH1 0x7 DUP3 ADD PUSH0 SWAP1 SLOAD SWAP1 PUSH2 0x100 EXP SWAP1 DIV PUSH1 0xFF AND ISZERO ISZERO ISZERO ISZERO DUP2 MSTORE POP POP SWAP1 POP PUSH0 DUP2 PUSH0 ADD MLOAD MLOAD GT PUSH2 0x10C0 JUMPI PUSH1 0x40 MLOAD PUSH32 0x8C379A000000000000000000000000000000000000000000000000000000000 DUP2 MSTORE PUSH1 0x4 ADD PUSH2 0x10B7 SWAP1 PUSH2 0x209E JUMP JUMPDEST PUSH1 0x40 MLOAD DUP1 SWAP2 SUB SWAP1 REVERT JUMPDEST DUP1 PUSH0 ADD MLOAD DUP2 PUSH1 0x20 ADD MLOAD DUP3 PUSH1 0x40 ADD MLOAD DUP4 PUSH1 0x60 ADD MLOAD DUP5 PUSH1 0x80 ADD MLOAD DUP6 PUSH1 0xA0 ADD MLOAD DUP7 PUSH1 0xC0 ADD MLOAD DUP8 PUSH1 0xE0 ADD MLOAD SWAP9 POP SWAP9 POP SWAP9 POP SWAP9 POP SWAP9 POP SWAP9 POP SWAP9 POP SWAP9 POP POP SWAP2 SWAP4 SWAP6 SWAP8 POP SWAP2 SWAP4 SWAP6 SWAP8 JUMP JUMPDEST PUSH1 0x1 PUSH1 0x20 MSTORE DUP2 PUSH0 MSTORE PUSH1 0x40 PUSH0 KECCAK256 DUP2 DUP2 SLOAD DUP2 LT PUSH2 0x111C JUMPI PUSH0 DUP1 REVERT JUMPDEST SWAP1 PUSH0 MSTORE PUSH1 0x20 PUSH0 KECCAK256 ADD PUSH0 SWAP2 POP SWAP2 POP POP DUP1 SLOAD PUSH2 0x1135 SWAP1 PUSH2 0x1A0F JUMP JUMPDEST DUP1 PUSH1 0x1F ADD PUSH1 0x20 DUP1 SWAP2 DIV MUL PUSH1 0x20 ADD PUSH1 0x40 MLOAD SWAP1 DUP2 ADD PUSH1 0x40 MSTORE DUP1 SWAP3 SWAP2 SWAP1 DUP2 DUP2 MSTORE PUSH1 0x20 ADD DUP3 DUP1 SLOAD PUSH2 0x1161 SWAP1 PUSH2 0x1A0F JUMP JUMPDEST DUP1 ISZERO PUSH2 0x11AC JUMPI DUP1 PUSH1 0x1F LT PUSH2 0x1183 JUMPI PUSH2 0x100 DUP1 DUP4 SLOAD DIV MUL DUP4 MSTORE SWAP2 PUSH1 0x20 ADD SWAP2 PUSH2 0x11AC JUMP JUMPDEST DUP3 ADD SWAP2 SWAP1 PUSH0 MSTORE PUSH1 0x20 PUSH0 KECCAK256 SWAP1 JUMPDEST DUP2 SLOAD DUP2 MSTORE SWAP1 PUSH1 0x1 ADD SWAP1 PUSH1 0x20 ADD DUP1 DUP4 GT PUSH2 0x118F JUMPI DUP3 SWAP1 SUB PUSH1 0x1F AND DUP3 ADD SWAP2 JUMPDEST POP POP POP POP POP DUP2 JUMP JUMPDEST PUSH1 0x2 PUSH1 0x20 MSTORE DUP2 PUSH0 MSTORE PUSH1 0x40 PUSH0 KECCAK256 DUP2 DUP2 SLOAD DUP2 LT PUSH2 0x11CD JUMPI PUSH0 DUP1 REVERT JUMPDEST SWAP1 PUSH0 MSTORE PUSH1 0x20 PUSH0 KECCAK256 ADD PUSH0 SWAP2 POP SWAP2 POP POP DUP1 SLOAD PUSH2 0x11E6 SWAP1 PUSH2 0x1A0F JUMP JUMPDEST DUP1 PUSH1 0x1F ADD PUSH1 0x20 DUP1 SWAP2 DIV MUL PUSH1 0x20 ADD PUSH1 0x40 MLOAD SWAP1 DUP2 ADD PUSH1 0x40 MSTORE DUP1 SWAP3 SWAP2 SWAP1 DUP2 DUP2 MSTORE PUSH1 0x20 ADD DUP3 DUP1 SLOAD PUSH2 0x1212 SWAP1 PUSH2 0x1A0F JUMP JUMPDEST DUP1 ISZERO PUSH2 0x125D JUMPI DUP1 PUSH1 0x1F LT PUSH2 0x1234 JUMPI PUSH2 0x100 DUP1 DUP4 SLOAD DIV MUL DUP4 MSTORE SWAP2 PUSH1 0x20 ADD SWAP2 PUSH2 0x125D JUMP JUMPDEST DUP3 ADD SWAP2 SWAP1 PUSH0 MSTORE PUSH1 0x20 PUSH0 KECCAK256 SWAP1 JUMPDEST DUP2 SLOAD DUP2 MSTORE SWAP1 PUSH1 0x1 ADD SWAP1 PUSH1 0x20 ADD DUP1 DUP4 GT PUSH2 0x1240 JUMPI DUP3 SWAP1 SUB PUSH1 0x1F AND DUP3 ADD SWAP2 JUMPDEST POP POP POP POP POP DUP2 JUMP JUMPDEST PUSH1 0x60 PUSH1 0x1 PUSH0 DUP4 PUSH20 0xFFFFFFFFFFFFFFFFFFFFFFFFFFFFFFFFFFFFFFFF AND PUSH20 0xFFFFFFFFFFFFFFFFFFFFFFFFFFFFFFFFFFFFFFFF AND DUP2 MSTORE PUSH1 0x20 ADD SWAP1 DUP2 MSTORE PUSH1 0x20 ADD PUSH0 KECCAK256 DUP1 SLOAD DUP1 PUSH1 0x20 MUL PUSH1 0x20 ADD PUSH1 0x40 MLOAD SWAP1 DUP2 ADD PUSH1 0x40 MSTORE DUP1 SWAP3 SWAP2 SWAP1 DUP2 DUP2 MSTORE PUSH1 0x20 ADD PUSH0 SWAP1 JUMPDEST DUP3 DUP3 LT ISZERO PUSH2 0x136B JUMPI DUP4 DUP3 SWAP1 PUSH0 MSTORE PUSH1 0x20 PUSH0 KECCAK256 ADD DUP1 SLOAD PUSH2 0x12E0 SWAP1 PUSH2 0x1A0F JUMP JUMPDEST DUP1 PUSH1 0x1F ADD PUSH1 0x20 DUP1 SWAP2 DIV MUL PUSH1 0x20 ADD PUSH1 0x40 MLOAD SWAP1 DUP2 ADD PUSH1 0x40 MSTORE DUP1 SWAP3 SWAP2 SWAP1 DUP2 DUP2 MSTORE PUSH1 0x20 ADD DUP3 DUP1 SLOAD PUSH2 0x130C SWAP1 PUSH2 0x1A0F JUMP JUMPDEST DUP1 ISZERO PUSH2 0x1357 JUMPI DUP1 PUSH1 0x1F LT PUSH2 0x132E JUMPI PUSH2 0x100 DUP1 DUP4 SLOAD DIV MUL DUP4 MSTORE SWAP2 PUSH1 0x20 ADD SWAP2 PUSH2 0x1357 JUMP JUMPDEST DUP3 ADD SWAP2 SWAP1 PUSH0 MSTORE PUSH1 0x20 PUSH0 KECCAK256 SWAP1 JUMPDEST DUP2 SLOAD DUP2 MSTORE SWAP1 PUSH1 0x1 ADD SWAP1 PUSH1 0x20 ADD DUP1 DUP4 GT PUSH2 0x133A JUMPI DUP3 SWAP1 SUB PUSH1 0x1F AND DUP3 ADD SWAP2 JUMPDEST POP POP POP POP POP DUP2 MSTORE PUSH1 0x20 ADD SWAP1 PUSH1 0x1 ADD SWAP1 PUSH2 0x12C3 JUMP JUMPDEST POP POP POP POP SWAP1 POP SWAP2 SWAP1 POP JUMP JUMPDEST PUSH0 PUSH1 0x40 MLOAD SWAP1 POP SWAP1 JUMP JUMPDEST PUSH0 PUSH0 REVERT JUMPDEST PUSH0 PUSH0 REVERT JUMPDEST PUSH0 PUSH0 REVERT JUMPDEST PUSH0 PUSH0 REVERT JUMPDEST PUSH0 PUSH1 0x1F NOT PUSH1 0x1F DUP4 ADD AND SWAP1 POP SWAP2 SWAP1 POP JUMP JUMPDEST PUSH32 0x4E487B7100000000000000000000000000000000000000000000000000000000 PUSH0 MSTORE PUSH1 0x41 PUSH1 0x4 MSTORE PUSH1 0x24 PUSH0 REVERT JUMPDEST PUSH2 0x13D5 DUP3 PUSH2 0x138F JUMP JUMPDEST DUP2 ADD DUP2 DUP2 LT PUSH8 0xFFFFFFFFFFFFFFFF DUP3 GT OR ISZERO PUSH2 0x13F4 JUMPI PUSH2 0x13F3 PUSH2 0x139F JUMP JUMPDEST JUMPDEST DUP1 PUSH1 0x40 MSTORE POP POP POP JUMP JUMPDEST PUSH0 PUSH2 0x1406 PUSH2 0x1376 JUMP JUMPDEST SWAP1 POP PUSH2 0x1412 DUP3 DUP3 PUSH2 0x13CC JUMP JUMPDEST SWAP2 SWAP1 POP JUMP JUMPDEST PUSH0 PUSH8 0xFFFFFFFFFFFFFFFF DUP3 GT ISZERO PUSH2 0x1431 JUMPI PUSH2 0x1430 PUSH2 0x139F JUMP JUMPDEST JUMPDEST PUSH2 0x143A DUP3 PUSH2 0x138F JUMP JUMPDEST SWAP1 POP PUSH1 0x20 DUP2 ADD SWAP1 POP SWAP2 SWAP1 POP JUMP JUMPDEST DUP3 DUP2 DUP4 CALLDATACOPY PUSH0 DUP4 DUP4 ADD MSTORE POP POP POP JUMP JUMPDEST PUSH0 PUSH2 0x1467 PUSH2 0x1462 DUP5 PUSH2 0x1417 JUMP JUMPDEST PUSH2 0x13FD JUMP JUMPDEST SWAP1 POP DUP3 DUP2 MSTORE PUSH1 0x20 DUP2 ADD DUP5 DUP5 DUP5 ADD GT ISZERO PUSH2 0x1483 JUMPI PUSH2 0x1482 PUSH2 0x138B JUMP JUMPDEST JUMPDEST PUSH2 0x148E DUP5 DUP3 DUP6 PUSH2 0x1447 JUMP JUMPDEST POP SWAP4 SWAP3 POP POP POP JUMP JUMPDEST PUSH0 DUP3 PUSH1 0x1F DUP4 ADD SLT PUSH2 0x14AA JUMPI PUSH2 0x14A9 PUSH2 0x1387 JUMP JUMPDEST JUMPDEST DUP2 CALLDATALOAD PUSH2 0x14BA DUP5 DUP3 PUSH1 0x20 DUP7 ADD PUSH2 0x1455 JUMP JUMPDEST SWAP2 POP POP SWAP3 SWAP2 POP POP JUMP JUMPDEST PUSH0 PUSH1 0x20 DUP3 DUP5 SUB SLT ISZERO PUSH2 0x14D8 JUMPI PUSH2 0x14D7 PUSH2 0x137F JUMP JUMPDEST JUMPDEST PUSH0 DUP3 ADD CALLDATALOAD PUSH8 0xFFFFFFFFFFFFFFFF DUP2 GT ISZERO PUSH2 0x14F5 JUMPI PUSH2 0x14F4 PUSH2 0x1383 JUMP JUMPDEST JUMPDEST PUSH2 0x1501 DUP5 DUP3 DUP6 ADD PUSH2 0x1496 JUMP JUMPDEST SWAP2 POP POP SWAP3 SWAP2 POP POP JUMP JUMPDEST PUSH0 DUP2 MLOAD SWAP1 POP SWAP2 SWAP1 POP JUMP JUMPDEST PUSH0 DUP3 DUP3 MSTORE PUSH1 0x20 DUP3 ADD SWAP1 POP SWAP3 SWAP2 POP POP JUMP JUMPDEST DUP3 DUP2 DUP4 MCOPY PUSH0 DUP4 DUP4 ADD MSTORE POP POP POP JUMP JUMPDEST PUSH0 PUSH2 0x153C DUP3 PUSH2 0x150A JUMP JUMPDEST PUSH2 0x1546 DUP2 DUP6 PUSH2 0x1514 JUMP JUMPDEST SWAP4 POP PUSH2 0x1556 DUP2 DUP6 PUSH1 0x20 DUP7 ADD PUSH2 0x1524 JUMP JUMPDEST PUSH2 0x155F DUP2 PUSH2 0x138F JUMP JUMPDEST DUP5 ADD SWAP2 POP POP SWAP3 SWAP2 POP POP JUMP JUMPDEST PUSH0 PUSH20 0xFFFFFFFFFFFFFFFFFFFFFFFFFFFFFFFFFFFFFFFF DUP3 AND SWAP1 POP SWAP2 SWAP1 POP JUMP JUMPDEST PUSH0 PUSH2 0x1593 DUP3 PUSH2 0x156A JUMP JUMPDEST SWAP1 POP SWAP2 SWAP1 POP JUMP JUMPDEST PUSH2 0x15A3 DUP2 PUSH2 0x1589 JUMP JUMPDEST DUP3 MSTORE POP POP JUMP JUMPDEST PUSH0 DUP2 SWAP1 POP SWAP2 SWAP1 POP JUMP JUMPDEST PUSH2 0x15BB DUP2 PUSH2 0x15A9 JUMP JUMPDEST DUP3 MSTORE POP POP JUMP JUMPDEST PUSH0 DUP2 ISZERO ISZERO SWAP1 POP SWAP2 SWAP1 POP JUMP JUMPDEST PUSH2 0x15D5 DUP2 PUSH2 0x15C1 JUMP JUMPDEST DUP3 MSTORE POP POP JUMP JUMPDEST PUSH0 PUSH2 0x100 DUP3 ADD SWAP1 POP DUP2 DUP2 SUB PUSH0 DUP4 ADD MSTORE PUSH2 0x15F4 DUP2 DUP12 PUSH2 0x1532 JUMP JUMPDEST SWAP1 POP DUP2 DUP2 SUB PUSH1 0x20 DUP4 ADD MSTORE PUSH2 0x1608 DUP2 DUP11 PUSH2 0x1532 JUMP JUMPDEST SWAP1 POP DUP2 DUP2 SUB PUSH1 0x40 DUP4 ADD MSTORE PUSH2 0x161C DUP2 DUP10 PUSH2 0x1532 JUMP JUMPDEST SWAP1 POP PUSH2 0x162B PUSH1 0x60 DUP4 ADD DUP9 PUSH2 0x159A JUMP JUMPDEST PUSH2 0x1638 PUSH1 0x80 DUP4 ADD DUP8 PUSH2 0x159A JUMP JUMPDEST PUSH2 0x1645 PUSH1 0xA0 DUP4 ADD DUP7 PUSH2 0x15B2 JUMP JUMPDEST DUP2 DUP2 SUB PUSH1 0xC0 DUP4 ADD MSTORE PUSH2 0x1657 DUP2 DUP6 PUSH2 0x1532 JUMP JUMPDEST SWAP1 POP PUSH2 0x1666 PUSH1 0xE0 DUP4 ADD DUP5 PUSH2 0x15CC JUMP JUMPDEST SWAP10 SWAP9 POP POP POP POP POP POP POP POP POP JUMP JUMPDEST PUSH2 0x167C DUP2 PUSH2 0x1589 JUMP JUMPDEST DUP2 EQ PUSH2 0x1686 JUMPI PUSH0 PUSH0 REVERT JUMPDEST POP JUMP JUMPDEST PUSH0 DUP2 CALLDATALOAD SWAP1 POP PUSH2 0x1697 DUP2 PUSH2 0x1673 JUMP JUMPDEST SWAP3 SWAP2 POP POP JUMP JUMPDEST PUSH0 PUSH0 PUSH0 PUSH0 PUSH0 PUSH0 PUSH1 0xC0 DUP8 DUP10 SUB SLT ISZERO PUSH2 0x16B7 JUMPI PUSH2 0x16B6 PUSH2 0x137F JUMP JUMPDEST JUMPDEST PUSH0 DUP8 ADD CALLDATALOAD PUSH8 0xFFFFFFFFFFFFFFFF DUP2 GT ISZERO PUSH2 0x16D4 JUMPI PUSH2 0x16D3 PUSH2 0x1383 JUMP JUMPDEST JUMPDEST PUSH2 0x16E0 DUP10 DUP3 DUP11 ADD PUSH2 0x1496 JUMP JUMPDEST SWAP7 POP POP PUSH1 0x20 DUP8 ADD CALLDATALOAD PUSH8 0xFFFFFFFFFFFFFFFF DUP2 GT ISZERO PUSH2 0x1701 JUMPI PUSH2 0x1700 PUSH2 0x1383 JUMP JUMPDEST JUMPDEST PUSH2 0x170D DUP10 DUP3 DUP11 ADD PUSH2 0x1496 JUMP JUMPDEST SWAP6 POP POP PUSH1 0x40 DUP8 ADD CALLDATALOAD PUSH8 0xFFFFFFFFFFFFFFFF DUP2 GT ISZERO PUSH2 0x172E JUMPI PUSH2 0x172D PUSH2 0x1383 JUMP JUMPDEST JUMPDEST PUSH2 0x173A DUP10 DUP3 DUP11 ADD PUSH2 0x1496 JUMP JUMPDEST SWAP5 POP POP PUSH1 0x60 PUSH2 0x174B DUP10 DUP3 DUP11 ADD PUSH2 0x1689 JUMP JUMPDEST SWAP4 POP POP PUSH1 0x80 PUSH2 0x175C DUP10 DUP3 DUP11 ADD PUSH2 0x1689 JUMP JUMPDEST SWAP3 POP POP PUSH1 0xA0 DUP8 ADD CALLDATALOAD PUSH8 0xFFFFFFFFFFFFFFFF DUP2 GT ISZERO PUSH2 0x177D JUMPI PUSH2 0x177C PUSH2 0x1383 JUMP JUMPDEST JUMPDEST PUSH2 0x1789 DUP10 DUP3 DUP11 ADD PUSH2 0x1496 JUMP JUMPDEST SWAP2 POP POP SWAP3 SWAP6 POP SWAP3 SWAP6 POP SWAP3 SWAP6 JUMP JUMPDEST PUSH2 0x179F DUP2 PUSH2 0x15A9 JUMP JUMPDEST DUP2 EQ PUSH2 0x17A9 JUMPI PUSH0 PUSH0 REVERT JUMPDEST POP JUMP JUMPDEST PUSH0 DUP2 CALLDATALOAD SWAP1 POP PUSH2 0x17BA DUP2 PUSH2 0x1796 JUMP JUMPDEST SWAP3 SWAP2 POP POP JUMP JUMPDEST PUSH0 PUSH1 0x20 DUP3 DUP5 SUB SLT ISZERO PUSH2 0x17D5 JUMPI PUSH2 0x17D4 PUSH2 0x137F JUMP JUMPDEST JUMPDEST PUSH0 PUSH2 0x17E2 DUP5 DUP3 DUP6 ADD PUSH2 0x17AC JUMP JUMPDEST SWAP2 POP POP SWAP3 SWAP2 POP POP JUMP JUMPDEST PUSH0 PUSH1 0x20 DUP3 ADD SWAP1 POP DUP2 DUP2 SUB PUSH0 DUP4 ADD MSTORE PUSH2 0x1803 DUP2 DUP5 PUSH2 0x1532 JUMP JUMPDEST SWAP1 POP SWAP3 SWAP2 POP POP JUMP JUMPDEST PUSH0 PUSH1 0x20 DUP3 DUP5 SUB SLT ISZERO PUSH2 0x1820 JUMPI PUSH2 0x181F PUSH2 0x137F JUMP JUMPDEST JUMPDEST PUSH0 PUSH2 0x182D DUP5 DUP3 DUP6 ADD PUSH2 0x1689 JUMP JUMPDEST SWAP2 POP POP SWAP3 SWAP2 POP POP JUMP JUMPDEST PUSH0 DUP2 MLOAD SWAP1 POP SWAP2 SWAP1 POP JUMP JUMPDEST PUSH0 DUP3 DUP3 MSTORE PUSH1 0x20 DUP3 ADD SWAP1 POP SWAP3 SWAP2 POP POP JUMP JUMPDEST PUSH0 DUP2 SWAP1 POP PUSH1 0x20 DUP3 ADD SWAP1 POP SWAP2 SWAP1 POP JUMP JUMPDEST PUSH0 DUP3 DUP3 MSTORE PUSH1 0x20 DUP3 ADD SWAP1 POP SWAP3 SWAP2 POP POP JUMP JUMPDEST PUSH0 PUSH2 0x1879 DUP3 PUSH2 0x150A JUMP JUMPDEST PUSH2 0x1883 DUP2 DUP6 PUSH2 0x185F JUMP JUMPDEST SWAP4 POP PUSH2 0x1893 DUP2 DUP6 PUSH1 0x20 DUP7 ADD PUSH2 0x1524 JUMP JUMPDEST PUSH2 0x189C DUP2 PUSH2 0x138F JUMP JUMPDEST DUP5 ADD SWAP2 POP POP SWAP3 SWAP2 POP POP JUMP JUMPDEST PUSH0 PUSH2 0x18B2 DUP4 DUP4 PUSH2 0x186F JUMP JUMPDEST SWAP1 POP SWAP3 SWAP2 POP POP JUMP JUMPDEST PUSH0 PUSH1 0x20 DUP3 ADD SWAP1 POP SWAP2 SWAP1 POP JUMP JUMPDEST PUSH0 PUSH2 0x18D0 DUP3 PUSH2 0x1836 JUMP JUMPDEST PUSH2 0x18DA DUP2 DUP6 PUSH2 0x1840 JUMP JUMPDEST SWAP4 POP DUP4 PUSH1 0x20 DUP3 MUL DUP6 ADD PUSH2 0x18EC DUP6 PUSH2 0x1850 JUMP JUMPDEST DUP1 PUSH0 JUMPDEST DUP6 DUP2 LT ISZERO PUSH2 0x1927 JUMPI DUP5 DUP5 SUB DUP10 MSTORE DUP2 MLOAD PUSH2 0x1908 DUP6 DUP3 PUSH2 0x18A7 JUMP JUMPDEST SWAP5 POP PUSH2 0x1913 DUP4 PUSH2 0x18BA JUMP JUMPDEST SWAP3 POP PUSH1 0x20 DUP11 ADD SWAP10 POP POP PUSH1 0x1 DUP2 ADD SWAP1 POP PUSH2 0x18EF JUMP JUMPDEST POP DUP3 SWAP8 POP DUP8 SWAP6 POP POP POP POP POP POP SWAP3 SWAP2 POP POP JUMP JUMPDEST PUSH0 PUSH1 0x20 DUP3 ADD SWAP1 POP DUP2 DUP2 SUB PUSH0 DUP4 ADD MSTORE PUSH2 0x1951 DUP2 DUP5 PUSH2 0x18C6 JUMP JUMPDEST SWAP1 POP SWAP3 SWAP2 POP POP JUMP JUMPDEST PUSH0 PUSH1 0x20 DUP3 ADD SWAP1 POP PUSH2 0x196C PUSH0 DUP4 ADD DUP5 PUSH2 0x15B2 JUMP JUMPDEST SWAP3 SWAP2 POP POP JUMP JUMPDEST PUSH0 PUSH1 0x20 DUP3 ADD SWAP1 POP PUSH2 0x1985 PUSH0 DUP4 ADD DUP5 PUSH2 0x15CC JUMP JUMPDEST SWAP3 SWAP2 POP POP JUMP JUMPDEST PUSH0 PUSH1 0x20 DUP3 ADD SWAP1 POP PUSH2 0x199E PUSH0 DUP4 ADD DUP5 PUSH2 0x159A JUMP JUMPDEST SWAP3 SWAP2 POP POP JUMP JUMPDEST PUSH0 PUSH0 PUSH1 0x40 DUP4 DUP6 SUB SLT ISZERO PUSH2 0x19BA JUMPI PUSH2 0x19B9 PUSH2 0x137F JUMP JUMPDEST JUMPDEST PUSH0 PUSH2 0x19C7 DUP6 DUP3 DUP7 ADD PUSH2 0x1689 JUMP JUMPDEST SWAP3 POP POP PUSH1 0x20 PUSH2 0x19D8 DUP6 DUP3 DUP7 ADD PUSH2 0x17AC JUMP JUMPDEST SWAP2 POP POP SWAP3 POP SWAP3 SWAP1 POP JUMP JUMPDEST PUSH32 0x4E487B7100000000000000000000000000000000000000000000000000000000 PUSH0 MSTORE PUSH1 0x22 PUSH1 0x4 MSTORE PUSH1 0x24 PUSH0 REVERT JUMPDEST PUSH0 PUSH1 0x2 DUP3 DIV SWAP1 POP PUSH1 0x1 DUP3 AND DUP1 PUSH2 0x1A26 JUMPI PUSH1 0x7F DUP3 AND SWAP2 POP JUMPDEST PUSH1 0x20 DUP3 LT DUP2 SUB PUSH2 0x1A39 JUMPI PUSH2 0x1A38 PUSH2 0x19E2 JUMP JUMPDEST JUMPDEST POP SWAP2 SWAP1 POP JUMP JUMPDEST PUSH32 0x4F6E6C79206F776E65722063616E2063616C6C20746869732066756E6374696F PUSH0 DUP3 ADD MSTORE PUSH32 0x6E00000000000000000000000000000000000000000000000000000000000000 PUSH1 0x20 DUP3 ADD MSTORE POP JUMP JUMPDEST PUSH0 PUSH2 0x1A99 PUSH1 0x21 DUP4 PUSH2 0x1514 JUMP JUMPDEST SWAP2 POP PUSH2 0x1AA4 DUP3 PUSH2 0x1A3F JUMP JUMPDEST PUSH1 0x40 DUP3 ADD SWAP1 POP SWAP2 SWAP1 POP JUMP JUMPDEST PUSH0 PUSH1 0x20 DUP3 ADD SWAP1 POP DUP2 DUP2 SUB PUSH0 DUP4 ADD MSTORE PUSH2 0x1AC6 DUP2 PUSH2 0x1A8D JUMP JUMPDEST SWAP1 POP SWAP2 SWAP1 POP JUMP JUMPDEST PUSH32 0x4F72646572204944207265717569726564000000000000000000000000000000 PUSH0 DUP3 ADD MSTORE POP JUMP JUMPDEST PUSH0 PUSH2 0x1B01 PUSH1 0x11 DUP4 PUSH2 0x1514 JUMP JUMPDEST SWAP2 POP PUSH2 0x1B0C DUP3 PUSH2 0x1ACD JUMP JUMPDEST PUSH1 0x20 DUP3 ADD SWAP1 POP SWAP2 SWAP1 POP JUMP JUMPDEST PUSH0 PUSH1 0x20 DUP3 ADD SWAP1 POP DUP2 DUP2 SUB PUSH0 DUP4 ADD MSTORE PUSH2 0x1B2E DUP2 PUSH2 0x1AF5 JUMP JUMPDEST SWAP1 POP SWAP2 SWAP1 POP JUMP JUMPDEST PUSH32 0x5061796D656E74207265666572656E6365207265717569726564000000000000 PUSH0 DUP3 ADD MSTORE POP JUMP JUMPDEST PUSH0 PUSH2 0x1B69 PUSH1 0x1A DUP4 PUSH2 0x1514 JUMP JUMPDEST SWAP2 POP PUSH2 0x1B74 DUP3 PUSH2 0x1B35 JUMP JUMPDEST PUSH1 0x20 DUP3 ADD SWAP1 POP SWAP2 SWAP1 POP JUMP JUMPDEST PUSH0 PUSH1 0x20 DUP3 ADD SWAP1 POP DUP2 DUP2 SUB PUSH0 DUP4 ADD MSTORE PUSH2 0x1B96 DUP2 PUSH2 0x1B5D JUMP JUMPDEST SWAP1 POP SWAP2 SWAP1 POP JUMP JUMPDEST PUSH32 0x416D6F756E742072657175697265640000000000000000000000000000000000 PUSH0 DUP3 ADD MSTORE POP JUMP JUMPDEST PUSH0 PUSH2 0x1BD1 PUSH1 0xF DUP4 PUSH2 0x1514 JUMP JUMPDEST SWAP2 POP PUSH2 0x1BDC DUP3 PUSH2 0x1B9D JUMP JUMPDEST PUSH1 0x20 DUP3 ADD SWAP1 POP SWAP2 SWAP1 POP JUMP JUMPDEST PUSH0 PUSH1 0x20 DUP3 ADD SWAP1 POP DUP2 DUP2 SUB PUSH0 DUP4 ADD MSTORE PUSH2 0x1BFE DUP2 PUSH2 0x1BC5 JUMP JUMPDEST SWAP1 POP SWAP2 SWAP1 POP JUMP JUMPDEST PUSH32 0x496E76616C696420627579657220616464726573730000000000000000000000 PUSH0 DUP3 ADD MSTORE POP JUMP JUMPDEST PUSH0 PUSH2 0x1C39 PUSH1 0x15 DUP4 PUSH2 0x1514 JUMP JUMPDEST SWAP2 POP PUSH2 0x1C44 DUP3 PUSH2 0x1C05 JUMP JUMPDEST PUSH1 0x20 DUP3 ADD SWAP1 POP SWAP2 SWAP1 POP JUMP JUMPDEST PUSH0 PUSH1 0x20 DUP3 ADD SWAP1 POP DUP2 DUP2 SUB PUSH0 DUP4 ADD MSTORE PUSH2 0x1C66 DUP2 PUSH2 0x1C2D JUMP JUMPDEST SWAP1 POP SWAP2 SWAP1 POP JUMP JUMPDEST PUSH32 0x496E76616C69642070726F647563657220616464726573730000000000000000 PUSH0 DUP3 ADD MSTORE POP JUMP JUMPDEST PUSH0 PUSH2 0x1CA1 PUSH1 0x18 DUP4 PUSH2 0x1514 JUMP JUMPDEST SWAP2 POP PUSH2 0x1CAC DUP3 PUSH2 0x1C6D JUMP JUMPDEST PUSH1 0x20 DUP3 ADD SWAP1 POP SWAP2 SWAP1 POP JUMP JUMPDEST PUSH0 PUSH1 0x20 DUP3 ADD SWAP1 POP DUP2 DUP2 SUB PUSH0 DUP4 ADD MSTORE PUSH2 0x1CCE DUP2 PUSH2 0x1C95 JUMP JUMPDEST SWAP1 POP SWAP2 SWAP1 POP JUMP JUMPDEST PUSH0 DUP2 SWAP1 POP SWAP3 SWAP2 POP POP JUMP JUMPDEST PUSH0 PUSH2 0x1CE9 DUP3 PUSH2 0x150A JUMP JUMPDEST PUSH2 0x1CF3 DUP2 DUP6 PUSH2 0x1CD5 JUMP JUMPDEST SWAP4 POP PUSH2 0x1D03 DUP2 DUP6 PUSH1 0x20 DUP7 ADD PUSH2 0x1524 JUMP JUMPDEST DUP1 DUP5 ADD SWAP2 POP POP SWAP3 SWAP2 POP POP JUMP JUMPDEST PUSH0 PUSH2 0x1D1A DUP3 DUP5 PUSH2 0x1CDF JUMP JUMPDEST SWAP2 POP DUP2 SWAP1 POP SWAP3 SWAP2 POP POP JUMP JUMPDEST PUSH32 0x5472616E73616374696F6E20616C7265616479207265636F7264656400000000 PUSH0 DUP3 ADD MSTORE POP JUMP JUMPDEST PUSH0 PUSH2 0x1D59 PUSH1 0x1C DUP4 PUSH2 0x1514 JUMP JUMPDEST SWAP2 POP PUSH2 0x1D64 DUP3 PUSH2 0x1D25 JUMP JUMPDEST PUSH1 0x20 DUP3 ADD SWAP1 POP SWAP2 SWAP1 POP JUMP JUMPDEST PUSH0 PUSH1 0x20 DUP3 ADD SWAP1 POP DUP2 DUP2 SUB PUSH0 DUP4 ADD MSTORE PUSH2 0x1D86 DUP2 PUSH2 0x1D4D JUMP JUMPDEST SWAP1 POP SWAP2 SWAP1 POP JUMP JUMPDEST PUSH0 DUP2 SWAP1 POP DUP2 PUSH0 MSTORE PUSH1 0x20 PUSH0 KECCAK256 SWAP1 POP SWAP2 SWAP1 POP JUMP JUMPDEST PUSH0 PUSH1 0x20 PUSH1 0x1F DUP4 ADD DIV SWAP1 POP SWAP2 SWAP1 POP JUMP JUMPDEST PUSH0 DUP3 DUP3 SHL SWAP1 POP SWAP3 SWAP2 POP POP JUMP JUMPDEST PUSH0 PUSH1 0x8 DUP4 MUL PUSH2 0x1DE9 PUSH32 0xFFFFFFFFFFFFFFFFFFFFFFFFFFFFFFFFFFFFFFFFFFFFFFFFFFFFFFFFFFFFFFFF DUP3 PUSH2 0x1DAE JUMP JUMPDEST PUSH2 0x1DF3 DUP7 DUP4 PUSH2 0x1DAE JUMP JUMPDEST SWAP6 POP DUP1 NOT DUP5 AND SWAP4 POP DUP1 DUP7 AND DUP5 OR SWAP3 POP POP POP SWAP4 SWAP3 POP POP POP JUMP JUMPDEST PUSH0 DUP2 SWAP1 POP SWAP2 SWAP1 POP JUMP JUMPDEST PUSH0 PUSH2 0x1E2E PUSH2 0x1E29 PUSH2 0x1E24 DUP5 PUSH2 0x15A9 JUMP JUMPDEST PUSH2 0x1E0B JUMP JUMPDEST PUSH2 0x15A9 JUMP JUMPDEST SWAP1 POP SWAP2 SWAP1 POP JUMP JUMPDEST PUSH0 DUP2 SWAP1 POP SWAP2 SWAP1 POP JUMP JUMPDEST PUSH2 0x1E47 DUP4 PUSH2 0x1E14 JUMP JUMPDEST PUSH2 0x1E5B PUSH2 0x1E53 DUP3 PUSH2 0x1E35 JUMP JUMPDEST DUP5 DUP5 SLOAD PUSH2 0x1DBA JUMP JUMPDEST DUP3 SSTORE POP POP POP POP JUMP JUMPDEST PUSH0 PUSH0 SWAP1 POP SWAP1 JUMP JUMPDEST PUSH2 0x1E72 PUSH2 0x1E63 JUMP JUMPDEST PUSH2 0x1E7D DUP2 DUP5 DUP5 PUSH2 0x1E3E JUMP JUMPDEST POP POP POP JUMP JUMPDEST JUMPDEST DUP2 DUP2 LT ISZERO PUSH2 0x1EA0 JUMPI PUSH2 0x1E95 PUSH0 DUP3 PUSH2 0x1E6A JUMP JUMPDEST PUSH1 0x1 DUP2 ADD SWAP1 POP PUSH2 0x1E83 JUMP JUMPDEST POP POP JUMP JUMPDEST PUSH1 0x1F DUP3 GT ISZERO PUSH2 0x1EE5 JUMPI PUSH2 0x1EB6 DUP2 PUSH2 0x1D8D JUMP JUMPDEST PUSH2 0x1EBF DUP5 PUSH2 0x1D9F JUMP JUMPDEST DUP2 ADD PUSH1 0x20 DUP6 LT ISZERO PUSH2 0x1ECE JUMPI DUP2 SWAP1 POP JUMPDEST PUSH2 0x1EE2 PUSH2 0x1EDA DUP6 PUSH2 0x1D9F JUMP JUMPDEST DUP4 ADD DUP3 PUSH2 0x1E82 JUMP JUMPDEST POP POP JUMPDEST POP POP POP JUMP JUMPDEST PUSH0 DUP3 DUP3 SHR SWAP1 POP SWAP3 SWAP2 POP POP JUMP JUMPDEST PUSH0 PUSH2 0x1F05 PUSH0 NOT DUP5 PUSH1 0x8 MUL PUSH2 0x1EEA JUMP JUMPDEST NOT DUP1 DUP4 AND SWAP2 POP POP SWAP3 SWAP2 POP POP JUMP JUMPDEST PUSH0 PUSH2 0x1F1D DUP4 DUP4 PUSH2 0x1EF6 JUMP JUMPDEST SWAP2 POP DUP3 PUSH1 0x2 MUL DUP3 OR SWAP1 POP SWAP3 SWAP2 POP POP JUMP JUMPDEST PUSH2 0x1F36 DUP3 PUSH2 0x150A JUMP JUMPDEST PUSH8 0xFFFFFFFFFFFFFFFF DUP2 GT ISZERO PUSH2 0x1F4F JUMPI PUSH2 0x1F4E PUSH2 0x139F JUMP JUMPDEST JUMPDEST PUSH2 0x1F59 DUP3 SLOAD PUSH2 0x1A0F JUMP JUMPDEST PUSH2 0x1F64 DUP3 DUP3 DUP6 PUSH2 0x1EA4 JUMP JUMPDEST PUSH0 PUSH1 0x20 SWAP1 POP PUSH1 0x1F DUP4 GT PUSH1 0x1 DUP2 EQ PUSH2 0x1F95 JUMPI PUSH0 DUP5 ISZERO PUSH2 0x1F83 JUMPI DUP3 DUP8 ADD MLOAD SWAP1 POP JUMPDEST PUSH2 0x1F8D DUP6 DUP3 PUSH2 0x1F12 JUMP JUMPDEST DUP7 SSTORE POP PUSH2 0x1FF4 JUMP JUMPDEST PUSH1 0x1F NOT DUP5 AND PUSH2 0x1FA3 DUP7 PUSH2 0x1D8D JUMP JUMPDEST PUSH0 JUMPDEST DUP3 DUP2 LT ISZERO PUSH2 0x1FCA JUMPI DUP5 DUP10 ADD MLOAD DUP3 SSTORE PUSH1 0x1 DUP3 ADD SWAP2 POP PUSH1 0x20 DUP6 ADD SWAP5 POP PUSH1 0x20 DUP2 ADD SWAP1 POP PUSH2 0x1FA5 JUMP JUMPDEST DUP7 DUP4 LT ISZERO PUSH2 0x1FE7 JUMPI DUP5 DUP10 ADD MLOAD PUSH2 0x1FE3 PUSH1 0x1F DUP10 AND DUP3 PUSH2 0x1EF6 JUMP JUMPDEST DUP4 SSTORE POP JUMPDEST PUSH1 0x1 PUSH1 0x2 DUP9 MUL ADD DUP9 SSTORE POP POP POP JUMPDEST POP POP POP POP POP POP JUMP JUMPDEST PUSH0 PUSH1 0x80 DUP3 ADD SWAP1 POP DUP2 DUP2 SUB PUSH0 DUP4 ADD MSTORE PUSH2 0x2014 DUP2 DUP8 PUSH2 0x1532 JUMP JUMPDEST SWAP1 POP DUP2 DUP2 SUB PUSH1 0x20 DUP4 ADD MSTORE PUSH2 0x2028 DUP2 DUP7 PUSH2 0x1532 JUMP JUMPDEST SWAP1 POP PUSH2 0x2037 PUSH1 0x40 DUP4 ADD DUP6 PUSH2 0x15B2 JUMP JUMPDEST DUP2 DUP2 SUB PUSH1 0x60 DUP4 ADD MSTORE PUSH2 0x2049 DUP2 DUP5 PUSH2 0x1532 JUMP JUMPDEST SWAP1 POP SWAP6 SWAP5 POP POP POP POP POP JUMP JUMPDEST PUSH32 0x5472616E73616374696F6E206E6F7420666F756E640000000000000000000000 PUSH0 DUP3 ADD MSTORE POP JUMP JUMPDEST PUSH0 PUSH2 0x2088 PUSH1 0x15 DUP4 PUSH2 0x1514 JUMP JUMPDEST SWAP2 POP PUSH2 0x2093 DUP3 PUSH2 0x2054 JUMP JUMPDEST PUSH1 0x20 DUP3 ADD SWAP1 POP SWAP2 SWAP1 POP JUMP JUMPDEST PUSH0 PUSH1 0x20 DUP3 ADD SWAP1 POP DUP2 DUP2 SUB PUSH0 DUP4 ADD MSTORE PUSH2 0x20B5 DUP2 PUSH2 0x207C JUMP JUMPDEST SWAP1 POP SWAP2 SWAP1 POP JUMP INVALID LOG2 PUSH5 0x6970667358 0x22 SLT KECCAK256 PUSH16 0xE4FE4BAF577458CE0E182E58B4941F4D SWAPN 0x92 0xF RETURNDATASIZE RETURN DUP16 PUSH27 0x4DCEFE931AC79BA64736F6C634300081E00330000000000000000 "
				},
				"gasEstimates": {
					"creation": {
						"codeDepositCost": "1686800",
						"executionCost": "26034",
						"totalCost": "1712834"
					},
					"external": {
						"allTransactionIds(uint256)": "infinite",
						"getProducerTransactions(address)": "infinite",
						"getTransaction(string)": "infinite",
						"getTransactionCount()": "2529",
						"getUserTransactions(address)": "infinite",
						"owner()": "2530",
						"producerTransactions(address,uint256)": "infinite",
						"recordTransaction(string,string,string,address,address,string)": "infinite",
						"transactions(string)": "infinite",
						"userTransactions(address,uint256)": "infinite",
						"verifyTransaction(string)": "infinite"
					}
				},
				"methodIdentifiers": {
					"allTransactionIds(uint256)": "2a4f6f96",
					"getProducerTransactions(address)": "2e08673a",
					"getTransaction(string)": "ac2ccd07",
					"getTransactionCount()": "2e7700f0",
					"getUserTransactions(address)": "ef925399",
					"owner()": "8da5cb5b",
					"producerTransactions(address,uint256)": "c14a08c9",
					"recordTransaction(string,string,string,address,address,string)": "0a5be728",
					"transactions(string)": "022236f4",
					"userTransactions(address,uint256)": "b842ec44",
					"verifyTransaction(string)": "6f37ce43"
				}
			},
			"storageLayout": {
				"storage": [
					{
						"astId": 23,
						"contract": "blockchain/contracts/Marketplace.sol:Marketplace",
						"label": "transactions",
						"offset": 0,
						"slot": "0",
						"type": "t_mapping(t_string_memory_ptr,t_struct(TransactionRecord)18_storage)"
					},
					{
						"astId": 28,
						"contract": "blockchain/contracts/Marketplace.sol:Marketplace",
						"label": "userTransactions",
						"offset": 0,
						"slot": "1",
						"type": "t_mapping(t_address,t_array(t_string_storage)dyn_storage)"
					},
					{
						"astId": 33,
						"contract": "blockchain/contracts/Marketplace.sol:Marketplace",
						"label": "producerTransactions",
						"offset": 0,
						"slot": "2",
						"type": "t_mapping(t_address,t_array(t_string_storage)dyn_storage)"
					},
					{
						"astId": 36,
						"contract": "blockchain/contracts/Marketplace.sol:Marketplace",
						"label": "allTransactionIds",
						"offset": 0,
						"slot": "3",
						"type": "t_array(t_string_storage)dyn_storage"
					},
					{
						"astId": 38,
						"contract": "blockchain/contracts/Marketplace.sol:Marketplace",
						"label": "owner",
						"offset": 0,
						"slot": "4",
						"type": "t_address"
					}
				],
				"types": {
					"t_address": {
						"encoding": "inplace",
						"label": "address",
						"numberOfBytes": "20"
					},
					"t_array(t_string_storage)dyn_storage": {
						"base": "t_string_storage",
						"encoding": "dynamic_array",
						"label": "string[]",
						"numberOfBytes": "32"
					},
					"t_bool": {
						"encoding": "inplace",
						"label": "bool",
						"numberOfBytes": "1"
					},
					"t_mapping(t_address,t_array(t_string_storage)dyn_storage)": {
						"encoding": "mapping",
						"key": "t_address",
						"label": "mapping(address => string[])",
						"numberOfBytes": "32",
						"value": "t_array(t_string_storage)dyn_storage"
					},
					"t_mapping(t_string_memory_ptr,t_struct(TransactionRecord)18_storage)": {
						"encoding": "mapping",
						"key": "t_string_memory_ptr",
						"label": "mapping(string => struct Marketplace.TransactionRecord)",
						"numberOfBytes": "32",
						"value": "t_struct(TransactionRecord)18_storage"
					},
					"t_string_memory_ptr": {
						"encoding": "bytes",
						"label": "string",
						"numberOfBytes": "32"
					},
					"t_string_storage": {
						"encoding": "bytes",
						"label": "string",
						"numberOfBytes": "32"
					},
					"t_struct(TransactionRecord)18_storage": {
						"encoding": "inplace",
						"label": "struct Marketplace.TransactionRecord",
						"members": [
							{
								"astId": 3,
								"contract": "blockchain/contracts/Marketplace.sol:Marketplace",
								"label": "orderId",
								"offset": 0,
								"slot": "0",
								"type": "t_string_storage"
							},
							{
								"astId": 5,
								"contract": "blockchain/contracts/Marketplace.sol:Marketplace",
								"label": "paymentReference",
								"offset": 0,
								"slot": "1",
								"type": "t_string_storage"
							},
							{
								"astId": 7,
								"contract": "blockchain/contracts/Marketplace.sol:Marketplace",
								"label": "amountETB",
								"offset": 0,
								"slot": "2",
								"type": "t_string_storage"
							},
							{
								"astId": 9,
								"contract": "blockchain/contracts/Marketplace.sol:Marketplace",
								"label": "buyer",
								"offset": 0,
								"slot": "3",
								"type": "t_address"
							},
							{
								"astId": 11,
								"contract": "blockchain/contracts/Marketplace.sol:Marketplace",
								"label": "producer",
								"offset": 0,
								"slot": "4",
								"type": "t_address"
							},
							{
								"astId": 13,
								"contract": "blockchain/contracts/Marketplace.sol:Marketplace",
								"label": "timestamp",
								"offset": 0,
								"slot": "5",
								"type": "t_uint256"
							},
							{
								"astId": 15,
								"contract": "blockchain/contracts/Marketplace.sol:Marketplace",
								"label": "txHash",
								"offset": 0,
								"slot": "6",
								"type": "t_string_storage"
							},
							{
								"astId": 17,
								"contract": "blockchain/contracts/Marketplace.sol:Marketplace",
								"label": "isVerified",
								"offset": 0,
								"slot": "7",
								"type": "t_bool"
							}
						],
						"numberOfBytes": "256"
					},
					"t_uint256": {
						"encoding": "inplace",
						"label": "uint256",
						"numberOfBytes": "32"
					}
				}
			},
			"userdoc": {
				"kind": "user",
				"methods": {},
				"version": 1
			}
		}
	}
}